{"contracts/CH.sol":{"CH":{"abi":[{"inputs":[],"stateMutability":"nonpayable","type":"constructor"},{"inputs":[{"internalType":"address","name":"operator","type":"address"}],"name":"OperatorNotAllowed","type":"error"},{"anonymous":false,"inputs":[{"indexed":true,"internalType":"address","name":"owner","type":"address"},{"indexed":true,"internalType":"address","name":"approved","type":"address"},{"indexed":true,"internalType":"uint256","name":"tokenId","type":"uint256"}],"name":"Approval","type":"event"},{"anonymous":false,"inputs":[{"indexed":true,"internalType":"address","name":"owner","type":"address"},{"indexed":true,"internalType":"address","name":"operator","type":"address"},{"indexed":false,"internalType":"bool","name":"approved","type":"bool"}],"name":"ApprovalForAll","type":"event"},{"anonymous":false,"inputs":[{"indexed":true,"internalType":"address","name":"previousOwner","type":"address"},{"indexed":true,"internalType":"address","name":"newOwner","type":"address"}],"name":"OwnershipTransferred","type":"event"},{"anonymous":false,"inputs":[{"indexed":true,"internalType":"address","name":"from","type":"address"},{"indexed":true,"internalType":"address","name":"to","type":"address"},{"indexed":true,"internalType":"uint256","name":"tokenId","type":"uint256"}],"name":"Transfer","type":"event"},{"inputs":[],"name":"OPERATOR_FILTER_REGISTRY","outputs":[{"internalType":"contract IOperatorFilterRegistry","name":"","type":"address"}],"stateMutability":"view","type":"function"},{"inputs":[{"internalType":"address","name":"operator","type":"address"},{"internalType":"uint256","name":"tokenId","type":"uint256"}],"name":"approve","outputs":[],"stateMutability":"nonpayable","type":"function"},{"inputs":[{"internalType":"address","name":"owner","type":"address"}],"name":"balanceOf","outputs":[{"internalType":"uint256","name":"","type":"uint256"}],"stateMutability":"view","type":"function"},{"inputs":[],"name":"baseTokenURI","outputs":[{"internalType":"string","name":"","type":"string"}],"stateMutability":"view","type":"function"},{"inputs":[{"internalType":"uint256","name":"tokenId","type":"uint256"}],"name":"getApproved","outputs":[{"internalType":"address","name":"","type":"address"}],"stateMutability":"view","type":"function"},{"inputs":[{"internalType":"address","name":"owner","type":"address"},{"internalType":"address","name":"operator","type":"address"}],"name":"isApprovedForAll","outputs":[{"internalType":"bool","name":"","type":"bool"}],"stateMutability":"view","type":"function"},{"inputs":[],"name":"name","outputs":[{"internalType":"string","name":"","type":"string"}],"stateMutability":"view","type":"function"},{"inputs":[],"name":"owner","outputs":[{"internalType":"address","name":"","type":"address"}],"stateMutability":"view","type":"function"},{"inputs":[{"internalType":"uint256","name":"tokenId","type":"uint256"}],"name":"ownerOf","outputs":[{"internalType":"address","name":"","type":"address"}],"stateMutability":"view","type":"function"},{"inputs":[{"internalType":"address","name":"dest","type":"address"}],"name":"payments","outputs":[{"internalType":"uint256","name":"","type":"uint256"}],"stateMutability":"view","type":"function"},{"inputs":[],"name":"renounceOwnership","outputs":[],"stateMutability":"nonpayable","type":"function"},{"inputs":[{"internalType":"address","name":"recipient","type":"address"},{"internalType":"string","name":"uri","type":"string"}],"name":"safeMint","outputs":[{"internalType":"uint256","name":"","type":"uint256"}],"stateMutability":"nonpayable","type":"function"},{"inputs":[{"internalType":"address","name":"from","type":"address"},{"internalType":"address","name":"to","type":"address"},{"internalType":"uint256","name":"tokenId","type":"uint256"}],"name":"safeTransferFrom","outputs":[],"stateMutability":"nonpayable","type":"function"},{"inputs":[{"internalType":"address","name":"from","type":"address"},{"internalType":"address","name":"to","type":"address"},{"internalType":"uint256","name":"tokenId","type":"uint256"},{"internalType":"bytes","name":"data","type":"bytes"}],"name":"safeTransferFrom","outputs":[],"stateMutability":"nonpayable","type":"function"},{"inputs":[{"internalType":"address","name":"operator","type":"address"},{"internalType":"bool","name":"approved","type":"bool"}],"name":"setApprovalForAll","outputs":[],"stateMutability":"nonpayable","type":"function"},{"inputs":[{"internalType":"string","name":"_baseTokenURI","type":"string"}],"name":"setBaseTokenURI","outputs":[],"stateMutability":"nonpayable","type":"function"},{"inputs":[{"internalType":"uint256","name":"tokenId","type":"uint256"},{"internalType":"string","name":"uri","type":"string"}],"name":"setTokenURI","outputs":[],"stateMutability":"nonpayable","type":"function"},{"inputs":[{"internalType":"bytes4","name":"interfaceId","type":"bytes4"}],"name":"supportsInterface","outputs":[{"internalType":"bool","name":"","type":"bool"}],"stateMutability":"view","type":"function"},{"inputs":[],"name":"symbol","outputs":[{"internalType":"string","name":"","type":"string"}],"stateMutability":"view","type":"function"},{"inputs":[{"internalType":"uint256","name":"index","type":"uint256"}],"name":"tokenByIndex","outputs":[{"internalType":"uint256","name":"","type":"uint256"}],"stateMutability":"view","type":"function"},{"inputs":[{"internalType":"address","name":"owner","type":"address"},{"internalType":"uint256","name":"index","type":"uint256"}],"name":"tokenOfOwnerByIndex","outputs":[{"internalType":"uint256","name":"","type":"uint256"}],"stateMutability":"view","type":"function"},{"inputs":[{"internalType":"uint256","name":"tokenId","type":"uint256"}],"name":"tokenURI","outputs":[{"internalType":"string","name":"","type":"string"}],"stateMutability":"view","type":"function"},{"inputs":[],"name":"totalSupply","outputs":[{"internalType":"uint256","name":"","type":"uint256"}],"stateMutability":"view","type":"function"},{"inputs":[{"internalType":"address","name":"from","type":"address"},{"internalType":"address","name":"to","type":"address"},{"internalType":"uint256","name":"tokenId","type":"uint256"}],"name":"transferFrom","outputs":[],"stateMutability":"nonpayable","type":"function"},{"inputs":[{"internalType":"address","name":"newOwner","type":"address"}],"name":"transferOwnership","outputs":[],"stateMutability":"nonpayable","type":"function"},{"inputs":[{"internalType":"address payable","name":"payee","type":"address"}],"name":"withdrawPayments","outputs":[],"stateMutability":"nonpayable","type":"function"}],"evm":{"bytecode":{"linkReferences":{},"object":"60a06040523480156200001157600080fd5b50733cc6cdda760b79bafa08df41ecfa224f810dceb660016040518060400160405280600a81526020017f4368696e6573654e4654000000000000000000000000000000000000000000008152506040518060400160405280600281526020017f43480000000000000000000000000000000000000000000000000000000000008152508160009081620000a69190620006d4565b508060019081620000b89190620006d4565b505050620000db620000cf6200037e60201b60201c565b6200038660201b60201c565b604051620000e9906200044c565b604051809103906000f08015801562000106573d6000803e3d6000fd5b5073ffffffffffffffffffffffffffffffffffffffff1660808173ffffffffffffffffffffffffffffffffffffffff168152505060006daaeb6d7670e522a718067333cd4e73ffffffffffffffffffffffffffffffffffffffff163b11156200032f578015620001f5576daaeb6d7670e522a718067333cd4e73ffffffffffffffffffffffffffffffffffffffff16637d3e3dbe30846040518363ffffffff1660e01b8152600401620001bb92919062000800565b600060405180830381600087803b158015620001d657600080fd5b505af1158015620001eb573d6000803e3d6000fd5b505050506200032e565b600073ffffffffffffffffffffffffffffffffffffffff168273ffffffffffffffffffffffffffffffffffffffff1614620002af576daaeb6d7670e522a718067333cd4e73ffffffffffffffffffffffffffffffffffffffff1663a0af290330846040518363ffffffff1660e01b81526004016200027592919062000800565b600060405180830381600087803b1580156200029057600080fd5b505af1158015620002a5573d6000803e3d6000fd5b505050506200032d565b6daaeb6d7670e522a718067333cd4e73ffffffffffffffffffffffffffffffffffffffff16634420e486306040518263ffffffff1660e01b8152600401620002f891906200082d565b600060405180830381600087803b1580156200031357600080fd5b505af115801562000328573d6000803e3d6000fd5b505050505b5b5b50506040518060400160405280600781526020017f697066733a2f2f00000000000000000000000000000000000000000000000000815250600d9081620003779190620006d4565b506200084a565b600033905090565b6000600b60009054906101000a900473ffffffffffffffffffffffffffffffffffffffff16905081600b60006101000a81548173ffffffffffffffffffffffffffffffffffffffff021916908373ffffffffffffffffffffffffffffffffffffffff1602179055508173ffffffffffffffffffffffffffffffffffffffff168173ffffffffffffffffffffffffffffffffffffffff167f8be0079c531659141344cd1fd0a4f28419497f9722a3daafe3b4186f6b6457e060405160405180910390a35050565b610ba18062004a0e83390190565b600081519050919050565b7f4e487b7100000000000000000000000000000000000000000000000000000000600052604160045260246000fd5b7f4e487b7100000000000000000000000000000000000000000000000000000000600052602260045260246000fd5b60006002820490506001821680620004dc57607f821691505b602082108103620004f257620004f162000494565b5b50919050565b60008190508160005260206000209050919050565b60006020601f8301049050919050565b600082821b905092915050565b6000600883026200055c7fffffffffffffffffffffffffffffffffffffffffffffffffffffffffffffffff826200051d565b6200056886836200051d565b95508019841693508086168417925050509392505050565b6000819050919050565b6000819050919050565b6000620005b5620005af620005a98462000580565b6200058a565b62000580565b9050919050565b6000819050919050565b620005d18362000594565b620005e9620005e082620005bc565b8484546200052a565b825550505050565b600090565b62000600620005f1565b6200060d818484620005c6565b505050565b5b81811015620006355762000629600082620005f6565b60018101905062000613565b5050565b601f82111562000684576200064e81620004f8565b62000659846200050d565b8101602085101562000669578190505b6200068162000678856200050d565b83018262000612565b50505b505050565b600082821c905092915050565b6000620006a96000198460080262000689565b1980831691505092915050565b6000620006c4838362000696565b9150826002028217905092915050565b620006df826200045a565b67ffffffffffffffff811115620006fb57620006fa62000465565b5b620007078254620004c3565b6200071482828562000639565b600060209050601f8311600181146200074c576000841562000737578287015190505b620007438582620006b6565b865550620007b3565b601f1984166200075c86620004f8565b60005b8281101562000786578489015182556001820191506020850194506020810190506200075f565b86831015620007a65784890151620007a2601f89168262000696565b8355505b6001600288020188555050505b505050505050565b600073ffffffffffffffffffffffffffffffffffffffff82169050919050565b6000620007e882620007bb565b9050919050565b620007fa81620007db565b82525050565b6000604082019050620008176000830185620007ef565b620008266020830184620007ef565b9392505050565b6000602082019050620008446000830184620007ef565b92915050565b6080516141a16200086d60003960008181610bde01526111ba01526141a16000f3fe608060405234801561001057600080fd5b506004361061018e5760003560e01c80636352211e116100de578063b88d4fde11610097578063d547cfb711610071578063d547cfb714610493578063e2982c21146104b1578063e985e9c5146104e1578063f2fde38b146105115761018e565b8063b88d4fde14610417578063c87b56dd14610433578063d204c45e146104635761018e565b80636352211e1461035557806370a0823114610385578063715018a6146103b55780638da5cb5b146103bf57806395d89b41146103dd578063a22cb465146103fb5761018e565b806323b872dd1161014b57806331b3eb941161012557806331b3eb94146102cf57806341f43434146102eb57806342842e0e146103095780634f6ccce7146103255761018e565b806323b872dd146102675780632f745c591461028357806330176e13146102b35761018e565b806301ffc9a71461019357806306fdde03146101c3578063081812fc146101e1578063095ea7b314610211578063162094c41461022d57806318160ddd14610249575b600080fd5b6101ad60048036038101906101a89190612a24565b61052d565b6040516101ba9190612a6c565b60405180910390f35b6101cb61053f565b6040516101d89190612b17565b60405180910390f35b6101fb60048036038101906101f69190612b6f565b6105d1565b6040516102089190612bdd565b60405180910390f35b61022b60048036038101906102269190612c24565b610617565b005b61024760048036038101906102429190612d99565b610630565b005b610251610646565b60405161025e9190612e04565b60405180910390f35b610281600480360381019061027c9190612e1f565b610653565b005b61029d60048036038101906102989190612c24565b6106a2565b6040516102aa9190612e04565b60405180910390f35b6102cd60048036038101906102c89190612e72565b610747565b005b6102e960048036038101906102e49190612ef9565b610762565b005b6102f3610776565b6040516103009190612f85565b60405180910390f35b610323600480360381019061031e9190612e1f565b610788565b005b61033f600480360381019061033a9190612b6f565b6107d7565b60405161034c9190612e04565b60405180910390f35b61036f600480360381019061036a9190612b6f565b610848565b60405161037c9190612bdd565b60405180910390f35b61039f600480360381019061039a9190612fa0565b6108ce565b6040516103ac9190612e04565b60405180910390f35b6103bd610985565b005b6103c7610999565b6040516103d49190612bdd565b60405180910390f35b6103e56109c3565b6040516103f29190612b17565b60405180910390f35b61041560048036038101906104109190612ff9565b610a55565b005b610431600480360381019061042c91906130da565b610a6e565b005b61044d60048036038101906104489190612b6f565b610abf565b60405161045a9190612b17565b60405180910390f35b61047d6004803603810190610478919061315d565b610ad1565b60405161048a9190612e04565b60405180910390f35b61049b610b4c565b6040516104a89190612b17565b60405180910390f35b6104cb60048036038101906104c69190612fa0565b610bda565b6040516104d89190612e04565b60405180910390f35b6104fb60048036038101906104f691906131b9565b610c7d565b6040516105089190612a6c565b60405180910390f35b61052b60048036038101906105269190612fa0565b610d11565b005b600061053882610d94565b9050919050565b60606000805461054e90613228565b80601f016020809104026020016040519081016040528092919081815260200182805461057a90613228565b80156105c75780601f1061059c576101008083540402835291602001916105c7565b820191906000526020600020905b8154815290600101906020018083116105aa57829003601f168201915b5050505050905090565b60006105dc82610e0e565b6004600083815260200190815260200160002060009054906101000a900473ffffffffffffffffffffffffffffffffffffffff169050919050565b8161062181610e59565b61062b8383610f56565b505050565b61063861106d565b61064282826110eb565b5050565b6000600880549050905090565b823373ffffffffffffffffffffffffffffffffffffffff168173ffffffffffffffffffffffffffffffffffffffff16146106915761069033610e59565b5b61069c848484611158565b50505050565b60006106ad836108ce565b82106106ee576040517f08c379a00000000000000000000000000000000000000000000000000000000081526004016106e5906132cb565b60405180910390fd5b600660008473ffffffffffffffffffffffffffffffffffffffff1673ffffffffffffffffffffffffffffffffffffffff168152602001908152602001600020600083815260200190815260200160002054905092915050565b61074f61106d565b80600d908161075e919061348d565b5050565b61076a61106d565b610773816111b8565b50565b6daaeb6d7670e522a718067333cd4e81565b823373ffffffffffffffffffffffffffffffffffffffff168173ffffffffffffffffffffffffffffffffffffffff16146107c6576107c533610e59565b5b6107d1848484611246565b50505050565b60006107e1610646565b8210610822576040517f08c379a0000000000000000000000000000000000000000000000000000000008152600401610819906135d1565b60405180910390fd5b60088281548110610836576108356135f1565b5b90600052602060002001549050919050565b60008061085483611266565b9050600073ffffffffffffffffffffffffffffffffffffffff168173ffffffffffffffffffffffffffffffffffffffff16036108c5576040517f08c379a00000000000000000000000000000000000000000000000000000000081526004016108bc9061366c565b60405180910390fd5b80915050919050565b60008073ffffffffffffffffffffffffffffffffffffffff168273ffffffffffffffffffffffffffffffffffffffff160361093e576040517f08c379a0000000000000000000000000000000000000000000000000000000008152600401610935906136fe565b60405180910390fd5b600360008373ffffffffffffffffffffffffffffffffffffffff1673ffffffffffffffffffffffffffffffffffffffff168152602001908152602001600020549050919050565b61098d61106d565b61099760006112a3565b565b6000600b60009054906101000a900473ffffffffffffffffffffffffffffffffffffffff16905090565b6060600180546109d290613228565b80601f01602080910402602001604051908101604052809291908181526020018280546109fe90613228565b8015610a4b5780601f10610a2057610100808354040283529160200191610a4b565b820191906000526020600020905b815481529060010190602001808311610a2e57829003601f168201915b5050505050905090565b81610a5f81610e59565b610a698383611369565b505050565b833373ffffffffffffffffffffffffffffffffffffffff168173ffffffffffffffffffffffffffffffffffffffff1614610aac57610aab33610e59565b5b610ab88585858561137f565b5050505050565b6060610aca826113e1565b9050919050565b600080825111610b16576040517f08c379a0000000000000000000000000000000000000000000000000000000008152600401610b0d9061376a565b60405180910390fd5b610b20600c6114f3565b6000610b2c600c611509565b9050610b3881846110eb565b610b428482611517565b8091505092915050565b600d8054610b5990613228565b80601f0160208091040260200160405190810160405280929190818152602001828054610b8590613228565b8015610bd25780601f10610ba757610100808354040283529160200191610bd2565b820191906000526020600020905b815481529060010190602001808311610bb557829003601f168201915b505050505081565b60007f000000000000000000000000000000000000000000000000000000000000000073ffffffffffffffffffffffffffffffffffffffff1663e3a9db1a836040518263ffffffff1660e01b8152600401610c359190612bdd565b602060405180830381865afa158015610c52573d6000803e3d6000fd5b505050506040513d601f19601f82011682018060405250810190610c76919061379f565b9050919050565b6000600560008473ffffffffffffffffffffffffffffffffffffffff1673ffffffffffffffffffffffffffffffffffffffff16815260200190815260200160002060008373ffffffffffffffffffffffffffffffffffffffff1673ffffffffffffffffffffffffffffffffffffffff16815260200190815260200160002060009054906101000a900460ff16905092915050565b610d1961106d565b600073ffffffffffffffffffffffffffffffffffffffff168173ffffffffffffffffffffffffffffffffffffffff1603610d88576040517f08c379a0000000000000000000000000000000000000000000000000000000008152600401610d7f9061383e565b60405180910390fd5b610d91816112a3565b50565b60007f780e9d63000000000000000000000000000000000000000000000000000000007bffffffffffffffffffffffffffffffffffffffffffffffffffffffff1916827bffffffffffffffffffffffffffffffffffffffffffffffffffffffff19161480610e075750610e0682611535565b5b9050919050565b610e1781611617565b610e56576040517f08c379a0000000000000000000000000000000000000000000000000000000008152600401610e4d9061366c565b60405180910390fd5b50565b60006daaeb6d7670e522a718067333cd4e73ffffffffffffffffffffffffffffffffffffffff163b1115610f53576daaeb6d7670e522a718067333cd4e73ffffffffffffffffffffffffffffffffffffffff1663c617113430836040518363ffffffff1660e01b8152600401610ed092919061385e565b602060405180830381865afa158015610eed573d6000803e3d6000fd5b505050506040513d601f19601f82011682018060405250810190610f11919061389c565b610f5257806040517fede71dcc000000000000000000000000000000000000000000000000000000008152600401610f499190612bdd565b60405180910390fd5b5b50565b6000610f6182610848565b90508073ffffffffffffffffffffffffffffffffffffffff168373ffffffffffffffffffffffffffffffffffffffff1603610fd1576040517f08c379a0000000000000000000000000000000000000000000000000000000008152600401610fc89061393b565b60405180910390fd5b8073ffffffffffffffffffffffffffffffffffffffff16610ff0611658565b73ffffffffffffffffffffffffffffffffffffffff16148061101f575061101e81611019611658565b610c7d565b5b61105e576040517f08c379a0000000000000000000000000000000000000000000000000000000008152600401611055906139cd565b60405180910390fd5b6110688383611660565b505050565b611075611658565b73ffffffffffffffffffffffffffffffffffffffff16611093610999565b73ffffffffffffffffffffffffffffffffffffffff16146110e9576040517f08c379a00000000000000000000000000000000000000000000000000000000081526004016110e090613a39565b60405180910390fd5b565b6110f482611617565b611133576040517f08c379a000000000000000000000000000000000000000000000000000000000815260040161112a90613acb565b60405180910390fd5b80600a60008481526020019081526020016000209081611153919061348d565b505050565b611169611163611658565b82611719565b6111a8576040517f08c379a000000000000000000000000000000000000000000000000000000000815260040161119f90613b5d565b60405180910390fd5b6111b38383836117ae565b505050565b7f000000000000000000000000000000000000000000000000000000000000000073ffffffffffffffffffffffffffffffffffffffff166351cff8d9826040518263ffffffff1660e01b81526004016112119190613b8c565b600060405180830381600087803b15801561122b57600080fd5b505af115801561123f573d6000803e3d6000fd5b5050505050565b61126183838360405180602001604052806000815250610a6e565b505050565b60006002600083815260200190815260200160002060009054906101000a900473ffffffffffffffffffffffffffffffffffffffff169050919050565b6000600b60009054906101000a900473ffffffffffffffffffffffffffffffffffffffff16905081600b60006101000a81548173ffffffffffffffffffffffffffffffffffffffff021916908373ffffffffffffffffffffffffffffffffffffffff1602179055508173ffffffffffffffffffffffffffffffffffffffff168173ffffffffffffffffffffffffffffffffffffffff167f8be0079c531659141344cd1fd0a4f28419497f9722a3daafe3b4186f6b6457e060405160405180910390a35050565b61137b611374611658565b8383611aa7565b5050565b61139061138a611658565b83611719565b6113cf576040517f08c379a00000000000000000000000000000000000000000000000000000000081526004016113c690613b5d565b60405180910390fd5b6113db84848484611c13565b50505050565b60606113ec82610e0e565b6000600a6000848152602001908152602001600020805461140c90613228565b80601f016020809104026020016040519081016040528092919081815260200182805461143890613228565b80156114855780601f1061145a57610100808354040283529160200191611485565b820191906000526020600020905b81548152906001019060200180831161146857829003601f168201915b505050505090506000611496611c6f565b905060008151036114ab5781925050506114ee565b6000825111156114e05780826040516020016114c8929190613be3565b604051602081830303815290604052925050506114ee565b6114e984611d01565b925050505b919050565b6001816000016000828254019250508190555050565b600081600001549050919050565b611531828260405180602001604052806000815250611d69565b5050565b60007f80ac58cd000000000000000000000000000000000000000000000000000000007bffffffffffffffffffffffffffffffffffffffffffffffffffffffff1916827bffffffffffffffffffffffffffffffffffffffffffffffffffffffff1916148061160057507f5b5e139f000000000000000000000000000000000000000000000000000000007bffffffffffffffffffffffffffffffffffffffffffffffffffffffff1916827bffffffffffffffffffffffffffffffffffffffffffffffffffffffff1916145b80611610575061160f82611dc4565b5b9050919050565b60008073ffffffffffffffffffffffffffffffffffffffff1661163983611266565b73ffffffffffffffffffffffffffffffffffffffff1614159050919050565b600033905090565b816004600083815260200190815260200160002060006101000a81548173ffffffffffffffffffffffffffffffffffffffff021916908373ffffffffffffffffffffffffffffffffffffffff160217905550808273ffffffffffffffffffffffffffffffffffffffff166116d383610848565b73ffffffffffffffffffffffffffffffffffffffff167f8c5be1e5ebec7d5bd14f71427d1e84f3dd0314c0f7b2291e5b200ac8c7c3b92560405160405180910390a45050565b60008061172583610848565b90508073ffffffffffffffffffffffffffffffffffffffff168473ffffffffffffffffffffffffffffffffffffffff16148061176757506117668185610c7d565b5b806117a557508373ffffffffffffffffffffffffffffffffffffffff1661178d846105d1565b73ffffffffffffffffffffffffffffffffffffffff16145b91505092915050565b8273ffffffffffffffffffffffffffffffffffffffff166117ce82610848565b73ffffffffffffffffffffffffffffffffffffffff1614611824576040517f08c379a000000000000000000000000000000000000000000000000000000000815260040161181b90613c79565b60405180910390fd5b600073ffffffffffffffffffffffffffffffffffffffff168273ffffffffffffffffffffffffffffffffffffffff1603611893576040517f08c379a000000000000000000000000000000000000000000000000000000000815260040161188a90613d0b565b60405180910390fd5b6118a08383836001611e2e565b8273ffffffffffffffffffffffffffffffffffffffff166118c082610848565b73ffffffffffffffffffffffffffffffffffffffff1614611916576040517f08c379a000000000000000000000000000000000000000000000000000000000815260040161190d90613c79565b60405180910390fd5b6004600082815260200190815260200160002060006101000a81549073ffffffffffffffffffffffffffffffffffffffff02191690556001600360008573ffffffffffffffffffffffffffffffffffffffff1673ffffffffffffffffffffffffffffffffffffffff168152602001908152602001600020600082825403925050819055506001600360008473ffffffffffffffffffffffffffffffffffffffff1673ffffffffffffffffffffffffffffffffffffffff16815260200190815260200160002060008282540192505081905550816002600083815260200190815260200160002060006101000a81548173ffffffffffffffffffffffffffffffffffffffff021916908373ffffffffffffffffffffffffffffffffffffffff160217905550808273ffffffffffffffffffffffffffffffffffffffff168473ffffffffffffffffffffffffffffffffffffffff167fddf252ad1be2c89b69c2b068fc378daa952ba7f163c4a11628f55a4df523b3ef60405160405180910390a4611aa28383836001611e40565b505050565b8173ffffffffffffffffffffffffffffffffffffffff168373ffffffffffffffffffffffffffffffffffffffff1603611b15576040517f08c379a0000000000000000000000000000000000000000000000000000000008152600401611b0c90613d77565b60405180910390fd5b80600560008573ffffffffffffffffffffffffffffffffffffffff1673ffffffffffffffffffffffffffffffffffffffff16815260200190815260200160002060008473ffffffffffffffffffffffffffffffffffffffff1673ffffffffffffffffffffffffffffffffffffffff16815260200190815260200160002060006101000a81548160ff0219169083151502179055508173ffffffffffffffffffffffffffffffffffffffff168373ffffffffffffffffffffffffffffffffffffffff167f17307eab39ab6107e8899845ad3d59bd9653f200f220920489ca2b5937696c3183604051611c069190612a6c565b60405180910390a3505050565b611c1e8484846117ae565b611c2a84848484611e46565b611c69576040517f08c379a0000000000000000000000000000000000000000000000000000000008152600401611c6090613e09565b60405180910390fd5b50505050565b6060600d8054611c7e90613228565b80601f0160208091040260200160405190810160405280929190818152602001828054611caa90613228565b8015611cf75780601f10611ccc57610100808354040283529160200191611cf7565b820191906000526020600020905b815481529060010190602001808311611cda57829003601f168201915b5050505050905090565b6060611d0c82610e0e565b6000611d16611c6f565b90506000815111611d365760405180602001604052806000815250611d61565b80611d4084611fcd565b604051602001611d51929190613be3565b6040516020818303038152906040525b915050919050565b611d73838361209b565b611d806000848484611e46565b611dbf576040517f08c379a0000000000000000000000000000000000000000000000000000000008152600401611db690613e09565b60405180910390fd5b505050565b60007f01ffc9a7000000000000000000000000000000000000000000000000000000007bffffffffffffffffffffffffffffffffffffffffffffffffffffffff1916827bffffffffffffffffffffffffffffffffffffffffffffffffffffffff1916149050919050565b611e3a848484846122b8565b50505050565b50505050565b6000611e678473ffffffffffffffffffffffffffffffffffffffff16612416565b15611fc0578373ffffffffffffffffffffffffffffffffffffffff1663150b7a02611e90611658565b8786866040518563ffffffff1660e01b8152600401611eb29493929190613e7e565b6020604051808303816000875af1925050508015611eee57506040513d601f19601f82011682018060405250810190611eeb9190613edf565b60015b611f70573d8060008114611f1e576040519150601f19603f3d011682016040523d82523d6000602084013e611f23565b606091505b506000815103611f68576040517f08c379a0000000000000000000000000000000000000000000000000000000008152600401611f5f90613e09565b60405180910390fd5b805181602001fd5b63150b7a0260e01b7bffffffffffffffffffffffffffffffffffffffffffffffffffffffff1916817bffffffffffffffffffffffffffffffffffffffffffffffffffffffff191614915050611fc5565b600190505b949350505050565b606060006001611fdc84612439565b01905060008167ffffffffffffffff811115611ffb57611ffa612c6e565b5b6040519080825280601f01601f19166020018201604052801561202d5781602001600182028036833780820191505090505b509050600082602001820190505b600115612090578080600190039150507f3031323334353637383961626364656600000000000000000000000000000000600a86061a8153600a858161208457612083613f0c565b5b0494506000850361203b575b819350505050919050565b600073ffffffffffffffffffffffffffffffffffffffff168273ffffffffffffffffffffffffffffffffffffffff160361210a576040517f08c379a000000000000000000000000000000000000000000000000000000000815260040161210190613f87565b60405180910390fd5b61211381611617565b15612153576040517f08c379a000000000000000000000000000000000000000000000000000000000815260040161214a90613ff3565b60405180910390fd5b612161600083836001611e2e565b61216a81611617565b156121aa576040517f08c379a00000000000000000000000000000000000000000000000000000000081526004016121a190613ff3565b60405180910390fd5b6001600360008473ffffffffffffffffffffffffffffffffffffffff1673ffffffffffffffffffffffffffffffffffffffff16815260200190815260200160002060008282540192505081905550816002600083815260200190815260200160002060006101000a81548173ffffffffffffffffffffffffffffffffffffffff021916908373ffffffffffffffffffffffffffffffffffffffff160217905550808273ffffffffffffffffffffffffffffffffffffffff16600073ffffffffffffffffffffffffffffffffffffffff167fddf252ad1be2c89b69c2b068fc378daa952ba7f163c4a11628f55a4df523b3ef60405160405180910390a46122b4600083836001611e40565b5050565b6122c48484848461258c565b6001811115612308576040517f08c379a00000000000000000000000000000000000000000000000000000000081526004016122ff90614085565b60405180910390fd5b6000829050600073ffffffffffffffffffffffffffffffffffffffff168573ffffffffffffffffffffffffffffffffffffffff160361234f5761234a816126b2565b61238e565b8373ffffffffffffffffffffffffffffffffffffffff168573ffffffffffffffffffffffffffffffffffffffff161461238d5761238c85826126fb565b5b5b600073ffffffffffffffffffffffffffffffffffffffff168473ffffffffffffffffffffffffffffffffffffffff16036123d0576123cb81612868565b61240f565b8473ffffffffffffffffffffffffffffffffffffffff168473ffffffffffffffffffffffffffffffffffffffff161461240e5761240d8482612939565b5b5b5050505050565b6000808273ffffffffffffffffffffffffffffffffffffffff163b119050919050565b600080600090507a184f03e93ff9f4daa797ed6e38ed64bf6a1f0100000000000000008310612497577a184f03e93ff9f4daa797ed6e38ed64bf6a1f010000000000000000838161248d5761248c613f0c565b5b0492506040810190505b6d04ee2d6d415b85acef810000000083106124d4576d04ee2d6d415b85acef810000000083816124ca576124c9613f0c565b5b0492506020810190505b662386f26fc10000831061250357662386f26fc1000083816124f9576124f8613f0c565b5b0492506010810190505b6305f5e100831061252c576305f5e100838161252257612521613f0c565b5b0492506008810190505b612710831061255157612710838161254757612546613f0c565b5b0492506004810190505b60648310612574576064838161256a57612569613f0c565b5b0492506002810190505b600a8310612583576001810190505b80915050919050565b60018111156126ac57600073ffffffffffffffffffffffffffffffffffffffff168473ffffffffffffffffffffffffffffffffffffffff16146126205780600360008673ffffffffffffffffffffffffffffffffffffffff1673ffffffffffffffffffffffffffffffffffffffff168152602001908152602001600020600082825461261891906140d4565b925050819055505b600073ffffffffffffffffffffffffffffffffffffffff168373ffffffffffffffffffffffffffffffffffffffff16146126ab5780600360008573ffffffffffffffffffffffffffffffffffffffff1673ffffffffffffffffffffffffffffffffffffffff16815260200190815260200160002060008282546126a39190614108565b925050819055505b5b50505050565b6008805490506009600083815260200190815260200160002081905550600881908060018154018082558091505060019003906000526020600020016000909190919091505550565b60006001612708846108ce565b61271291906140d4565b90506000600760008481526020019081526020016000205490508181146127f7576000600660008673ffffffffffffffffffffffffffffffffffffffff1673ffffffffffffffffffffffffffffffffffffffff168152602001908152602001600020600084815260200190815260200160002054905080600660008773ffffffffffffffffffffffffffffffffffffffff1673ffffffffffffffffffffffffffffffffffffffff168152602001908152602001600020600084815260200190815260200160002081905550816007600083815260200190815260200160002081905550505b6007600084815260200190815260200160002060009055600660008573ffffffffffffffffffffffffffffffffffffffff1673ffffffffffffffffffffffffffffffffffffffff16815260200190815260200160002060008381526020019081526020016000206000905550505050565b6000600160088054905061287c91906140d4565b90506000600960008481526020019081526020016000205490506000600883815481106128ac576128ab6135f1565b5b9060005260206000200154905080600883815481106128ce576128cd6135f1565b5b90600052602060002001819055508160096000838152602001908152602001600020819055506009600085815260200190815260200160002060009055600880548061291d5761291c61413c565b5b6001900381819060005260206000200160009055905550505050565b6000612944836108ce565b905081600660008573ffffffffffffffffffffffffffffffffffffffff1673ffffffffffffffffffffffffffffffffffffffff168152602001908152602001600020600083815260200190815260200160002081905550806007600084815260200190815260200160002081905550505050565b6000604051905090565b600080fd5b600080fd5b60007fffffffff0000000000000000000000000000000000000000000000000000000082169050919050565b612a01816129cc565b8114612a0c57600080fd5b50565b600081359050612a1e816129f8565b92915050565b600060208284031215612a3a57612a396129c2565b5b6000612a4884828501612a0f565b91505092915050565b60008115159050919050565b612a6681612a51565b82525050565b6000602082019050612a816000830184612a5d565b92915050565b600081519050919050565b600082825260208201905092915050565b60005b83811015612ac1578082015181840152602081019050612aa6565b60008484015250505050565b6000601f19601f8301169050919050565b6000612ae982612a87565b612af38185612a92565b9350612b03818560208601612aa3565b612b0c81612acd565b840191505092915050565b60006020820190508181036000830152612b318184612ade565b905092915050565b6000819050919050565b612b4c81612b39565b8114612b5757600080fd5b50565b600081359050612b6981612b43565b92915050565b600060208284031215612b8557612b846129c2565b5b6000612b9384828501612b5a565b91505092915050565b600073ffffffffffffffffffffffffffffffffffffffff82169050919050565b6000612bc782612b9c565b9050919050565b612bd781612bbc565b82525050565b6000602082019050612bf26000830184612bce565b92915050565b612c0181612bbc565b8114612c0c57600080fd5b50565b600081359050612c1e81612bf8565b92915050565b60008060408385031215612c3b57612c3a6129c2565b5b6000612c4985828601612c0f565b9250506020612c5a85828601612b5a565b9150509250929050565b600080fd5b600080fd5b7f4e487b7100000000000000000000000000000000000000000000000000000000600052604160045260246000fd5b612ca682612acd565b810181811067ffffffffffffffff82111715612cc557612cc4612c6e565b5b80604052505050565b6000612cd86129b8565b9050612ce48282612c9d565b919050565b600067ffffffffffffffff821115612d0457612d03612c6e565b5b612d0d82612acd565b9050602081019050919050565b82818337600083830152505050565b6000612d3c612d3784612ce9565b612cce565b905082815260208101848484011115612d5857612d57612c69565b5b612d63848285612d1a565b509392505050565b600082601f830112612d8057612d7f612c64565b5b8135612d90848260208601612d29565b91505092915050565b60008060408385031215612db057612daf6129c2565b5b6000612dbe85828601612b5a565b925050602083013567ffffffffffffffff811115612ddf57612dde6129c7565b5b612deb85828601612d6b565b9150509250929050565b612dfe81612b39565b82525050565b6000602082019050612e196000830184612df5565b92915050565b600080600060608486031215612e3857612e376129c2565b5b6000612e4686828701612c0f565b9350506020612e5786828701612c0f565b9250506040612e6886828701612b5a565b9150509250925092565b600060208284031215612e8857612e876129c2565b5b600082013567ffffffffffffffff811115612ea657612ea56129c7565b5b612eb284828501612d6b565b91505092915050565b6000612ec682612b9c565b9050919050565b612ed681612ebb565b8114612ee157600080fd5b50565b600081359050612ef381612ecd565b92915050565b600060208284031215612f0f57612f0e6129c2565b5b6000612f1d84828501612ee4565b91505092915050565b6000819050919050565b6000612f4b612f46612f4184612b9c565b612f26565b612b9c565b9050919050565b6000612f5d82612f30565b9050919050565b6000612f6f82612f52565b9050919050565b612f7f81612f64565b82525050565b6000602082019050612f9a6000830184612f76565b92915050565b600060208284031215612fb657612fb56129c2565b5b6000612fc484828501612c0f565b91505092915050565b612fd681612a51565b8114612fe157600080fd5b50565b600081359050612ff381612fcd565b92915050565b600080604083850312156130105761300f6129c2565b5b600061301e85828601612c0f565b925050602061302f85828601612fe4565b9150509250929050565b600067ffffffffffffffff82111561305457613053612c6e565b5b61305d82612acd565b9050602081019050919050565b600061307d61307884613039565b612cce565b90508281526020810184848401111561309957613098612c69565b5b6130a4848285612d1a565b509392505050565b600082601f8301126130c1576130c0612c64565b5b81356130d184826020860161306a565b91505092915050565b600080600080608085870312156130f4576130f36129c2565b5b600061310287828801612c0f565b945050602061311387828801612c0f565b935050604061312487828801612b5a565b925050606085013567ffffffffffffffff811115613145576131446129c7565b5b613151878288016130ac565b91505092959194509250565b60008060408385031215613174576131736129c2565b5b600061318285828601612c0f565b925050602083013567ffffffffffffffff8111156131a3576131a26129c7565b5b6131af85828601612d6b565b9150509250929050565b600080604083850312156131d0576131cf6129c2565b5b60006131de85828601612c0f565b92505060206131ef85828601612c0f565b9150509250929050565b7f4e487b7100000000000000000000000000000000000000000000000000000000600052602260045260246000fd5b6000600282049050600182168061324057607f821691505b602082108103613253576132526131f9565b5b50919050565b7f455243373231456e756d657261626c653a206f776e657220696e646578206f7560008201527f74206f6620626f756e6473000000000000000000000000000000000000000000602082015250565b60006132b5602b83612a92565b91506132c082613259565b604082019050919050565b600060208201905081810360008301526132e4816132a8565b9050919050565b60008190508160005260206000209050919050565b60006020601f8301049050919050565b600082821b905092915050565b60006008830261334d7fffffffffffffffffffffffffffffffffffffffffffffffffffffffffffffffff82613310565b6133578683613310565b95508019841693508086168417925050509392505050565b600061338a61338561338084612b39565b612f26565b612b39565b9050919050565b6000819050919050565b6133a48361336f565b6133b86133b082613391565b84845461331d565b825550505050565b600090565b6133cd6133c0565b6133d881848461339b565b505050565b5b818110156133fc576133f16000826133c5565b6001810190506133de565b5050565b601f82111561344157613412816132eb565b61341b84613300565b8101602085101561342a578190505b61343e61343685613300565b8301826133dd565b50505b505050565b600082821c905092915050565b600061346460001984600802613446565b1980831691505092915050565b600061347d8383613453565b9150826002028217905092915050565b61349682612a87565b67ffffffffffffffff8111156134af576134ae612c6e565b5b6134b98254613228565b6134c4828285613400565b600060209050601f8311600181146134f757600084156134e5578287015190505b6134ef8582613471565b865550613557565b601f198416613505866132eb565b60005b8281101561352d57848901518255600182019150602085019450602081019050613508565b8683101561354a5784890151613546601f891682613453565b8355505b6001600288020188555050505b505050505050565b7f455243373231456e756d657261626c653a20676c6f62616c20696e646578206f60008201527f7574206f6620626f756e64730000000000000000000000000000000000000000602082015250565b60006135bb602c83612a92565b91506135c68261355f565b604082019050919050565b600060208201905081810360008301526135ea816135ae565b9050919050565b7f4e487b7100000000000000000000000000000000000000000000000000000000600052603260045260246000fd5b7f4552433732313a20696e76616c696420746f6b656e2049440000000000000000600082015250565b6000613656601883612a92565b915061366182613620565b602082019050919050565b6000602082019050818103600083015261368581613649565b9050919050565b7f4552433732313a2061646472657373207a65726f206973206e6f74206120766160008201527f6c6964206f776e65720000000000000000000000000000000000000000000000602082015250565b60006136e8602983612a92565b91506136f38261368c565b604082019050919050565b60006020820190508181036000830152613717816136db565b9050919050565b7f43483a20757269206973206e6f742076616c6964000000000000000000000000600082015250565b6000613754601483612a92565b915061375f8261371e565b602082019050919050565b6000602082019050818103600083015261378381613747565b9050919050565b60008151905061379981612b43565b92915050565b6000602082840312156137b5576137b46129c2565b5b60006137c38482850161378a565b91505092915050565b7f4f776e61626c653a206e6577206f776e657220697320746865207a65726f206160008201527f6464726573730000000000000000000000000000000000000000000000000000602082015250565b6000613828602683612a92565b9150613833826137cc565b604082019050919050565b600060208201905081810360008301526138578161381b565b9050919050565b60006040820190506138736000830185612bce565b6138806020830184612bce565b9392505050565b60008151905061389681612fcd565b92915050565b6000602082840312156138b2576138b16129c2565b5b60006138c084828501613887565b91505092915050565b7f4552433732313a20617070726f76616c20746f2063757272656e74206f776e6560008201527f7200000000000000000000000000000000000000000000000000000000000000602082015250565b6000613925602183612a92565b9150613930826138c9565b604082019050919050565b6000602082019050818103600083015261395481613918565b9050919050565b7f4552433732313a20617070726f76652063616c6c6572206973206e6f7420746f60008201527f6b656e206f776e6572206f7220617070726f76656420666f7220616c6c000000602082015250565b60006139b7603d83612a92565b91506139c28261395b565b604082019050919050565b600060208201905081810360008301526139e6816139aa565b9050919050565b7f4f776e61626c653a2063616c6c6572206973206e6f7420746865206f776e6572600082015250565b6000613a23602083612a92565b9150613a2e826139ed565b602082019050919050565b60006020820190508181036000830152613a5281613a16565b9050919050565b7f45524337323155524953746f726167653a2055524920736574206f66206e6f6e60008201527f6578697374656e7420746f6b656e000000000000000000000000000000000000602082015250565b6000613ab5602e83612a92565b9150613ac082613a59565b604082019050919050565b60006020820190508181036000830152613ae481613aa8565b9050919050565b7f4552433732313a2063616c6c6572206973206e6f7420746f6b656e206f776e6560008201527f72206f7220617070726f76656400000000000000000000000000000000000000602082015250565b6000613b47602d83612a92565b9150613b5282613aeb565b604082019050919050565b60006020820190508181036000830152613b7681613b3a565b9050919050565b613b8681612ebb565b82525050565b6000602082019050613ba16000830184613b7d565b92915050565b600081905092915050565b6000613bbd82612a87565b613bc78185613ba7565b9350613bd7818560208601612aa3565b80840191505092915050565b6000613bef8285613bb2565b9150613bfb8284613bb2565b91508190509392505050565b7f4552433732313a207472616e736665722066726f6d20696e636f72726563742060008201527f6f776e6572000000000000000000000000000000000000000000000000000000602082015250565b6000613c63602583612a92565b9150613c6e82613c07565b604082019050919050565b60006020820190508181036000830152613c9281613c56565b9050919050565b7f4552433732313a207472616e7366657220746f20746865207a65726f2061646460008201527f7265737300000000000000000000000000000000000000000000000000000000602082015250565b6000613cf5602483612a92565b9150613d0082613c99565b604082019050919050565b60006020820190508181036000830152613d2481613ce8565b9050919050565b7f4552433732313a20617070726f766520746f2063616c6c657200000000000000600082015250565b6000613d61601983612a92565b9150613d6c82613d2b565b602082019050919050565b60006020820190508181036000830152613d9081613d54565b9050919050565b7f4552433732313a207472616e7366657220746f206e6f6e20455243373231526560008201527f63656976657220696d706c656d656e7465720000000000000000000000000000602082015250565b6000613df3603283612a92565b9150613dfe82613d97565b604082019050919050565b60006020820190508181036000830152613e2281613de6565b9050919050565b600081519050919050565b600082825260208201905092915050565b6000613e5082613e29565b613e5a8185613e34565b9350613e6a818560208601612aa3565b613e7381612acd565b840191505092915050565b6000608082019050613e936000830187612bce565b613ea06020830186612bce565b613ead6040830185612df5565b8181036060830152613ebf8184613e45565b905095945050505050565b600081519050613ed9816129f8565b92915050565b600060208284031215613ef557613ef46129c2565b5b6000613f0384828501613eca565b91505092915050565b7f4e487b7100000000000000000000000000000000000000000000000000000000600052601260045260246000fd5b7f4552433732313a206d696e7420746f20746865207a65726f2061646472657373600082015250565b6000613f71602083612a92565b9150613f7c82613f3b565b602082019050919050565b60006020820190508181036000830152613fa081613f64565b9050919050565b7f4552433732313a20746f6b656e20616c7265616479206d696e74656400000000600082015250565b6000613fdd601c83612a92565b9150613fe882613fa7565b602082019050919050565b6000602082019050818103600083015261400c81613fd0565b9050919050565b7f455243373231456e756d657261626c653a20636f6e736563757469766520747260008201527f616e7366657273206e6f7420737570706f727465640000000000000000000000602082015250565b600061406f603583612a92565b915061407a82614013565b604082019050919050565b6000602082019050818103600083015261409e81614062565b9050919050565b7f4e487b7100000000000000000000000000000000000000000000000000000000600052601160045260246000fd5b60006140df82612b39565b91506140ea83612b39565b9250828203905081811115614102576141016140a5565b5b92915050565b600061411382612b39565b915061411e83612b39565b9250828201905080821115614136576141356140a5565b5b92915050565b7f4e487b7100000000000000000000000000000000000000000000000000000000600052603160045260246000fdfea2646970667358221220b779fcb72757610b21db34ef6a7c68ff09de3e510362ead54144723e2e7cca0364736f6c63430008110033608060405234801561001057600080fd5b5061002d61002261003260201b60201c565b61003a60201b60201c565b6100fe565b600033905090565b60008060009054906101000a900473ffffffffffffffffffffffffffffffffffffffff169050816000806101000a81548173ffffffffffffffffffffffffffffffffffffffff021916908373ffffffffffffffffffffffffffffffffffffffff1602179055508173ffffffffffffffffffffffffffffffffffffffff168173ffffffffffffffffffffffffffffffffffffffff167f8be0079c531659141344cd1fd0a4f28419497f9722a3daafe3b4186f6b6457e060405160405180910390a35050565b610a948061010d6000396000f3fe6080604052600436106100555760003560e01c806351cff8d91461005a578063715018a6146100835780638da5cb5b1461009a578063e3a9db1a146100c5578063f2fde38b14610102578063f340fa011461012b575b600080fd5b34801561006657600080fd5b50610081600480360381019061007c91906106b2565b610147565b005b34801561008f57600080fd5b50610098610253565b005b3480156100a657600080fd5b506100af610267565b6040516100bc9190610700565b60405180910390f35b3480156100d157600080fd5b506100ec60048036038101906100e79190610747565b610290565b6040516100f9919061078d565b60405180910390f35b34801561010e57600080fd5b5061012960048036038101906101249190610747565b6102d9565b005b61014560048036038101906101409190610747565b61035c565b005b61014f610411565b6000600160008373ffffffffffffffffffffffffffffffffffffffff1673ffffffffffffffffffffffffffffffffffffffff1681526020019081526020016000205490506000600160008473ffffffffffffffffffffffffffffffffffffffff1673ffffffffffffffffffffffffffffffffffffffff16815260200190815260200160002081905550610201818373ffffffffffffffffffffffffffffffffffffffff1661048f90919063ffffffff16565b8173ffffffffffffffffffffffffffffffffffffffff167f7084f5476618d8e60b11ef0d7d3f06914655adb8793e28ff7f018d4c76d505d582604051610247919061078d565b60405180910390a25050565b61025b610411565b6102656000610583565b565b60008060009054906101000a900473ffffffffffffffffffffffffffffffffffffffff16905090565b6000600160008373ffffffffffffffffffffffffffffffffffffffff1673ffffffffffffffffffffffffffffffffffffffff168152602001908152602001600020549050919050565b6102e1610411565b600073ffffffffffffffffffffffffffffffffffffffff168173ffffffffffffffffffffffffffffffffffffffff1603610350576040517f08c379a00000000000000000000000000000000000000000000000000000000081526004016103479061082b565b60405180910390fd5b61035981610583565b50565b610364610411565b600034905080600160008473ffffffffffffffffffffffffffffffffffffffff1673ffffffffffffffffffffffffffffffffffffffff16815260200190815260200160002060008282546103b8919061087a565b925050819055508173ffffffffffffffffffffffffffffffffffffffff167f2da466a7b24304f47e87fa2e1e5a81b9831ce54fec19055ce277ca2f39ba42c482604051610405919061078d565b60405180910390a25050565b610419610647565b73ffffffffffffffffffffffffffffffffffffffff16610437610267565b73ffffffffffffffffffffffffffffffffffffffff161461048d576040517f08c379a0000000000000000000000000000000000000000000000000000000008152600401610484906108fa565b60405180910390fd5b565b804710156104d2576040517f08c379a00000000000000000000000000000000000000000000000000000000081526004016104c990610966565b60405180910390fd5b60008273ffffffffffffffffffffffffffffffffffffffff16826040516104f8906109b7565b60006040518083038185875af1925050503d8060008114610535576040519150601f19603f3d011682016040523d82523d6000602084013e61053a565b606091505b505090508061057e576040517f08c379a000000000000000000000000000000000000000000000000000000000815260040161057590610a3e565b60405180910390fd5b505050565b60008060009054906101000a900473ffffffffffffffffffffffffffffffffffffffff169050816000806101000a81548173ffffffffffffffffffffffffffffffffffffffff021916908373ffffffffffffffffffffffffffffffffffffffff1602179055508173ffffffffffffffffffffffffffffffffffffffff168173ffffffffffffffffffffffffffffffffffffffff167f8be0079c531659141344cd1fd0a4f28419497f9722a3daafe3b4186f6b6457e060405160405180910390a35050565b600033905090565b600080fd5b600073ffffffffffffffffffffffffffffffffffffffff82169050919050565b600061067f82610654565b9050919050565b61068f81610674565b811461069a57600080fd5b50565b6000813590506106ac81610686565b92915050565b6000602082840312156106c8576106c761064f565b5b60006106d68482850161069d565b91505092915050565b60006106ea82610654565b9050919050565b6106fa816106df565b82525050565b600060208201905061071560008301846106f1565b92915050565b610724816106df565b811461072f57600080fd5b50565b6000813590506107418161071b565b92915050565b60006020828403121561075d5761075c61064f565b5b600061076b84828501610732565b91505092915050565b6000819050919050565b61078781610774565b82525050565b60006020820190506107a2600083018461077e565b92915050565b600082825260208201905092915050565b7f4f776e61626c653a206e6577206f776e657220697320746865207a65726f206160008201527f6464726573730000000000000000000000000000000000000000000000000000602082015250565b60006108156026836107a8565b9150610820826107b9565b604082019050919050565b6000602082019050818103600083015261084481610808565b9050919050565b7f4e487b7100000000000000000000000000000000000000000000000000000000600052601160045260246000fd5b600061088582610774565b915061089083610774565b92508282019050808211156108a8576108a761084b565b5b92915050565b7f4f776e61626c653a2063616c6c6572206973206e6f7420746865206f776e6572600082015250565b60006108e46020836107a8565b91506108ef826108ae565b602082019050919050565b60006020820190508181036000830152610913816108d7565b9050919050565b7f416464726573733a20696e73756666696369656e742062616c616e6365000000600082015250565b6000610950601d836107a8565b915061095b8261091a565b602082019050919050565b6000602082019050818103600083015261097f81610943565b9050919050565b600081905092915050565b50565b60006109a1600083610986565b91506109ac82610991565b600082019050919050565b60006109c282610994565b9150819050919050565b7f416464726573733a20756e61626c6520746f2073656e642076616c75652c207260008201527f6563697069656e74206d61792068617665207265766572746564000000000000602082015250565b6000610a28603a836107a8565b9150610a33826109cc565b604082019050919050565b60006020820190508181036000830152610a5781610a1b565b905091905056fea2646970667358221220615cfee549c14d6cc44f5650a219cb79ee6e4e10d5bda4aeb19b6c34868022fc64736f6c63430008110033","opcodes":"PUSH1 0xA0 PUSH1 0x40 MSTORE CALLVALUE DUP1 ISZERO PUSH3 0x11 JUMPI PUSH1 0x0 DUP1 REVERT JUMPDEST POP PUSH20 0x3CC6CDDA760B79BAFA08DF41ECFA224F810DCEB6 PUSH1 0x1 PUSH1 0x40 MLOAD DUP1 PUSH1 0x40 ADD PUSH1 0x40 MSTORE DUP1 PUSH1 0xA DUP2 MSTORE PUSH1 0x20 ADD PUSH32 0x4368696E6573654E465400000000000000000000000000000000000000000000 DUP2 MSTORE POP PUSH1 0x40 MLOAD DUP1 PUSH1 0x40 ADD PUSH1 0x40 MSTORE DUP1 PUSH1 0x2 DUP2 MSTORE PUSH1 0x20 ADD PUSH32 0x4348000000000000000000000000000000000000000000000000000000000000 DUP2 MSTORE POP DUP2 PUSH1 0x0 SWAP1 DUP2 PUSH3 0xA6 SWAP2 SWAP1 PUSH3 0x6D4 JUMP JUMPDEST POP DUP1 PUSH1 0x1 SWAP1 DUP2 PUSH3 0xB8 SWAP2 SWAP1 PUSH3 0x6D4 JUMP JUMPDEST POP POP POP PUSH3 0xDB PUSH3 0xCF PUSH3 0x37E PUSH1 0x20 SHL PUSH1 0x20 SHR JUMP JUMPDEST PUSH3 0x386 PUSH1 0x20 SHL PUSH1 0x20 SHR JUMP JUMPDEST PUSH1 0x40 MLOAD PUSH3 0xE9 SWAP1 PUSH3 0x44C JUMP JUMPDEST PUSH1 0x40 MLOAD DUP1 SWAP2 SUB SWAP1 PUSH1 0x0 CREATE DUP1 ISZERO DUP1 ISZERO PUSH3 0x106 JUMPI RETURNDATASIZE PUSH1 0x0 DUP1 RETURNDATACOPY RETURNDATASIZE PUSH1 0x0 REVERT JUMPDEST POP PUSH20 0xFFFFFFFFFFFFFFFFFFFFFFFFFFFFFFFFFFFFFFFF AND PUSH1 0x80 DUP2 PUSH20 0xFFFFFFFFFFFFFFFFFFFFFFFFFFFFFFFFFFFFFFFF AND DUP2 MSTORE POP POP PUSH1 0x0 PUSH14 0xAAEB6D7670E522A718067333CD4E PUSH20 0xFFFFFFFFFFFFFFFFFFFFFFFFFFFFFFFFFFFFFFFF AND EXTCODESIZE GT ISZERO PUSH3 0x32F JUMPI DUP1 ISZERO PUSH3 0x1F5 JUMPI PUSH14 0xAAEB6D7670E522A718067333CD4E PUSH20 0xFFFFFFFFFFFFFFFFFFFFFFFFFFFFFFFFFFFFFFFF AND PUSH4 0x7D3E3DBE ADDRESS DUP5 PUSH1 0x40 MLOAD DUP4 PUSH4 0xFFFFFFFF AND PUSH1 0xE0 SHL DUP2 MSTORE PUSH1 0x4 ADD PUSH3 0x1BB SWAP3 SWAP2 SWAP1 PUSH3 0x800 JUMP JUMPDEST PUSH1 0x0 PUSH1 0x40 MLOAD DUP1 DUP4 SUB DUP2 PUSH1 0x0 DUP8 DUP1 EXTCODESIZE ISZERO DUP1 ISZERO PUSH3 0x1D6 JUMPI PUSH1 0x0 DUP1 REVERT JUMPDEST POP GAS CALL ISZERO DUP1 ISZERO PUSH3 0x1EB JUMPI RETURNDATASIZE PUSH1 0x0 DUP1 RETURNDATACOPY RETURNDATASIZE PUSH1 0x0 REVERT JUMPDEST POP POP POP POP PUSH3 0x32E JUMP JUMPDEST PUSH1 0x0 PUSH20 0xFFFFFFFFFFFFFFFFFFFFFFFFFFFFFFFFFFFFFFFF AND DUP3 PUSH20 0xFFFFFFFFFFFFFFFFFFFFFFFFFFFFFFFFFFFFFFFF AND EQ PUSH3 0x2AF JUMPI PUSH14 0xAAEB6D7670E522A718067333CD4E PUSH20 0xFFFFFFFFFFFFFFFFFFFFFFFFFFFFFFFFFFFFFFFF AND PUSH4 0xA0AF2903 ADDRESS DUP5 PUSH1 0x40 MLOAD DUP4 PUSH4 0xFFFFFFFF AND PUSH1 0xE0 SHL DUP2 MSTORE PUSH1 0x4 ADD PUSH3 0x275 SWAP3 SWAP2 SWAP1 PUSH3 0x800 JUMP JUMPDEST PUSH1 0x0 PUSH1 0x40 MLOAD DUP1 DUP4 SUB DUP2 PUSH1 0x0 DUP8 DUP1 EXTCODESIZE ISZERO DUP1 ISZERO PUSH3 0x290 JUMPI PUSH1 0x0 DUP1 REVERT JUMPDEST POP GAS CALL ISZERO DUP1 ISZERO PUSH3 0x2A5 JUMPI RETURNDATASIZE PUSH1 0x0 DUP1 RETURNDATACOPY RETURNDATASIZE PUSH1 0x0 REVERT JUMPDEST POP POP POP POP PUSH3 0x32D JUMP JUMPDEST PUSH14 0xAAEB6D7670E522A718067333CD4E PUSH20 0xFFFFFFFFFFFFFFFFFFFFFFFFFFFFFFFFFFFFFFFF AND PUSH4 0x4420E486 ADDRESS PUSH1 0x40 MLOAD DUP3 PUSH4 0xFFFFFFFF AND PUSH1 0xE0 SHL DUP2 MSTORE PUSH1 0x4 ADD PUSH3 0x2F8 SWAP2 SWAP1 PUSH3 0x82D JUMP JUMPDEST PUSH1 0x0 PUSH1 0x40 MLOAD DUP1 DUP4 SUB DUP2 PUSH1 0x0 DUP8 DUP1 EXTCODESIZE ISZERO DUP1 ISZERO PUSH3 0x313 JUMPI PUSH1 0x0 DUP1 REVERT JUMPDEST POP GAS CALL ISZERO DUP1 ISZERO PUSH3 0x328 JUMPI RETURNDATASIZE PUSH1 0x0 DUP1 RETURNDATACOPY RETURNDATASIZE PUSH1 0x0 REVERT JUMPDEST POP POP POP POP JUMPDEST JUMPDEST JUMPDEST POP POP PUSH1 0x40 MLOAD DUP1 PUSH1 0x40 ADD PUSH1 0x40 MSTORE DUP1 PUSH1 0x7 DUP2 MSTORE PUSH1 0x20 ADD PUSH32 0x697066733A2F2F00000000000000000000000000000000000000000000000000 DUP2 MSTORE POP PUSH1 0xD SWAP1 DUP2 PUSH3 0x377 SWAP2 SWAP1 PUSH3 0x6D4 JUMP JUMPDEST POP PUSH3 0x84A JUMP JUMPDEST PUSH1 0x0 CALLER SWAP1 POP SWAP1 JUMP JUMPDEST PUSH1 0x0 PUSH1 0xB PUSH1 0x0 SWAP1 SLOAD SWAP1 PUSH2 0x100 EXP SWAP1 DIV PUSH20 0xFFFFFFFFFFFFFFFFFFFFFFFFFFFFFFFFFFFFFFFF AND SWAP1 POP DUP2 PUSH1 0xB PUSH1 0x0 PUSH2 0x100 EXP DUP2 SLOAD DUP2 PUSH20 0xFFFFFFFFFFFFFFFFFFFFFFFFFFFFFFFFFFFFFFFF MUL NOT AND SWAP1 DUP4 PUSH20 0xFFFFFFFFFFFFFFFFFFFFFFFFFFFFFFFFFFFFFFFF AND MUL OR SWAP1 SSTORE POP DUP2 PUSH20 0xFFFFFFFFFFFFFFFFFFFFFFFFFFFFFFFFFFFFFFFF AND DUP2 PUSH20 0xFFFFFFFFFFFFFFFFFFFFFFFFFFFFFFFFFFFFFFFF AND PUSH32 0x8BE0079C531659141344CD1FD0A4F28419497F9722A3DAAFE3B4186F6B6457E0 PUSH1 0x40 MLOAD PUSH1 0x40 MLOAD DUP1 SWAP2 SUB SWAP1 LOG3 POP POP JUMP JUMPDEST PUSH2 0xBA1 DUP1 PUSH3 0x4A0E DUP4 CODECOPY ADD SWAP1 JUMP JUMPDEST PUSH1 0x0 DUP2 MLOAD SWAP1 POP SWAP2 SWAP1 POP JUMP JUMPDEST PUSH32 0x4E487B7100000000000000000000000000000000000000000000000000000000 PUSH1 0x0 MSTORE PUSH1 0x41 PUSH1 0x4 MSTORE PUSH1 0x24 PUSH1 0x0 REVERT JUMPDEST PUSH32 0x4E487B7100000000000000000000000000000000000000000000000000000000 PUSH1 0x0 MSTORE PUSH1 0x22 PUSH1 0x4 MSTORE PUSH1 0x24 PUSH1 0x0 REVERT JUMPDEST PUSH1 0x0 PUSH1 0x2 DUP3 DIV SWAP1 POP PUSH1 0x1 DUP3 AND DUP1 PUSH3 0x4DC JUMPI PUSH1 0x7F DUP3 AND SWAP2 POP JUMPDEST PUSH1 0x20 DUP3 LT DUP2 SUB PUSH3 0x4F2 JUMPI PUSH3 0x4F1 PUSH3 0x494 JUMP JUMPDEST JUMPDEST POP SWAP2 SWAP1 POP JUMP JUMPDEST PUSH1 0x0 DUP2 SWAP1 POP DUP2 PUSH1 0x0 MSTORE PUSH1 0x20 PUSH1 0x0 KECCAK256 SWAP1 POP SWAP2 SWAP1 POP JUMP JUMPDEST PUSH1 0x0 PUSH1 0x20 PUSH1 0x1F DUP4 ADD DIV SWAP1 POP SWAP2 SWAP1 POP JUMP JUMPDEST PUSH1 0x0 DUP3 DUP3 SHL SWAP1 POP SWAP3 SWAP2 POP POP JUMP JUMPDEST PUSH1 0x0 PUSH1 0x8 DUP4 MUL PUSH3 0x55C PUSH32 0xFFFFFFFFFFFFFFFFFFFFFFFFFFFFFFFFFFFFFFFFFFFFFFFFFFFFFFFFFFFFFFFF DUP3 PUSH3 0x51D JUMP JUMPDEST PUSH3 0x568 DUP7 DUP4 PUSH3 0x51D JUMP JUMPDEST SWAP6 POP DUP1 NOT DUP5 AND SWAP4 POP DUP1 DUP7 AND DUP5 OR SWAP3 POP POP POP SWAP4 SWAP3 POP POP POP JUMP JUMPDEST PUSH1 0x0 DUP2 SWAP1 POP SWAP2 SWAP1 POP JUMP JUMPDEST PUSH1 0x0 DUP2 SWAP1 POP SWAP2 SWAP1 POP JUMP JUMPDEST PUSH1 0x0 PUSH3 0x5B5 PUSH3 0x5AF PUSH3 0x5A9 DUP5 PUSH3 0x580 JUMP JUMPDEST PUSH3 0x58A JUMP JUMPDEST PUSH3 0x580 JUMP JUMPDEST SWAP1 POP SWAP2 SWAP1 POP JUMP JUMPDEST PUSH1 0x0 DUP2 SWAP1 POP SWAP2 SWAP1 POP JUMP JUMPDEST PUSH3 0x5D1 DUP4 PUSH3 0x594 JUMP JUMPDEST PUSH3 0x5E9 PUSH3 0x5E0 DUP3 PUSH3 0x5BC JUMP JUMPDEST DUP5 DUP5 SLOAD PUSH3 0x52A JUMP JUMPDEST DUP3 SSTORE POP POP POP POP JUMP JUMPDEST PUSH1 0x0 SWAP1 JUMP JUMPDEST PUSH3 0x600 PUSH3 0x5F1 JUMP JUMPDEST PUSH3 0x60D DUP2 DUP5 DUP5 PUSH3 0x5C6 JUMP JUMPDEST POP POP POP JUMP JUMPDEST JUMPDEST DUP2 DUP2 LT ISZERO PUSH3 0x635 JUMPI PUSH3 0x629 PUSH1 0x0 DUP3 PUSH3 0x5F6 JUMP JUMPDEST PUSH1 0x1 DUP2 ADD SWAP1 POP PUSH3 0x613 JUMP JUMPDEST POP POP JUMP JUMPDEST PUSH1 0x1F DUP3 GT ISZERO PUSH3 0x684 JUMPI PUSH3 0x64E DUP2 PUSH3 0x4F8 JUMP JUMPDEST PUSH3 0x659 DUP5 PUSH3 0x50D JUMP JUMPDEST DUP2 ADD PUSH1 0x20 DUP6 LT ISZERO PUSH3 0x669 JUMPI DUP2 SWAP1 POP JUMPDEST PUSH3 0x681 PUSH3 0x678 DUP6 PUSH3 0x50D JUMP JUMPDEST DUP4 ADD DUP3 PUSH3 0x612 JUMP JUMPDEST POP POP JUMPDEST POP POP POP JUMP JUMPDEST PUSH1 0x0 DUP3 DUP3 SHR SWAP1 POP SWAP3 SWAP2 POP POP JUMP JUMPDEST PUSH1 0x0 PUSH3 0x6A9 PUSH1 0x0 NOT DUP5 PUSH1 0x8 MUL PUSH3 0x689 JUMP JUMPDEST NOT DUP1 DUP4 AND SWAP2 POP POP SWAP3 SWAP2 POP POP JUMP JUMPDEST PUSH1 0x0 PUSH3 0x6C4 DUP4 DUP4 PUSH3 0x696 JUMP JUMPDEST SWAP2 POP DUP3 PUSH1 0x2 MUL DUP3 OR SWAP1 POP SWAP3 SWAP2 POP POP JUMP JUMPDEST PUSH3 0x6DF DUP3 PUSH3 0x45A JUMP JUMPDEST PUSH8 0xFFFFFFFFFFFFFFFF DUP2 GT ISZERO PUSH3 0x6FB JUMPI PUSH3 0x6FA PUSH3 0x465 JUMP JUMPDEST JUMPDEST PUSH3 0x707 DUP3 SLOAD PUSH3 0x4C3 JUMP JUMPDEST PUSH3 0x714 DUP3 DUP3 DUP6 PUSH3 0x639 JUMP JUMPDEST PUSH1 0x0 PUSH1 0x20 SWAP1 POP PUSH1 0x1F DUP4 GT PUSH1 0x1 DUP2 EQ PUSH3 0x74C JUMPI PUSH1 0x0 DUP5 ISZERO PUSH3 0x737 JUMPI DUP3 DUP8 ADD MLOAD SWAP1 POP JUMPDEST PUSH3 0x743 DUP6 DUP3 PUSH3 0x6B6 JUMP JUMPDEST DUP7 SSTORE POP PUSH3 0x7B3 JUMP JUMPDEST PUSH1 0x1F NOT DUP5 AND PUSH3 0x75C DUP7 PUSH3 0x4F8 JUMP JUMPDEST PUSH1 0x0 JUMPDEST DUP3 DUP2 LT ISZERO PUSH3 0x786 JUMPI DUP5 DUP10 ADD MLOAD DUP3 SSTORE PUSH1 0x1 DUP3 ADD SWAP2 POP PUSH1 0x20 DUP6 ADD SWAP5 POP PUSH1 0x20 DUP2 ADD SWAP1 POP PUSH3 0x75F JUMP JUMPDEST DUP7 DUP4 LT ISZERO PUSH3 0x7A6 JUMPI DUP5 DUP10 ADD MLOAD PUSH3 0x7A2 PUSH1 0x1F DUP10 AND DUP3 PUSH3 0x696 JUMP JUMPDEST DUP4 SSTORE POP JUMPDEST PUSH1 0x1 PUSH1 0x2 DUP9 MUL ADD DUP9 SSTORE POP POP POP JUMPDEST POP POP POP POP POP POP JUMP JUMPDEST PUSH1 0x0 PUSH20 0xFFFFFFFFFFFFFFFFFFFFFFFFFFFFFFFFFFFFFFFF DUP3 AND SWAP1 POP SWAP2 SWAP1 POP JUMP JUMPDEST PUSH1 0x0 PUSH3 0x7E8 DUP3 PUSH3 0x7BB JUMP JUMPDEST SWAP1 POP SWAP2 SWAP1 POP JUMP JUMPDEST PUSH3 0x7FA DUP2 PUSH3 0x7DB JUMP JUMPDEST DUP3 MSTORE POP POP JUMP JUMPDEST PUSH1 0x0 PUSH1 0x40 DUP3 ADD SWAP1 POP PUSH3 0x817 PUSH1 0x0 DUP4 ADD DUP6 PUSH3 0x7EF JUMP JUMPDEST PUSH3 0x826 PUSH1 0x20 DUP4 ADD DUP5 PUSH3 0x7EF JUMP JUMPDEST SWAP4 SWAP3 POP POP POP JUMP JUMPDEST PUSH1 0x0 PUSH1 0x20 DUP3 ADD SWAP1 POP PUSH3 0x844 PUSH1 0x0 DUP4 ADD DUP5 PUSH3 0x7EF JUMP JUMPDEST SWAP3 SWAP2 POP POP JUMP JUMPDEST PUSH1 0x80 MLOAD PUSH2 0x41A1 PUSH3 0x86D PUSH1 0x0 CODECOPY PUSH1 0x0 DUP2 DUP2 PUSH2 0xBDE ADD MSTORE PUSH2 0x11BA ADD MSTORE PUSH2 0x41A1 PUSH1 0x0 RETURN INVALID PUSH1 0x80 PUSH1 0x40 MSTORE CALLVALUE DUP1 ISZERO PUSH2 0x10 JUMPI PUSH1 0x0 DUP1 REVERT JUMPDEST POP PUSH1 0x4 CALLDATASIZE LT PUSH2 0x18E JUMPI PUSH1 0x0 CALLDATALOAD PUSH1 0xE0 SHR DUP1 PUSH4 0x6352211E GT PUSH2 0xDE JUMPI DUP1 PUSH4 0xB88D4FDE GT PUSH2 0x97 JUMPI DUP1 PUSH4 0xD547CFB7 GT PUSH2 0x71 JUMPI DUP1 PUSH4 0xD547CFB7 EQ PUSH2 0x493 JUMPI DUP1 PUSH4 0xE2982C21 EQ PUSH2 0x4B1 JUMPI DUP1 PUSH4 0xE985E9C5 EQ PUSH2 0x4E1 JUMPI DUP1 PUSH4 0xF2FDE38B EQ PUSH2 0x511 JUMPI PUSH2 0x18E JUMP JUMPDEST DUP1 PUSH4 0xB88D4FDE EQ PUSH2 0x417 JUMPI DUP1 PUSH4 0xC87B56DD EQ PUSH2 0x433 JUMPI DUP1 PUSH4 0xD204C45E EQ PUSH2 0x463 JUMPI PUSH2 0x18E JUMP JUMPDEST DUP1 PUSH4 0x6352211E EQ PUSH2 0x355 JUMPI DUP1 PUSH4 0x70A08231 EQ PUSH2 0x385 JUMPI DUP1 PUSH4 0x715018A6 EQ PUSH2 0x3B5 JUMPI DUP1 PUSH4 0x8DA5CB5B EQ PUSH2 0x3BF JUMPI DUP1 PUSH4 0x95D89B41 EQ PUSH2 0x3DD JUMPI DUP1 PUSH4 0xA22CB465 EQ PUSH2 0x3FB JUMPI PUSH2 0x18E JUMP JUMPDEST DUP1 PUSH4 0x23B872DD GT PUSH2 0x14B JUMPI DUP1 PUSH4 0x31B3EB94 GT PUSH2 0x125 JUMPI DUP1 PUSH4 0x31B3EB94 EQ PUSH2 0x2CF JUMPI DUP1 PUSH4 0x41F43434 EQ PUSH2 0x2EB JUMPI DUP1 PUSH4 0x42842E0E EQ PUSH2 0x309 JUMPI DUP1 PUSH4 0x4F6CCCE7 EQ PUSH2 0x325 JUMPI PUSH2 0x18E JUMP JUMPDEST DUP1 PUSH4 0x23B872DD EQ PUSH2 0x267 JUMPI DUP1 PUSH4 0x2F745C59 EQ PUSH2 0x283 JUMPI DUP1 PUSH4 0x30176E13 EQ PUSH2 0x2B3 JUMPI PUSH2 0x18E JUMP JUMPDEST DUP1 PUSH4 0x1FFC9A7 EQ PUSH2 0x193 JUMPI DUP1 PUSH4 0x6FDDE03 EQ PUSH2 0x1C3 JUMPI DUP1 PUSH4 0x81812FC EQ PUSH2 0x1E1 JUMPI DUP1 PUSH4 0x95EA7B3 EQ PUSH2 0x211 JUMPI DUP1 PUSH4 0x162094C4 EQ PUSH2 0x22D JUMPI DUP1 PUSH4 0x18160DDD EQ PUSH2 0x249 JUMPI JUMPDEST PUSH1 0x0 DUP1 REVERT JUMPDEST PUSH2 0x1AD PUSH1 0x4 DUP1 CALLDATASIZE SUB DUP2 ADD SWAP1 PUSH2 0x1A8 SWAP2 SWAP1 PUSH2 0x2A24 JUMP JUMPDEST PUSH2 0x52D JUMP JUMPDEST PUSH1 0x40 MLOAD PUSH2 0x1BA SWAP2 SWAP1 PUSH2 0x2A6C JUMP JUMPDEST PUSH1 0x40 MLOAD DUP1 SWAP2 SUB SWAP1 RETURN JUMPDEST PUSH2 0x1CB PUSH2 0x53F JUMP JUMPDEST PUSH1 0x40 MLOAD PUSH2 0x1D8 SWAP2 SWAP1 PUSH2 0x2B17 JUMP JUMPDEST PUSH1 0x40 MLOAD DUP1 SWAP2 SUB SWAP1 RETURN JUMPDEST PUSH2 0x1FB PUSH1 0x4 DUP1 CALLDATASIZE SUB DUP2 ADD SWAP1 PUSH2 0x1F6 SWAP2 SWAP1 PUSH2 0x2B6F JUMP JUMPDEST PUSH2 0x5D1 JUMP JUMPDEST PUSH1 0x40 MLOAD PUSH2 0x208 SWAP2 SWAP1 PUSH2 0x2BDD JUMP JUMPDEST PUSH1 0x40 MLOAD DUP1 SWAP2 SUB SWAP1 RETURN JUMPDEST PUSH2 0x22B PUSH1 0x4 DUP1 CALLDATASIZE SUB DUP2 ADD SWAP1 PUSH2 0x226 SWAP2 SWAP1 PUSH2 0x2C24 JUMP JUMPDEST PUSH2 0x617 JUMP JUMPDEST STOP JUMPDEST PUSH2 0x247 PUSH1 0x4 DUP1 CALLDATASIZE SUB DUP2 ADD SWAP1 PUSH2 0x242 SWAP2 SWAP1 PUSH2 0x2D99 JUMP JUMPDEST PUSH2 0x630 JUMP JUMPDEST STOP JUMPDEST PUSH2 0x251 PUSH2 0x646 JUMP JUMPDEST PUSH1 0x40 MLOAD PUSH2 0x25E SWAP2 SWAP1 PUSH2 0x2E04 JUMP JUMPDEST PUSH1 0x40 MLOAD DUP1 SWAP2 SUB SWAP1 RETURN JUMPDEST PUSH2 0x281 PUSH1 0x4 DUP1 CALLDATASIZE SUB DUP2 ADD SWAP1 PUSH2 0x27C SWAP2 SWAP1 PUSH2 0x2E1F JUMP JUMPDEST PUSH2 0x653 JUMP JUMPDEST STOP JUMPDEST PUSH2 0x29D PUSH1 0x4 DUP1 CALLDATASIZE SUB DUP2 ADD SWAP1 PUSH2 0x298 SWAP2 SWAP1 PUSH2 0x2C24 JUMP JUMPDEST PUSH2 0x6A2 JUMP JUMPDEST PUSH1 0x40 MLOAD PUSH2 0x2AA SWAP2 SWAP1 PUSH2 0x2E04 JUMP JUMPDEST PUSH1 0x40 MLOAD DUP1 SWAP2 SUB SWAP1 RETURN JUMPDEST PUSH2 0x2CD PUSH1 0x4 DUP1 CALLDATASIZE SUB DUP2 ADD SWAP1 PUSH2 0x2C8 SWAP2 SWAP1 PUSH2 0x2E72 JUMP JUMPDEST PUSH2 0x747 JUMP JUMPDEST STOP JUMPDEST PUSH2 0x2E9 PUSH1 0x4 DUP1 CALLDATASIZE SUB DUP2 ADD SWAP1 PUSH2 0x2E4 SWAP2 SWAP1 PUSH2 0x2EF9 JUMP JUMPDEST PUSH2 0x762 JUMP JUMPDEST STOP JUMPDEST PUSH2 0x2F3 PUSH2 0x776 JUMP JUMPDEST PUSH1 0x40 MLOAD PUSH2 0x300 SWAP2 SWAP1 PUSH2 0x2F85 JUMP JUMPDEST PUSH1 0x40 MLOAD DUP1 SWAP2 SUB SWAP1 RETURN JUMPDEST PUSH2 0x323 PUSH1 0x4 DUP1 CALLDATASIZE SUB DUP2 ADD SWAP1 PUSH2 0x31E SWAP2 SWAP1 PUSH2 0x2E1F JUMP JUMPDEST PUSH2 0x788 JUMP JUMPDEST STOP JUMPDEST PUSH2 0x33F PUSH1 0x4 DUP1 CALLDATASIZE SUB DUP2 ADD SWAP1 PUSH2 0x33A SWAP2 SWAP1 PUSH2 0x2B6F JUMP JUMPDEST PUSH2 0x7D7 JUMP JUMPDEST PUSH1 0x40 MLOAD PUSH2 0x34C SWAP2 SWAP1 PUSH2 0x2E04 JUMP JUMPDEST PUSH1 0x40 MLOAD DUP1 SWAP2 SUB SWAP1 RETURN JUMPDEST PUSH2 0x36F PUSH1 0x4 DUP1 CALLDATASIZE SUB DUP2 ADD SWAP1 PUSH2 0x36A SWAP2 SWAP1 PUSH2 0x2B6F JUMP JUMPDEST PUSH2 0x848 JUMP JUMPDEST PUSH1 0x40 MLOAD PUSH2 0x37C SWAP2 SWAP1 PUSH2 0x2BDD JUMP JUMPDEST PUSH1 0x40 MLOAD DUP1 SWAP2 SUB SWAP1 RETURN JUMPDEST PUSH2 0x39F PUSH1 0x4 DUP1 CALLDATASIZE SUB DUP2 ADD SWAP1 PUSH2 0x39A SWAP2 SWAP1 PUSH2 0x2FA0 JUMP JUMPDEST PUSH2 0x8CE JUMP JUMPDEST PUSH1 0x40 MLOAD PUSH2 0x3AC SWAP2 SWAP1 PUSH2 0x2E04 JUMP JUMPDEST PUSH1 0x40 MLOAD DUP1 SWAP2 SUB SWAP1 RETURN JUMPDEST PUSH2 0x3BD PUSH2 0x985 JUMP JUMPDEST STOP JUMPDEST PUSH2 0x3C7 PUSH2 0x999 JUMP JUMPDEST PUSH1 0x40 MLOAD PUSH2 0x3D4 SWAP2 SWAP1 PUSH2 0x2BDD JUMP JUMPDEST PUSH1 0x40 MLOAD DUP1 SWAP2 SUB SWAP1 RETURN JUMPDEST PUSH2 0x3E5 PUSH2 0x9C3 JUMP JUMPDEST PUSH1 0x40 MLOAD PUSH2 0x3F2 SWAP2 SWAP1 PUSH2 0x2B17 JUMP JUMPDEST PUSH1 0x40 MLOAD DUP1 SWAP2 SUB SWAP1 RETURN JUMPDEST PUSH2 0x415 PUSH1 0x4 DUP1 CALLDATASIZE SUB DUP2 ADD SWAP1 PUSH2 0x410 SWAP2 SWAP1 PUSH2 0x2FF9 JUMP JUMPDEST PUSH2 0xA55 JUMP JUMPDEST STOP JUMPDEST PUSH2 0x431 PUSH1 0x4 DUP1 CALLDATASIZE SUB DUP2 ADD SWAP1 PUSH2 0x42C SWAP2 SWAP1 PUSH2 0x30DA JUMP JUMPDEST PUSH2 0xA6E JUMP JUMPDEST STOP JUMPDEST PUSH2 0x44D PUSH1 0x4 DUP1 CALLDATASIZE SUB DUP2 ADD SWAP1 PUSH2 0x448 SWAP2 SWAP1 PUSH2 0x2B6F JUMP JUMPDEST PUSH2 0xABF JUMP JUMPDEST PUSH1 0x40 MLOAD PUSH2 0x45A SWAP2 SWAP1 PUSH2 0x2B17 JUMP JUMPDEST PUSH1 0x40 MLOAD DUP1 SWAP2 SUB SWAP1 RETURN JUMPDEST PUSH2 0x47D PUSH1 0x4 DUP1 CALLDATASIZE SUB DUP2 ADD SWAP1 PUSH2 0x478 SWAP2 SWAP1 PUSH2 0x315D JUMP JUMPDEST PUSH2 0xAD1 JUMP JUMPDEST PUSH1 0x40 MLOAD PUSH2 0x48A SWAP2 SWAP1 PUSH2 0x2E04 JUMP JUMPDEST PUSH1 0x40 MLOAD DUP1 SWAP2 SUB SWAP1 RETURN JUMPDEST PUSH2 0x49B PUSH2 0xB4C JUMP JUMPDEST PUSH1 0x40 MLOAD PUSH2 0x4A8 SWAP2 SWAP1 PUSH2 0x2B17 JUMP JUMPDEST PUSH1 0x40 MLOAD DUP1 SWAP2 SUB SWAP1 RETURN JUMPDEST PUSH2 0x4CB PUSH1 0x4 DUP1 CALLDATASIZE SUB DUP2 ADD SWAP1 PUSH2 0x4C6 SWAP2 SWAP1 PUSH2 0x2FA0 JUMP JUMPDEST PUSH2 0xBDA JUMP JUMPDEST PUSH1 0x40 MLOAD PUSH2 0x4D8 SWAP2 SWAP1 PUSH2 0x2E04 JUMP JUMPDEST PUSH1 0x40 MLOAD DUP1 SWAP2 SUB SWAP1 RETURN JUMPDEST PUSH2 0x4FB PUSH1 0x4 DUP1 CALLDATASIZE SUB DUP2 ADD SWAP1 PUSH2 0x4F6 SWAP2 SWAP1 PUSH2 0x31B9 JUMP JUMPDEST PUSH2 0xC7D JUMP JUMPDEST PUSH1 0x40 MLOAD PUSH2 0x508 SWAP2 SWAP1 PUSH2 0x2A6C JUMP JUMPDEST PUSH1 0x40 MLOAD DUP1 SWAP2 SUB SWAP1 RETURN JUMPDEST PUSH2 0x52B PUSH1 0x4 DUP1 CALLDATASIZE SUB DUP2 ADD SWAP1 PUSH2 0x526 SWAP2 SWAP1 PUSH2 0x2FA0 JUMP JUMPDEST PUSH2 0xD11 JUMP JUMPDEST STOP JUMPDEST PUSH1 0x0 PUSH2 0x538 DUP3 PUSH2 0xD94 JUMP JUMPDEST SWAP1 POP SWAP2 SWAP1 POP JUMP JUMPDEST PUSH1 0x60 PUSH1 0x0 DUP1 SLOAD PUSH2 0x54E SWAP1 PUSH2 0x3228 JUMP JUMPDEST DUP1 PUSH1 0x1F ADD PUSH1 0x20 DUP1 SWAP2 DIV MUL PUSH1 0x20 ADD PUSH1 0x40 MLOAD SWAP1 DUP2 ADD PUSH1 0x40 MSTORE DUP1 SWAP3 SWAP2 SWAP1 DUP2 DUP2 MSTORE PUSH1 0x20 ADD DUP3 DUP1 SLOAD PUSH2 0x57A SWAP1 PUSH2 0x3228 JUMP JUMPDEST DUP1 ISZERO PUSH2 0x5C7 JUMPI DUP1 PUSH1 0x1F LT PUSH2 0x59C JUMPI PUSH2 0x100 DUP1 DUP4 SLOAD DIV MUL DUP4 MSTORE SWAP2 PUSH1 0x20 ADD SWAP2 PUSH2 0x5C7 JUMP JUMPDEST DUP3 ADD SWAP2 SWAP1 PUSH1 0x0 MSTORE PUSH1 0x20 PUSH1 0x0 KECCAK256 SWAP1 JUMPDEST DUP2 SLOAD DUP2 MSTORE SWAP1 PUSH1 0x1 ADD SWAP1 PUSH1 0x20 ADD DUP1 DUP4 GT PUSH2 0x5AA JUMPI DUP3 SWAP1 SUB PUSH1 0x1F AND DUP3 ADD SWAP2 JUMPDEST POP POP POP POP POP SWAP1 POP SWAP1 JUMP JUMPDEST PUSH1 0x0 PUSH2 0x5DC DUP3 PUSH2 0xE0E JUMP JUMPDEST PUSH1 0x4 PUSH1 0x0 DUP4 DUP2 MSTORE PUSH1 0x20 ADD SWAP1 DUP2 MSTORE PUSH1 0x20 ADD PUSH1 0x0 KECCAK256 PUSH1 0x0 SWAP1 SLOAD SWAP1 PUSH2 0x100 EXP SWAP1 DIV PUSH20 0xFFFFFFFFFFFFFFFFFFFFFFFFFFFFFFFFFFFFFFFF AND SWAP1 POP SWAP2 SWAP1 POP JUMP JUMPDEST DUP2 PUSH2 0x621 DUP2 PUSH2 0xE59 JUMP JUMPDEST PUSH2 0x62B DUP4 DUP4 PUSH2 0xF56 JUMP JUMPDEST POP POP POP JUMP JUMPDEST PUSH2 0x638 PUSH2 0x106D JUMP JUMPDEST PUSH2 0x642 DUP3 DUP3 PUSH2 0x10EB JUMP JUMPDEST POP POP JUMP JUMPDEST PUSH1 0x0 PUSH1 0x8 DUP1 SLOAD SWAP1 POP SWAP1 POP SWAP1 JUMP JUMPDEST DUP3 CALLER PUSH20 0xFFFFFFFFFFFFFFFFFFFFFFFFFFFFFFFFFFFFFFFF AND DUP2 PUSH20 0xFFFFFFFFFFFFFFFFFFFFFFFFFFFFFFFFFFFFFFFF AND EQ PUSH2 0x691 JUMPI PUSH2 0x690 CALLER PUSH2 0xE59 JUMP JUMPDEST JUMPDEST PUSH2 0x69C DUP5 DUP5 DUP5 PUSH2 0x1158 JUMP JUMPDEST POP POP POP POP JUMP JUMPDEST PUSH1 0x0 PUSH2 0x6AD DUP4 PUSH2 0x8CE JUMP JUMPDEST DUP3 LT PUSH2 0x6EE JUMPI PUSH1 0x40 MLOAD PUSH32 0x8C379A000000000000000000000000000000000000000000000000000000000 DUP2 MSTORE PUSH1 0x4 ADD PUSH2 0x6E5 SWAP1 PUSH2 0x32CB JUMP JUMPDEST PUSH1 0x40 MLOAD DUP1 SWAP2 SUB SWAP1 REVERT JUMPDEST PUSH1 0x6 PUSH1 0x0 DUP5 PUSH20 0xFFFFFFFFFFFFFFFFFFFFFFFFFFFFFFFFFFFFFFFF AND PUSH20 0xFFFFFFFFFFFFFFFFFFFFFFFFFFFFFFFFFFFFFFFF AND DUP2 MSTORE PUSH1 0x20 ADD SWAP1 DUP2 MSTORE PUSH1 0x20 ADD PUSH1 0x0 KECCAK256 PUSH1 0x0 DUP4 DUP2 MSTORE PUSH1 0x20 ADD SWAP1 DUP2 MSTORE PUSH1 0x20 ADD PUSH1 0x0 KECCAK256 SLOAD SWAP1 POP SWAP3 SWAP2 POP POP JUMP JUMPDEST PUSH2 0x74F PUSH2 0x106D JUMP JUMPDEST DUP1 PUSH1 0xD SWAP1 DUP2 PUSH2 0x75E SWAP2 SWAP1 PUSH2 0x348D JUMP JUMPDEST POP POP JUMP JUMPDEST PUSH2 0x76A PUSH2 0x106D JUMP JUMPDEST PUSH2 0x773 DUP2 PUSH2 0x11B8 JUMP JUMPDEST POP JUMP JUMPDEST PUSH14 0xAAEB6D7670E522A718067333CD4E DUP2 JUMP JUMPDEST DUP3 CALLER PUSH20 0xFFFFFFFFFFFFFFFFFFFFFFFFFFFFFFFFFFFFFFFF AND DUP2 PUSH20 0xFFFFFFFFFFFFFFFFFFFFFFFFFFFFFFFFFFFFFFFF AND EQ PUSH2 0x7C6 JUMPI PUSH2 0x7C5 CALLER PUSH2 0xE59 JUMP JUMPDEST JUMPDEST PUSH2 0x7D1 DUP5 DUP5 DUP5 PUSH2 0x1246 JUMP JUMPDEST POP POP POP POP JUMP JUMPDEST PUSH1 0x0 PUSH2 0x7E1 PUSH2 0x646 JUMP JUMPDEST DUP3 LT PUSH2 0x822 JUMPI PUSH1 0x40 MLOAD PUSH32 0x8C379A000000000000000000000000000000000000000000000000000000000 DUP2 MSTORE PUSH1 0x4 ADD PUSH2 0x819 SWAP1 PUSH2 0x35D1 JUMP JUMPDEST PUSH1 0x40 MLOAD DUP1 SWAP2 SUB SWAP1 REVERT JUMPDEST PUSH1 0x8 DUP3 DUP2 SLOAD DUP2 LT PUSH2 0x836 JUMPI PUSH2 0x835 PUSH2 0x35F1 JUMP JUMPDEST JUMPDEST SWAP1 PUSH1 0x0 MSTORE PUSH1 0x20 PUSH1 0x0 KECCAK256 ADD SLOAD SWAP1 POP SWAP2 SWAP1 POP JUMP JUMPDEST PUSH1 0x0 DUP1 PUSH2 0x854 DUP4 PUSH2 0x1266 JUMP JUMPDEST SWAP1 POP PUSH1 0x0 PUSH20 0xFFFFFFFFFFFFFFFFFFFFFFFFFFFFFFFFFFFFFFFF AND DUP2 PUSH20 0xFFFFFFFFFFFFFFFFFFFFFFFFFFFFFFFFFFFFFFFF AND SUB PUSH2 0x8C5 JUMPI PUSH1 0x40 MLOAD PUSH32 0x8C379A000000000000000000000000000000000000000000000000000000000 DUP2 MSTORE PUSH1 0x4 ADD PUSH2 0x8BC SWAP1 PUSH2 0x366C JUMP JUMPDEST PUSH1 0x40 MLOAD DUP1 SWAP2 SUB SWAP1 REVERT JUMPDEST DUP1 SWAP2 POP POP SWAP2 SWAP1 POP JUMP JUMPDEST PUSH1 0x0 DUP1 PUSH20 0xFFFFFFFFFFFFFFFFFFFFFFFFFFFFFFFFFFFFFFFF AND DUP3 PUSH20 0xFFFFFFFFFFFFFFFFFFFFFFFFFFFFFFFFFFFFFFFF AND SUB PUSH2 0x93E JUMPI PUSH1 0x40 MLOAD PUSH32 0x8C379A000000000000000000000000000000000000000000000000000000000 DUP2 MSTORE PUSH1 0x4 ADD PUSH2 0x935 SWAP1 PUSH2 0x36FE JUMP JUMPDEST PUSH1 0x40 MLOAD DUP1 SWAP2 SUB SWAP1 REVERT JUMPDEST PUSH1 0x3 PUSH1 0x0 DUP4 PUSH20 0xFFFFFFFFFFFFFFFFFFFFFFFFFFFFFFFFFFFFFFFF AND PUSH20 0xFFFFFFFFFFFFFFFFFFFFFFFFFFFFFFFFFFFFFFFF AND DUP2 MSTORE PUSH1 0x20 ADD SWAP1 DUP2 MSTORE PUSH1 0x20 ADD PUSH1 0x0 KECCAK256 SLOAD SWAP1 POP SWAP2 SWAP1 POP JUMP JUMPDEST PUSH2 0x98D PUSH2 0x106D JUMP JUMPDEST PUSH2 0x997 PUSH1 0x0 PUSH2 0x12A3 JUMP JUMPDEST JUMP JUMPDEST PUSH1 0x0 PUSH1 0xB PUSH1 0x0 SWAP1 SLOAD SWAP1 PUSH2 0x100 EXP SWAP1 DIV PUSH20 0xFFFFFFFFFFFFFFFFFFFFFFFFFFFFFFFFFFFFFFFF AND SWAP1 POP SWAP1 JUMP JUMPDEST PUSH1 0x60 PUSH1 0x1 DUP1 SLOAD PUSH2 0x9D2 SWAP1 PUSH2 0x3228 JUMP JUMPDEST DUP1 PUSH1 0x1F ADD PUSH1 0x20 DUP1 SWAP2 DIV MUL PUSH1 0x20 ADD PUSH1 0x40 MLOAD SWAP1 DUP2 ADD PUSH1 0x40 MSTORE DUP1 SWAP3 SWAP2 SWAP1 DUP2 DUP2 MSTORE PUSH1 0x20 ADD DUP3 DUP1 SLOAD PUSH2 0x9FE SWAP1 PUSH2 0x3228 JUMP JUMPDEST DUP1 ISZERO PUSH2 0xA4B JUMPI DUP1 PUSH1 0x1F LT PUSH2 0xA20 JUMPI PUSH2 0x100 DUP1 DUP4 SLOAD DIV MUL DUP4 MSTORE SWAP2 PUSH1 0x20 ADD SWAP2 PUSH2 0xA4B JUMP JUMPDEST DUP3 ADD SWAP2 SWAP1 PUSH1 0x0 MSTORE PUSH1 0x20 PUSH1 0x0 KECCAK256 SWAP1 JUMPDEST DUP2 SLOAD DUP2 MSTORE SWAP1 PUSH1 0x1 ADD SWAP1 PUSH1 0x20 ADD DUP1 DUP4 GT PUSH2 0xA2E JUMPI DUP3 SWAP1 SUB PUSH1 0x1F AND DUP3 ADD SWAP2 JUMPDEST POP POP POP POP POP SWAP1 POP SWAP1 JUMP JUMPDEST DUP2 PUSH2 0xA5F DUP2 PUSH2 0xE59 JUMP JUMPDEST PUSH2 0xA69 DUP4 DUP4 PUSH2 0x1369 JUMP JUMPDEST POP POP POP JUMP JUMPDEST DUP4 CALLER PUSH20 0xFFFFFFFFFFFFFFFFFFFFFFFFFFFFFFFFFFFFFFFF AND DUP2 PUSH20 0xFFFFFFFFFFFFFFFFFFFFFFFFFFFFFFFFFFFFFFFF AND EQ PUSH2 0xAAC JUMPI PUSH2 0xAAB CALLER PUSH2 0xE59 JUMP JUMPDEST JUMPDEST PUSH2 0xAB8 DUP6 DUP6 DUP6 DUP6 PUSH2 0x137F JUMP JUMPDEST POP POP POP POP POP JUMP JUMPDEST PUSH1 0x60 PUSH2 0xACA DUP3 PUSH2 0x13E1 JUMP JUMPDEST SWAP1 POP SWAP2 SWAP1 POP JUMP JUMPDEST PUSH1 0x0 DUP1 DUP3 MLOAD GT PUSH2 0xB16 JUMPI PUSH1 0x40 MLOAD PUSH32 0x8C379A000000000000000000000000000000000000000000000000000000000 DUP2 MSTORE PUSH1 0x4 ADD PUSH2 0xB0D SWAP1 PUSH2 0x376A JUMP JUMPDEST PUSH1 0x40 MLOAD DUP1 SWAP2 SUB SWAP1 REVERT JUMPDEST PUSH2 0xB20 PUSH1 0xC PUSH2 0x14F3 JUMP JUMPDEST PUSH1 0x0 PUSH2 0xB2C PUSH1 0xC PUSH2 0x1509 JUMP JUMPDEST SWAP1 POP PUSH2 0xB38 DUP2 DUP5 PUSH2 0x10EB JUMP JUMPDEST PUSH2 0xB42 DUP5 DUP3 PUSH2 0x1517 JUMP JUMPDEST DUP1 SWAP2 POP POP SWAP3 SWAP2 POP POP JUMP JUMPDEST PUSH1 0xD DUP1 SLOAD PUSH2 0xB59 SWAP1 PUSH2 0x3228 JUMP JUMPDEST DUP1 PUSH1 0x1F ADD PUSH1 0x20 DUP1 SWAP2 DIV MUL PUSH1 0x20 ADD PUSH1 0x40 MLOAD SWAP1 DUP2 ADD PUSH1 0x40 MSTORE DUP1 SWAP3 SWAP2 SWAP1 DUP2 DUP2 MSTORE PUSH1 0x20 ADD DUP3 DUP1 SLOAD PUSH2 0xB85 SWAP1 PUSH2 0x3228 JUMP JUMPDEST DUP1 ISZERO PUSH2 0xBD2 JUMPI DUP1 PUSH1 0x1F LT PUSH2 0xBA7 JUMPI PUSH2 0x100 DUP1 DUP4 SLOAD DIV MUL DUP4 MSTORE SWAP2 PUSH1 0x20 ADD SWAP2 PUSH2 0xBD2 JUMP JUMPDEST DUP3 ADD SWAP2 SWAP1 PUSH1 0x0 MSTORE PUSH1 0x20 PUSH1 0x0 KECCAK256 SWAP1 JUMPDEST DUP2 SLOAD DUP2 MSTORE SWAP1 PUSH1 0x1 ADD SWAP1 PUSH1 0x20 ADD DUP1 DUP4 GT PUSH2 0xBB5 JUMPI DUP3 SWAP1 SUB PUSH1 0x1F AND DUP3 ADD SWAP2 JUMPDEST POP POP POP POP POP DUP2 JUMP JUMPDEST PUSH1 0x0 PUSH32 0x0 PUSH20 0xFFFFFFFFFFFFFFFFFFFFFFFFFFFFFFFFFFFFFFFF AND PUSH4 0xE3A9DB1A DUP4 PUSH1 0x40 MLOAD DUP3 PUSH4 0xFFFFFFFF AND PUSH1 0xE0 SHL DUP2 MSTORE PUSH1 0x4 ADD PUSH2 0xC35 SWAP2 SWAP1 PUSH2 0x2BDD JUMP JUMPDEST PUSH1 0x20 PUSH1 0x40 MLOAD DUP1 DUP4 SUB DUP2 DUP7 GAS STATICCALL ISZERO DUP1 ISZERO PUSH2 0xC52 JUMPI RETURNDATASIZE PUSH1 0x0 DUP1 RETURNDATACOPY RETURNDATASIZE PUSH1 0x0 REVERT JUMPDEST POP POP POP POP PUSH1 0x40 MLOAD RETURNDATASIZE PUSH1 0x1F NOT PUSH1 0x1F DUP3 ADD AND DUP3 ADD DUP1 PUSH1 0x40 MSTORE POP DUP2 ADD SWAP1 PUSH2 0xC76 SWAP2 SWAP1 PUSH2 0x379F JUMP JUMPDEST SWAP1 POP SWAP2 SWAP1 POP JUMP JUMPDEST PUSH1 0x0 PUSH1 0x5 PUSH1 0x0 DUP5 PUSH20 0xFFFFFFFFFFFFFFFFFFFFFFFFFFFFFFFFFFFFFFFF AND PUSH20 0xFFFFFFFFFFFFFFFFFFFFFFFFFFFFFFFFFFFFFFFF AND DUP2 MSTORE PUSH1 0x20 ADD SWAP1 DUP2 MSTORE PUSH1 0x20 ADD PUSH1 0x0 KECCAK256 PUSH1 0x0 DUP4 PUSH20 0xFFFFFFFFFFFFFFFFFFFFFFFFFFFFFFFFFFFFFFFF AND PUSH20 0xFFFFFFFFFFFFFFFFFFFFFFFFFFFFFFFFFFFFFFFF AND DUP2 MSTORE PUSH1 0x20 ADD SWAP1 DUP2 MSTORE PUSH1 0x20 ADD PUSH1 0x0 KECCAK256 PUSH1 0x0 SWAP1 SLOAD SWAP1 PUSH2 0x100 EXP SWAP1 DIV PUSH1 0xFF AND SWAP1 POP SWAP3 SWAP2 POP POP JUMP JUMPDEST PUSH2 0xD19 PUSH2 0x106D JUMP JUMPDEST PUSH1 0x0 PUSH20 0xFFFFFFFFFFFFFFFFFFFFFFFFFFFFFFFFFFFFFFFF AND DUP2 PUSH20 0xFFFFFFFFFFFFFFFFFFFFFFFFFFFFFFFFFFFFFFFF AND SUB PUSH2 0xD88 JUMPI PUSH1 0x40 MLOAD PUSH32 0x8C379A000000000000000000000000000000000000000000000000000000000 DUP2 MSTORE PUSH1 0x4 ADD PUSH2 0xD7F SWAP1 PUSH2 0x383E JUMP JUMPDEST PUSH1 0x40 MLOAD DUP1 SWAP2 SUB SWAP1 REVERT JUMPDEST PUSH2 0xD91 DUP2 PUSH2 0x12A3 JUMP JUMPDEST POP JUMP JUMPDEST PUSH1 0x0 PUSH32 0x780E9D6300000000000000000000000000000000000000000000000000000000 PUSH28 0xFFFFFFFFFFFFFFFFFFFFFFFFFFFFFFFFFFFFFFFFFFFFFFFFFFFFFFFF NOT AND DUP3 PUSH28 0xFFFFFFFFFFFFFFFFFFFFFFFFFFFFFFFFFFFFFFFFFFFFFFFFFFFFFFFF NOT AND EQ DUP1 PUSH2 0xE07 JUMPI POP PUSH2 0xE06 DUP3 PUSH2 0x1535 JUMP JUMPDEST JUMPDEST SWAP1 POP SWAP2 SWAP1 POP JUMP JUMPDEST PUSH2 0xE17 DUP2 PUSH2 0x1617 JUMP JUMPDEST PUSH2 0xE56 JUMPI PUSH1 0x40 MLOAD PUSH32 0x8C379A000000000000000000000000000000000000000000000000000000000 DUP2 MSTORE PUSH1 0x4 ADD PUSH2 0xE4D SWAP1 PUSH2 0x366C JUMP JUMPDEST PUSH1 0x40 MLOAD DUP1 SWAP2 SUB SWAP1 REVERT JUMPDEST POP JUMP JUMPDEST PUSH1 0x0 PUSH14 0xAAEB6D7670E522A718067333CD4E PUSH20 0xFFFFFFFFFFFFFFFFFFFFFFFFFFFFFFFFFFFFFFFF AND EXTCODESIZE GT ISZERO PUSH2 0xF53 JUMPI PUSH14 0xAAEB6D7670E522A718067333CD4E PUSH20 0xFFFFFFFFFFFFFFFFFFFFFFFFFFFFFFFFFFFFFFFF AND PUSH4 0xC6171134 ADDRESS DUP4 PUSH1 0x40 MLOAD DUP4 PUSH4 0xFFFFFFFF AND PUSH1 0xE0 SHL DUP2 MSTORE PUSH1 0x4 ADD PUSH2 0xED0 SWAP3 SWAP2 SWAP1 PUSH2 0x385E JUMP JUMPDEST PUSH1 0x20 PUSH1 0x40 MLOAD DUP1 DUP4 SUB DUP2 DUP7 GAS STATICCALL ISZERO DUP1 ISZERO PUSH2 0xEED JUMPI RETURNDATASIZE PUSH1 0x0 DUP1 RETURNDATACOPY RETURNDATASIZE PUSH1 0x0 REVERT JUMPDEST POP POP POP POP PUSH1 0x40 MLOAD RETURNDATASIZE PUSH1 0x1F NOT PUSH1 0x1F DUP3 ADD AND DUP3 ADD DUP1 PUSH1 0x40 MSTORE POP DUP2 ADD SWAP1 PUSH2 0xF11 SWAP2 SWAP1 PUSH2 0x389C JUMP JUMPDEST PUSH2 0xF52 JUMPI DUP1 PUSH1 0x40 MLOAD PUSH32 0xEDE71DCC00000000000000000000000000000000000000000000000000000000 DUP2 MSTORE PUSH1 0x4 ADD PUSH2 0xF49 SWAP2 SWAP1 PUSH2 0x2BDD JUMP JUMPDEST PUSH1 0x40 MLOAD DUP1 SWAP2 SUB SWAP1 REVERT JUMPDEST JUMPDEST POP JUMP JUMPDEST PUSH1 0x0 PUSH2 0xF61 DUP3 PUSH2 0x848 JUMP JUMPDEST SWAP1 POP DUP1 PUSH20 0xFFFFFFFFFFFFFFFFFFFFFFFFFFFFFFFFFFFFFFFF AND DUP4 PUSH20 0xFFFFFFFFFFFFFFFFFFFFFFFFFFFFFFFFFFFFFFFF AND SUB PUSH2 0xFD1 JUMPI PUSH1 0x40 MLOAD PUSH32 0x8C379A000000000000000000000000000000000000000000000000000000000 DUP2 MSTORE PUSH1 0x4 ADD PUSH2 0xFC8 SWAP1 PUSH2 0x393B JUMP JUMPDEST PUSH1 0x40 MLOAD DUP1 SWAP2 SUB SWAP1 REVERT JUMPDEST DUP1 PUSH20 0xFFFFFFFFFFFFFFFFFFFFFFFFFFFFFFFFFFFFFFFF AND PUSH2 0xFF0 PUSH2 0x1658 JUMP JUMPDEST PUSH20 0xFFFFFFFFFFFFFFFFFFFFFFFFFFFFFFFFFFFFFFFF AND EQ DUP1 PUSH2 0x101F JUMPI POP PUSH2 0x101E DUP2 PUSH2 0x1019 PUSH2 0x1658 JUMP JUMPDEST PUSH2 0xC7D JUMP JUMPDEST JUMPDEST PUSH2 0x105E JUMPI PUSH1 0x40 MLOAD PUSH32 0x8C379A000000000000000000000000000000000000000000000000000000000 DUP2 MSTORE PUSH1 0x4 ADD PUSH2 0x1055 SWAP1 PUSH2 0x39CD JUMP JUMPDEST PUSH1 0x40 MLOAD DUP1 SWAP2 SUB SWAP1 REVERT JUMPDEST PUSH2 0x1068 DUP4 DUP4 PUSH2 0x1660 JUMP JUMPDEST POP POP POP JUMP JUMPDEST PUSH2 0x1075 PUSH2 0x1658 JUMP JUMPDEST PUSH20 0xFFFFFFFFFFFFFFFFFFFFFFFFFFFFFFFFFFFFFFFF AND PUSH2 0x1093 PUSH2 0x999 JUMP JUMPDEST PUSH20 0xFFFFFFFFFFFFFFFFFFFFFFFFFFFFFFFFFFFFFFFF AND EQ PUSH2 0x10E9 JUMPI PUSH1 0x40 MLOAD PUSH32 0x8C379A000000000000000000000000000000000000000000000000000000000 DUP2 MSTORE PUSH1 0x4 ADD PUSH2 0x10E0 SWAP1 PUSH2 0x3A39 JUMP JUMPDEST PUSH1 0x40 MLOAD DUP1 SWAP2 SUB SWAP1 REVERT JUMPDEST JUMP JUMPDEST PUSH2 0x10F4 DUP3 PUSH2 0x1617 JUMP JUMPDEST PUSH2 0x1133 JUMPI PUSH1 0x40 MLOAD PUSH32 0x8C379A000000000000000000000000000000000000000000000000000000000 DUP2 MSTORE PUSH1 0x4 ADD PUSH2 0x112A SWAP1 PUSH2 0x3ACB JUMP JUMPDEST PUSH1 0x40 MLOAD DUP1 SWAP2 SUB SWAP1 REVERT JUMPDEST DUP1 PUSH1 0xA PUSH1 0x0 DUP5 DUP2 MSTORE PUSH1 0x20 ADD SWAP1 DUP2 MSTORE PUSH1 0x20 ADD PUSH1 0x0 KECCAK256 SWAP1 DUP2 PUSH2 0x1153 SWAP2 SWAP1 PUSH2 0x348D JUMP JUMPDEST POP POP POP JUMP JUMPDEST PUSH2 0x1169 PUSH2 0x1163 PUSH2 0x1658 JUMP JUMPDEST DUP3 PUSH2 0x1719 JUMP JUMPDEST PUSH2 0x11A8 JUMPI PUSH1 0x40 MLOAD PUSH32 0x8C379A000000000000000000000000000000000000000000000000000000000 DUP2 MSTORE PUSH1 0x4 ADD PUSH2 0x119F SWAP1 PUSH2 0x3B5D JUMP JUMPDEST PUSH1 0x40 MLOAD DUP1 SWAP2 SUB SWAP1 REVERT JUMPDEST PUSH2 0x11B3 DUP4 DUP4 DUP4 PUSH2 0x17AE JUMP JUMPDEST POP POP POP JUMP JUMPDEST PUSH32 0x0 PUSH20 0xFFFFFFFFFFFFFFFFFFFFFFFFFFFFFFFFFFFFFFFF AND PUSH4 0x51CFF8D9 DUP3 PUSH1 0x40 MLOAD DUP3 PUSH4 0xFFFFFFFF AND PUSH1 0xE0 SHL DUP2 MSTORE PUSH1 0x4 ADD PUSH2 0x1211 SWAP2 SWAP1 PUSH2 0x3B8C JUMP JUMPDEST PUSH1 0x0 PUSH1 0x40 MLOAD DUP1 DUP4 SUB DUP2 PUSH1 0x0 DUP8 DUP1 EXTCODESIZE ISZERO DUP1 ISZERO PUSH2 0x122B JUMPI PUSH1 0x0 DUP1 REVERT JUMPDEST POP GAS CALL ISZERO DUP1 ISZERO PUSH2 0x123F JUMPI RETURNDATASIZE PUSH1 0x0 DUP1 RETURNDATACOPY RETURNDATASIZE PUSH1 0x0 REVERT JUMPDEST POP POP POP POP POP JUMP JUMPDEST PUSH2 0x1261 DUP4 DUP4 DUP4 PUSH1 0x40 MLOAD DUP1 PUSH1 0x20 ADD PUSH1 0x40 MSTORE DUP1 PUSH1 0x0 DUP2 MSTORE POP PUSH2 0xA6E JUMP JUMPDEST POP POP POP JUMP JUMPDEST PUSH1 0x0 PUSH1 0x2 PUSH1 0x0 DUP4 DUP2 MSTORE PUSH1 0x20 ADD SWAP1 DUP2 MSTORE PUSH1 0x20 ADD PUSH1 0x0 KECCAK256 PUSH1 0x0 SWAP1 SLOAD SWAP1 PUSH2 0x100 EXP SWAP1 DIV PUSH20 0xFFFFFFFFFFFFFFFFFFFFFFFFFFFFFFFFFFFFFFFF AND SWAP1 POP SWAP2 SWAP1 POP JUMP JUMPDEST PUSH1 0x0 PUSH1 0xB PUSH1 0x0 SWAP1 SLOAD SWAP1 PUSH2 0x100 EXP SWAP1 DIV PUSH20 0xFFFFFFFFFFFFFFFFFFFFFFFFFFFFFFFFFFFFFFFF AND SWAP1 POP DUP2 PUSH1 0xB PUSH1 0x0 PUSH2 0x100 EXP DUP2 SLOAD DUP2 PUSH20 0xFFFFFFFFFFFFFFFFFFFFFFFFFFFFFFFFFFFFFFFF MUL NOT AND SWAP1 DUP4 PUSH20 0xFFFFFFFFFFFFFFFFFFFFFFFFFFFFFFFFFFFFFFFF AND MUL OR SWAP1 SSTORE POP DUP2 PUSH20 0xFFFFFFFFFFFFFFFFFFFFFFFFFFFFFFFFFFFFFFFF AND DUP2 PUSH20 0xFFFFFFFFFFFFFFFFFFFFFFFFFFFFFFFFFFFFFFFF AND PUSH32 0x8BE0079C531659141344CD1FD0A4F28419497F9722A3DAAFE3B4186F6B6457E0 PUSH1 0x40 MLOAD PUSH1 0x40 MLOAD DUP1 SWAP2 SUB SWAP1 LOG3 POP POP JUMP JUMPDEST PUSH2 0x137B PUSH2 0x1374 PUSH2 0x1658 JUMP JUMPDEST DUP4 DUP4 PUSH2 0x1AA7 JUMP JUMPDEST POP POP JUMP JUMPDEST PUSH2 0x1390 PUSH2 0x138A PUSH2 0x1658 JUMP JUMPDEST DUP4 PUSH2 0x1719 JUMP JUMPDEST PUSH2 0x13CF JUMPI PUSH1 0x40 MLOAD PUSH32 0x8C379A000000000000000000000000000000000000000000000000000000000 DUP2 MSTORE PUSH1 0x4 ADD PUSH2 0x13C6 SWAP1 PUSH2 0x3B5D JUMP JUMPDEST PUSH1 0x40 MLOAD DUP1 SWAP2 SUB SWAP1 REVERT JUMPDEST PUSH2 0x13DB DUP5 DUP5 DUP5 DUP5 PUSH2 0x1C13 JUMP JUMPDEST POP POP POP POP JUMP JUMPDEST PUSH1 0x60 PUSH2 0x13EC DUP3 PUSH2 0xE0E JUMP JUMPDEST PUSH1 0x0 PUSH1 0xA PUSH1 0x0 DUP5 DUP2 MSTORE PUSH1 0x20 ADD SWAP1 DUP2 MSTORE PUSH1 0x20 ADD PUSH1 0x0 KECCAK256 DUP1 SLOAD PUSH2 0x140C SWAP1 PUSH2 0x3228 JUMP JUMPDEST DUP1 PUSH1 0x1F ADD PUSH1 0x20 DUP1 SWAP2 DIV MUL PUSH1 0x20 ADD PUSH1 0x40 MLOAD SWAP1 DUP2 ADD PUSH1 0x40 MSTORE DUP1 SWAP3 SWAP2 SWAP1 DUP2 DUP2 MSTORE PUSH1 0x20 ADD DUP3 DUP1 SLOAD PUSH2 0x1438 SWAP1 PUSH2 0x3228 JUMP JUMPDEST DUP1 ISZERO PUSH2 0x1485 JUMPI DUP1 PUSH1 0x1F LT PUSH2 0x145A JUMPI PUSH2 0x100 DUP1 DUP4 SLOAD DIV MUL DUP4 MSTORE SWAP2 PUSH1 0x20 ADD SWAP2 PUSH2 0x1485 JUMP JUMPDEST DUP3 ADD SWAP2 SWAP1 PUSH1 0x0 MSTORE PUSH1 0x20 PUSH1 0x0 KECCAK256 SWAP1 JUMPDEST DUP2 SLOAD DUP2 MSTORE SWAP1 PUSH1 0x1 ADD SWAP1 PUSH1 0x20 ADD DUP1 DUP4 GT PUSH2 0x1468 JUMPI DUP3 SWAP1 SUB PUSH1 0x1F AND DUP3 ADD SWAP2 JUMPDEST POP POP POP POP POP SWAP1 POP PUSH1 0x0 PUSH2 0x1496 PUSH2 0x1C6F JUMP JUMPDEST SWAP1 POP PUSH1 0x0 DUP2 MLOAD SUB PUSH2 0x14AB JUMPI DUP2 SWAP3 POP POP POP PUSH2 0x14EE JUMP JUMPDEST PUSH1 0x0 DUP3 MLOAD GT ISZERO PUSH2 0x14E0 JUMPI DUP1 DUP3 PUSH1 0x40 MLOAD PUSH1 0x20 ADD PUSH2 0x14C8 SWAP3 SWAP2 SWAP1 PUSH2 0x3BE3 JUMP JUMPDEST PUSH1 0x40 MLOAD PUSH1 0x20 DUP2 DUP4 SUB SUB DUP2 MSTORE SWAP1 PUSH1 0x40 MSTORE SWAP3 POP POP POP PUSH2 0x14EE JUMP JUMPDEST PUSH2 0x14E9 DUP5 PUSH2 0x1D01 JUMP JUMPDEST SWAP3 POP POP POP JUMPDEST SWAP2 SWAP1 POP JUMP JUMPDEST PUSH1 0x1 DUP2 PUSH1 0x0 ADD PUSH1 0x0 DUP3 DUP3 SLOAD ADD SWAP3 POP POP DUP2 SWAP1 SSTORE POP POP JUMP JUMPDEST PUSH1 0x0 DUP2 PUSH1 0x0 ADD SLOAD SWAP1 POP SWAP2 SWAP1 POP JUMP JUMPDEST PUSH2 0x1531 DUP3 DUP3 PUSH1 0x40 MLOAD DUP1 PUSH1 0x20 ADD PUSH1 0x40 MSTORE DUP1 PUSH1 0x0 DUP2 MSTORE POP PUSH2 0x1D69 JUMP JUMPDEST POP POP JUMP JUMPDEST PUSH1 0x0 PUSH32 0x80AC58CD00000000000000000000000000000000000000000000000000000000 PUSH28 0xFFFFFFFFFFFFFFFFFFFFFFFFFFFFFFFFFFFFFFFFFFFFFFFFFFFFFFFF NOT AND DUP3 PUSH28 0xFFFFFFFFFFFFFFFFFFFFFFFFFFFFFFFFFFFFFFFFFFFFFFFFFFFFFFFF NOT AND EQ DUP1 PUSH2 0x1600 JUMPI POP PUSH32 0x5B5E139F00000000000000000000000000000000000000000000000000000000 PUSH28 0xFFFFFFFFFFFFFFFFFFFFFFFFFFFFFFFFFFFFFFFFFFFFFFFFFFFFFFFF NOT AND DUP3 PUSH28 0xFFFFFFFFFFFFFFFFFFFFFFFFFFFFFFFFFFFFFFFFFFFFFFFFFFFFFFFF NOT AND EQ JUMPDEST DUP1 PUSH2 0x1610 JUMPI POP PUSH2 0x160F DUP3 PUSH2 0x1DC4 JUMP JUMPDEST JUMPDEST SWAP1 POP SWAP2 SWAP1 POP JUMP JUMPDEST PUSH1 0x0 DUP1 PUSH20 0xFFFFFFFFFFFFFFFFFFFFFFFFFFFFFFFFFFFFFFFF AND PUSH2 0x1639 DUP4 PUSH2 0x1266 JUMP JUMPDEST PUSH20 0xFFFFFFFFFFFFFFFFFFFFFFFFFFFFFFFFFFFFFFFF AND EQ ISZERO SWAP1 POP SWAP2 SWAP1 POP JUMP JUMPDEST PUSH1 0x0 CALLER SWAP1 POP SWAP1 JUMP JUMPDEST DUP2 PUSH1 0x4 PUSH1 0x0 DUP4 DUP2 MSTORE PUSH1 0x20 ADD SWAP1 DUP2 MSTORE PUSH1 0x20 ADD PUSH1 0x0 KECCAK256 PUSH1 0x0 PUSH2 0x100 EXP DUP2 SLOAD DUP2 PUSH20 0xFFFFFFFFFFFFFFFFFFFFFFFFFFFFFFFFFFFFFFFF MUL NOT AND SWAP1 DUP4 PUSH20 0xFFFFFFFFFFFFFFFFFFFFFFFFFFFFFFFFFFFFFFFF AND MUL OR SWAP1 SSTORE POP DUP1 DUP3 PUSH20 0xFFFFFFFFFFFFFFFFFFFFFFFFFFFFFFFFFFFFFFFF AND PUSH2 0x16D3 DUP4 PUSH2 0x848 JUMP JUMPDEST PUSH20 0xFFFFFFFFFFFFFFFFFFFFFFFFFFFFFFFFFFFFFFFF AND PUSH32 0x8C5BE1E5EBEC7D5BD14F71427D1E84F3DD0314C0F7B2291E5B200AC8C7C3B925 PUSH1 0x40 MLOAD PUSH1 0x40 MLOAD DUP1 SWAP2 SUB SWAP1 LOG4 POP POP JUMP JUMPDEST PUSH1 0x0 DUP1 PUSH2 0x1725 DUP4 PUSH2 0x848 JUMP JUMPDEST SWAP1 POP DUP1 PUSH20 0xFFFFFFFFFFFFFFFFFFFFFFFFFFFFFFFFFFFFFFFF AND DUP5 PUSH20 0xFFFFFFFFFFFFFFFFFFFFFFFFFFFFFFFFFFFFFFFF AND EQ DUP1 PUSH2 0x1767 JUMPI POP PUSH2 0x1766 DUP2 DUP6 PUSH2 0xC7D JUMP JUMPDEST JUMPDEST DUP1 PUSH2 0x17A5 JUMPI POP DUP4 PUSH20 0xFFFFFFFFFFFFFFFFFFFFFFFFFFFFFFFFFFFFFFFF AND PUSH2 0x178D DUP5 PUSH2 0x5D1 JUMP JUMPDEST PUSH20 0xFFFFFFFFFFFFFFFFFFFFFFFFFFFFFFFFFFFFFFFF AND EQ JUMPDEST SWAP2 POP POP SWAP3 SWAP2 POP POP JUMP JUMPDEST DUP3 PUSH20 0xFFFFFFFFFFFFFFFFFFFFFFFFFFFFFFFFFFFFFFFF AND PUSH2 0x17CE DUP3 PUSH2 0x848 JUMP JUMPDEST PUSH20 0xFFFFFFFFFFFFFFFFFFFFFFFFFFFFFFFFFFFFFFFF AND EQ PUSH2 0x1824 JUMPI PUSH1 0x40 MLOAD PUSH32 0x8C379A000000000000000000000000000000000000000000000000000000000 DUP2 MSTORE PUSH1 0x4 ADD PUSH2 0x181B SWAP1 PUSH2 0x3C79 JUMP JUMPDEST PUSH1 0x40 MLOAD DUP1 SWAP2 SUB SWAP1 REVERT JUMPDEST PUSH1 0x0 PUSH20 0xFFFFFFFFFFFFFFFFFFFFFFFFFFFFFFFFFFFFFFFF AND DUP3 PUSH20 0xFFFFFFFFFFFFFFFFFFFFFFFFFFFFFFFFFFFFFFFF AND SUB PUSH2 0x1893 JUMPI PUSH1 0x40 MLOAD PUSH32 0x8C379A000000000000000000000000000000000000000000000000000000000 DUP2 MSTORE PUSH1 0x4 ADD PUSH2 0x188A SWAP1 PUSH2 0x3D0B JUMP JUMPDEST PUSH1 0x40 MLOAD DUP1 SWAP2 SUB SWAP1 REVERT JUMPDEST PUSH2 0x18A0 DUP4 DUP4 DUP4 PUSH1 0x1 PUSH2 0x1E2E JUMP JUMPDEST DUP3 PUSH20 0xFFFFFFFFFFFFFFFFFFFFFFFFFFFFFFFFFFFFFFFF AND PUSH2 0x18C0 DUP3 PUSH2 0x848 JUMP JUMPDEST PUSH20 0xFFFFFFFFFFFFFFFFFFFFFFFFFFFFFFFFFFFFFFFF AND EQ PUSH2 0x1916 JUMPI PUSH1 0x40 MLOAD PUSH32 0x8C379A000000000000000000000000000000000000000000000000000000000 DUP2 MSTORE PUSH1 0x4 ADD PUSH2 0x190D SWAP1 PUSH2 0x3C79 JUMP JUMPDEST PUSH1 0x40 MLOAD DUP1 SWAP2 SUB SWAP1 REVERT JUMPDEST PUSH1 0x4 PUSH1 0x0 DUP3 DUP2 MSTORE PUSH1 0x20 ADD SWAP1 DUP2 MSTORE PUSH1 0x20 ADD PUSH1 0x0 KECCAK256 PUSH1 0x0 PUSH2 0x100 EXP DUP2 SLOAD SWAP1 PUSH20 0xFFFFFFFFFFFFFFFFFFFFFFFFFFFFFFFFFFFFFFFF MUL NOT AND SWAP1 SSTORE PUSH1 0x1 PUSH1 0x3 PUSH1 0x0 DUP6 PUSH20 0xFFFFFFFFFFFFFFFFFFFFFFFFFFFFFFFFFFFFFFFF AND PUSH20 0xFFFFFFFFFFFFFFFFFFFFFFFFFFFFFFFFFFFFFFFF AND DUP2 MSTORE PUSH1 0x20 ADD SWAP1 DUP2 MSTORE PUSH1 0x20 ADD PUSH1 0x0 KECCAK256 PUSH1 0x0 DUP3 DUP3 SLOAD SUB SWAP3 POP POP DUP2 SWAP1 SSTORE POP PUSH1 0x1 PUSH1 0x3 PUSH1 0x0 DUP5 PUSH20 0xFFFFFFFFFFFFFFFFFFFFFFFFFFFFFFFFFFFFFFFF AND PUSH20 0xFFFFFFFFFFFFFFFFFFFFFFFFFFFFFFFFFFFFFFFF AND DUP2 MSTORE PUSH1 0x20 ADD SWAP1 DUP2 MSTORE PUSH1 0x20 ADD PUSH1 0x0 KECCAK256 PUSH1 0x0 DUP3 DUP3 SLOAD ADD SWAP3 POP POP DUP2 SWAP1 SSTORE POP DUP2 PUSH1 0x2 PUSH1 0x0 DUP4 DUP2 MSTORE PUSH1 0x20 ADD SWAP1 DUP2 MSTORE PUSH1 0x20 ADD PUSH1 0x0 KECCAK256 PUSH1 0x0 PUSH2 0x100 EXP DUP2 SLOAD DUP2 PUSH20 0xFFFFFFFFFFFFFFFFFFFFFFFFFFFFFFFFFFFFFFFF MUL NOT AND SWAP1 DUP4 PUSH20 0xFFFFFFFFFFFFFFFFFFFFFFFFFFFFFFFFFFFFFFFF AND MUL OR SWAP1 SSTORE POP DUP1 DUP3 PUSH20 0xFFFFFFFFFFFFFFFFFFFFFFFFFFFFFFFFFFFFFFFF AND DUP5 PUSH20 0xFFFFFFFFFFFFFFFFFFFFFFFFFFFFFFFFFFFFFFFF AND PUSH32 0xDDF252AD1BE2C89B69C2B068FC378DAA952BA7F163C4A11628F55A4DF523B3EF PUSH1 0x40 MLOAD PUSH1 0x40 MLOAD DUP1 SWAP2 SUB SWAP1 LOG4 PUSH2 0x1AA2 DUP4 DUP4 DUP4 PUSH1 0x1 PUSH2 0x1E40 JUMP JUMPDEST POP POP POP JUMP JUMPDEST DUP2 PUSH20 0xFFFFFFFFFFFFFFFFFFFFFFFFFFFFFFFFFFFFFFFF AND DUP4 PUSH20 0xFFFFFFFFFFFFFFFFFFFFFFFFFFFFFFFFFFFFFFFF AND SUB PUSH2 0x1B15 JUMPI PUSH1 0x40 MLOAD PUSH32 0x8C379A000000000000000000000000000000000000000000000000000000000 DUP2 MSTORE PUSH1 0x4 ADD PUSH2 0x1B0C SWAP1 PUSH2 0x3D77 JUMP JUMPDEST PUSH1 0x40 MLOAD DUP1 SWAP2 SUB SWAP1 REVERT JUMPDEST DUP1 PUSH1 0x5 PUSH1 0x0 DUP6 PUSH20 0xFFFFFFFFFFFFFFFFFFFFFFFFFFFFFFFFFFFFFFFF AND PUSH20 0xFFFFFFFFFFFFFFFFFFFFFFFFFFFFFFFFFFFFFFFF AND DUP2 MSTORE PUSH1 0x20 ADD SWAP1 DUP2 MSTORE PUSH1 0x20 ADD PUSH1 0x0 KECCAK256 PUSH1 0x0 DUP5 PUSH20 0xFFFFFFFFFFFFFFFFFFFFFFFFFFFFFFFFFFFFFFFF AND PUSH20 0xFFFFFFFFFFFFFFFFFFFFFFFFFFFFFFFFFFFFFFFF AND DUP2 MSTORE PUSH1 0x20 ADD SWAP1 DUP2 MSTORE PUSH1 0x20 ADD PUSH1 0x0 KECCAK256 PUSH1 0x0 PUSH2 0x100 EXP DUP2 SLOAD DUP2 PUSH1 0xFF MUL NOT AND SWAP1 DUP4 ISZERO ISZERO MUL OR SWAP1 SSTORE POP DUP2 PUSH20 0xFFFFFFFFFFFFFFFFFFFFFFFFFFFFFFFFFFFFFFFF AND DUP4 PUSH20 0xFFFFFFFFFFFFFFFFFFFFFFFFFFFFFFFFFFFFFFFF AND PUSH32 0x17307EAB39AB6107E8899845AD3D59BD9653F200F220920489CA2B5937696C31 DUP4 PUSH1 0x40 MLOAD PUSH2 0x1C06 SWAP2 SWAP1 PUSH2 0x2A6C JUMP JUMPDEST PUSH1 0x40 MLOAD DUP1 SWAP2 SUB SWAP1 LOG3 POP POP POP JUMP JUMPDEST PUSH2 0x1C1E DUP5 DUP5 DUP5 PUSH2 0x17AE JUMP JUMPDEST PUSH2 0x1C2A DUP5 DUP5 DUP5 DUP5 PUSH2 0x1E46 JUMP JUMPDEST PUSH2 0x1C69 JUMPI PUSH1 0x40 MLOAD PUSH32 0x8C379A000000000000000000000000000000000000000000000000000000000 DUP2 MSTORE PUSH1 0x4 ADD PUSH2 0x1C60 SWAP1 PUSH2 0x3E09 JUMP JUMPDEST PUSH1 0x40 MLOAD DUP1 SWAP2 SUB SWAP1 REVERT JUMPDEST POP POP POP POP JUMP JUMPDEST PUSH1 0x60 PUSH1 0xD DUP1 SLOAD PUSH2 0x1C7E SWAP1 PUSH2 0x3228 JUMP JUMPDEST DUP1 PUSH1 0x1F ADD PUSH1 0x20 DUP1 SWAP2 DIV MUL PUSH1 0x20 ADD PUSH1 0x40 MLOAD SWAP1 DUP2 ADD PUSH1 0x40 MSTORE DUP1 SWAP3 SWAP2 SWAP1 DUP2 DUP2 MSTORE PUSH1 0x20 ADD DUP3 DUP1 SLOAD PUSH2 0x1CAA SWAP1 PUSH2 0x3228 JUMP JUMPDEST DUP1 ISZERO PUSH2 0x1CF7 JUMPI DUP1 PUSH1 0x1F LT PUSH2 0x1CCC JUMPI PUSH2 0x100 DUP1 DUP4 SLOAD DIV MUL DUP4 MSTORE SWAP2 PUSH1 0x20 ADD SWAP2 PUSH2 0x1CF7 JUMP JUMPDEST DUP3 ADD SWAP2 SWAP1 PUSH1 0x0 MSTORE PUSH1 0x20 PUSH1 0x0 KECCAK256 SWAP1 JUMPDEST DUP2 SLOAD DUP2 MSTORE SWAP1 PUSH1 0x1 ADD SWAP1 PUSH1 0x20 ADD DUP1 DUP4 GT PUSH2 0x1CDA JUMPI DUP3 SWAP1 SUB PUSH1 0x1F AND DUP3 ADD SWAP2 JUMPDEST POP POP POP POP POP SWAP1 POP SWAP1 JUMP JUMPDEST PUSH1 0x60 PUSH2 0x1D0C DUP3 PUSH2 0xE0E JUMP JUMPDEST PUSH1 0x0 PUSH2 0x1D16 PUSH2 0x1C6F JUMP JUMPDEST SWAP1 POP PUSH1 0x0 DUP2 MLOAD GT PUSH2 0x1D36 JUMPI PUSH1 0x40 MLOAD DUP1 PUSH1 0x20 ADD PUSH1 0x40 MSTORE DUP1 PUSH1 0x0 DUP2 MSTORE POP PUSH2 0x1D61 JUMP JUMPDEST DUP1 PUSH2 0x1D40 DUP5 PUSH2 0x1FCD JUMP JUMPDEST PUSH1 0x40 MLOAD PUSH1 0x20 ADD PUSH2 0x1D51 SWAP3 SWAP2 SWAP1 PUSH2 0x3BE3 JUMP JUMPDEST PUSH1 0x40 MLOAD PUSH1 0x20 DUP2 DUP4 SUB SUB DUP2 MSTORE SWAP1 PUSH1 0x40 MSTORE JUMPDEST SWAP2 POP POP SWAP2 SWAP1 POP JUMP JUMPDEST PUSH2 0x1D73 DUP4 DUP4 PUSH2 0x209B JUMP JUMPDEST PUSH2 0x1D80 PUSH1 0x0 DUP5 DUP5 DUP5 PUSH2 0x1E46 JUMP JUMPDEST PUSH2 0x1DBF JUMPI PUSH1 0x40 MLOAD PUSH32 0x8C379A000000000000000000000000000000000000000000000000000000000 DUP2 MSTORE PUSH1 0x4 ADD PUSH2 0x1DB6 SWAP1 PUSH2 0x3E09 JUMP JUMPDEST PUSH1 0x40 MLOAD DUP1 SWAP2 SUB SWAP1 REVERT JUMPDEST POP POP POP JUMP JUMPDEST PUSH1 0x0 PUSH32 0x1FFC9A700000000000000000000000000000000000000000000000000000000 PUSH28 0xFFFFFFFFFFFFFFFFFFFFFFFFFFFFFFFFFFFFFFFFFFFFFFFFFFFFFFFF NOT AND DUP3 PUSH28 0xFFFFFFFFFFFFFFFFFFFFFFFFFFFFFFFFFFFFFFFFFFFFFFFFFFFFFFFF NOT AND EQ SWAP1 POP SWAP2 SWAP1 POP JUMP JUMPDEST PUSH2 0x1E3A DUP5 DUP5 DUP5 DUP5 PUSH2 0x22B8 JUMP JUMPDEST POP POP POP POP JUMP JUMPDEST POP POP POP POP JUMP JUMPDEST PUSH1 0x0 PUSH2 0x1E67 DUP5 PUSH20 0xFFFFFFFFFFFFFFFFFFFFFFFFFFFFFFFFFFFFFFFF AND PUSH2 0x2416 JUMP JUMPDEST ISZERO PUSH2 0x1FC0 JUMPI DUP4 PUSH20 0xFFFFFFFFFFFFFFFFFFFFFFFFFFFFFFFFFFFFFFFF AND PUSH4 0x150B7A02 PUSH2 0x1E90 PUSH2 0x1658 JUMP JUMPDEST DUP8 DUP7 DUP7 PUSH1 0x40 MLOAD DUP6 PUSH4 0xFFFFFFFF AND PUSH1 0xE0 SHL DUP2 MSTORE PUSH1 0x4 ADD PUSH2 0x1EB2 SWAP5 SWAP4 SWAP3 SWAP2 SWAP1 PUSH2 0x3E7E JUMP JUMPDEST PUSH1 0x20 PUSH1 0x40 MLOAD DUP1 DUP4 SUB DUP2 PUSH1 0x0 DUP8 GAS CALL SWAP3 POP POP POP DUP1 ISZERO PUSH2 0x1EEE JUMPI POP PUSH1 0x40 MLOAD RETURNDATASIZE PUSH1 0x1F NOT PUSH1 0x1F DUP3 ADD AND DUP3 ADD DUP1 PUSH1 0x40 MSTORE POP DUP2 ADD SWAP1 PUSH2 0x1EEB SWAP2 SWAP1 PUSH2 0x3EDF JUMP JUMPDEST PUSH1 0x1 JUMPDEST PUSH2 0x1F70 JUMPI RETURNDATASIZE DUP1 PUSH1 0x0 DUP2 EQ PUSH2 0x1F1E JUMPI PUSH1 0x40 MLOAD SWAP2 POP PUSH1 0x1F NOT PUSH1 0x3F RETURNDATASIZE ADD AND DUP3 ADD PUSH1 0x40 MSTORE RETURNDATASIZE DUP3 MSTORE RETURNDATASIZE PUSH1 0x0 PUSH1 0x20 DUP5 ADD RETURNDATACOPY PUSH2 0x1F23 JUMP JUMPDEST PUSH1 0x60 SWAP2 POP JUMPDEST POP PUSH1 0x0 DUP2 MLOAD SUB PUSH2 0x1F68 JUMPI PUSH1 0x40 MLOAD PUSH32 0x8C379A000000000000000000000000000000000000000000000000000000000 DUP2 MSTORE PUSH1 0x4 ADD PUSH2 0x1F5F SWAP1 PUSH2 0x3E09 JUMP JUMPDEST PUSH1 0x40 MLOAD DUP1 SWAP2 SUB SWAP1 REVERT JUMPDEST DUP1 MLOAD DUP2 PUSH1 0x20 ADD REVERT JUMPDEST PUSH4 0x150B7A02 PUSH1 0xE0 SHL PUSH28 0xFFFFFFFFFFFFFFFFFFFFFFFFFFFFFFFFFFFFFFFFFFFFFFFFFFFFFFFF NOT AND DUP2 PUSH28 0xFFFFFFFFFFFFFFFFFFFFFFFFFFFFFFFFFFFFFFFFFFFFFFFFFFFFFFFF NOT AND EQ SWAP2 POP POP PUSH2 0x1FC5 JUMP JUMPDEST PUSH1 0x1 SWAP1 POP JUMPDEST SWAP5 SWAP4 POP POP POP POP JUMP JUMPDEST PUSH1 0x60 PUSH1 0x0 PUSH1 0x1 PUSH2 0x1FDC DUP5 PUSH2 0x2439 JUMP JUMPDEST ADD SWAP1 POP PUSH1 0x0 DUP2 PUSH8 0xFFFFFFFFFFFFFFFF DUP2 GT ISZERO PUSH2 0x1FFB JUMPI PUSH2 0x1FFA PUSH2 0x2C6E JUMP JUMPDEST JUMPDEST PUSH1 0x40 MLOAD SWAP1 DUP1 DUP3 MSTORE DUP1 PUSH1 0x1F ADD PUSH1 0x1F NOT AND PUSH1 0x20 ADD DUP3 ADD PUSH1 0x40 MSTORE DUP1 ISZERO PUSH2 0x202D JUMPI DUP2 PUSH1 0x20 ADD PUSH1 0x1 DUP3 MUL DUP1 CALLDATASIZE DUP4 CALLDATACOPY DUP1 DUP3 ADD SWAP2 POP POP SWAP1 POP JUMPDEST POP SWAP1 POP PUSH1 0x0 DUP3 PUSH1 0x20 ADD DUP3 ADD SWAP1 POP JUMPDEST PUSH1 0x1 ISZERO PUSH2 0x2090 JUMPI DUP1 DUP1 PUSH1 0x1 SWAP1 SUB SWAP2 POP POP PUSH32 0x3031323334353637383961626364656600000000000000000000000000000000 PUSH1 0xA DUP7 MOD BYTE DUP2 MSTORE8 PUSH1 0xA DUP6 DUP2 PUSH2 0x2084 JUMPI PUSH2 0x2083 PUSH2 0x3F0C JUMP JUMPDEST JUMPDEST DIV SWAP5 POP PUSH1 0x0 DUP6 SUB PUSH2 0x203B JUMPI JUMPDEST DUP2 SWAP4 POP POP POP POP SWAP2 SWAP1 POP JUMP JUMPDEST PUSH1 0x0 PUSH20 0xFFFFFFFFFFFFFFFFFFFFFFFFFFFFFFFFFFFFFFFF AND DUP3 PUSH20 0xFFFFFFFFFFFFFFFFFFFFFFFFFFFFFFFFFFFFFFFF AND SUB PUSH2 0x210A JUMPI PUSH1 0x40 MLOAD PUSH32 0x8C379A000000000000000000000000000000000000000000000000000000000 DUP2 MSTORE PUSH1 0x4 ADD PUSH2 0x2101 SWAP1 PUSH2 0x3F87 JUMP JUMPDEST PUSH1 0x40 MLOAD DUP1 SWAP2 SUB SWAP1 REVERT JUMPDEST PUSH2 0x2113 DUP2 PUSH2 0x1617 JUMP JUMPDEST ISZERO PUSH2 0x2153 JUMPI PUSH1 0x40 MLOAD PUSH32 0x8C379A000000000000000000000000000000000000000000000000000000000 DUP2 MSTORE PUSH1 0x4 ADD PUSH2 0x214A SWAP1 PUSH2 0x3FF3 JUMP JUMPDEST PUSH1 0x40 MLOAD DUP1 SWAP2 SUB SWAP1 REVERT JUMPDEST PUSH2 0x2161 PUSH1 0x0 DUP4 DUP4 PUSH1 0x1 PUSH2 0x1E2E JUMP JUMPDEST PUSH2 0x216A DUP2 PUSH2 0x1617 JUMP JUMPDEST ISZERO PUSH2 0x21AA JUMPI PUSH1 0x40 MLOAD PUSH32 0x8C379A000000000000000000000000000000000000000000000000000000000 DUP2 MSTORE PUSH1 0x4 ADD PUSH2 0x21A1 SWAP1 PUSH2 0x3FF3 JUMP JUMPDEST PUSH1 0x40 MLOAD DUP1 SWAP2 SUB SWAP1 REVERT JUMPDEST PUSH1 0x1 PUSH1 0x3 PUSH1 0x0 DUP5 PUSH20 0xFFFFFFFFFFFFFFFFFFFFFFFFFFFFFFFFFFFFFFFF AND PUSH20 0xFFFFFFFFFFFFFFFFFFFFFFFFFFFFFFFFFFFFFFFF AND DUP2 MSTORE PUSH1 0x20 ADD SWAP1 DUP2 MSTORE PUSH1 0x20 ADD PUSH1 0x0 KECCAK256 PUSH1 0x0 DUP3 DUP3 SLOAD ADD SWAP3 POP POP DUP2 SWAP1 SSTORE POP DUP2 PUSH1 0x2 PUSH1 0x0 DUP4 DUP2 MSTORE PUSH1 0x20 ADD SWAP1 DUP2 MSTORE PUSH1 0x20 ADD PUSH1 0x0 KECCAK256 PUSH1 0x0 PUSH2 0x100 EXP DUP2 SLOAD DUP2 PUSH20 0xFFFFFFFFFFFFFFFFFFFFFFFFFFFFFFFFFFFFFFFF MUL NOT AND SWAP1 DUP4 PUSH20 0xFFFFFFFFFFFFFFFFFFFFFFFFFFFFFFFFFFFFFFFF AND MUL OR SWAP1 SSTORE POP DUP1 DUP3 PUSH20 0xFFFFFFFFFFFFFFFFFFFFFFFFFFFFFFFFFFFFFFFF AND PUSH1 0x0 PUSH20 0xFFFFFFFFFFFFFFFFFFFFFFFFFFFFFFFFFFFFFFFF AND PUSH32 0xDDF252AD1BE2C89B69C2B068FC378DAA952BA7F163C4A11628F55A4DF523B3EF PUSH1 0x40 MLOAD PUSH1 0x40 MLOAD DUP1 SWAP2 SUB SWAP1 LOG4 PUSH2 0x22B4 PUSH1 0x0 DUP4 DUP4 PUSH1 0x1 PUSH2 0x1E40 JUMP JUMPDEST POP POP JUMP JUMPDEST PUSH2 0x22C4 DUP5 DUP5 DUP5 DUP5 PUSH2 0x258C JUMP JUMPDEST PUSH1 0x1 DUP2 GT ISZERO PUSH2 0x2308 JUMPI PUSH1 0x40 MLOAD PUSH32 0x8C379A000000000000000000000000000000000000000000000000000000000 DUP2 MSTORE PUSH1 0x4 ADD PUSH2 0x22FF SWAP1 PUSH2 0x4085 JUMP JUMPDEST PUSH1 0x40 MLOAD DUP1 SWAP2 SUB SWAP1 REVERT JUMPDEST PUSH1 0x0 DUP3 SWAP1 POP PUSH1 0x0 PUSH20 0xFFFFFFFFFFFFFFFFFFFFFFFFFFFFFFFFFFFFFFFF AND DUP6 PUSH20 0xFFFFFFFFFFFFFFFFFFFFFFFFFFFFFFFFFFFFFFFF AND SUB PUSH2 0x234F JUMPI PUSH2 0x234A DUP2 PUSH2 0x26B2 JUMP JUMPDEST PUSH2 0x238E JUMP JUMPDEST DUP4 PUSH20 0xFFFFFFFFFFFFFFFFFFFFFFFFFFFFFFFFFFFFFFFF AND DUP6 PUSH20 0xFFFFFFFFFFFFFFFFFFFFFFFFFFFFFFFFFFFFFFFF AND EQ PUSH2 0x238D JUMPI PUSH2 0x238C DUP6 DUP3 PUSH2 0x26FB JUMP JUMPDEST JUMPDEST JUMPDEST PUSH1 0x0 PUSH20 0xFFFFFFFFFFFFFFFFFFFFFFFFFFFFFFFFFFFFFFFF AND DUP5 PUSH20 0xFFFFFFFFFFFFFFFFFFFFFFFFFFFFFFFFFFFFFFFF AND SUB PUSH2 0x23D0 JUMPI PUSH2 0x23CB DUP2 PUSH2 0x2868 JUMP JUMPDEST PUSH2 0x240F JUMP JUMPDEST DUP5 PUSH20 0xFFFFFFFFFFFFFFFFFFFFFFFFFFFFFFFFFFFFFFFF AND DUP5 PUSH20 0xFFFFFFFFFFFFFFFFFFFFFFFFFFFFFFFFFFFFFFFF AND EQ PUSH2 0x240E JUMPI PUSH2 0x240D DUP5 DUP3 PUSH2 0x2939 JUMP JUMPDEST JUMPDEST JUMPDEST POP POP POP POP POP JUMP JUMPDEST PUSH1 0x0 DUP1 DUP3 PUSH20 0xFFFFFFFFFFFFFFFFFFFFFFFFFFFFFFFFFFFFFFFF AND EXTCODESIZE GT SWAP1 POP SWAP2 SWAP1 POP JUMP JUMPDEST PUSH1 0x0 DUP1 PUSH1 0x0 SWAP1 POP PUSH27 0x184F03E93FF9F4DAA797ED6E38ED64BF6A1F010000000000000000 DUP4 LT PUSH2 0x2497 JUMPI PUSH27 0x184F03E93FF9F4DAA797ED6E38ED64BF6A1F010000000000000000 DUP4 DUP2 PUSH2 0x248D JUMPI PUSH2 0x248C PUSH2 0x3F0C JUMP JUMPDEST JUMPDEST DIV SWAP3 POP PUSH1 0x40 DUP2 ADD SWAP1 POP JUMPDEST PUSH14 0x4EE2D6D415B85ACEF8100000000 DUP4 LT PUSH2 0x24D4 JUMPI PUSH14 0x4EE2D6D415B85ACEF8100000000 DUP4 DUP2 PUSH2 0x24CA JUMPI PUSH2 0x24C9 PUSH2 0x3F0C JUMP JUMPDEST JUMPDEST DIV SWAP3 POP PUSH1 0x20 DUP2 ADD SWAP1 POP JUMPDEST PUSH7 0x2386F26FC10000 DUP4 LT PUSH2 0x2503 JUMPI PUSH7 0x2386F26FC10000 DUP4 DUP2 PUSH2 0x24F9 JUMPI PUSH2 0x24F8 PUSH2 0x3F0C JUMP JUMPDEST JUMPDEST DIV SWAP3 POP PUSH1 0x10 DUP2 ADD SWAP1 POP JUMPDEST PUSH4 0x5F5E100 DUP4 LT PUSH2 0x252C JUMPI PUSH4 0x5F5E100 DUP4 DUP2 PUSH2 0x2522 JUMPI PUSH2 0x2521 PUSH2 0x3F0C JUMP JUMPDEST JUMPDEST DIV SWAP3 POP PUSH1 0x8 DUP2 ADD SWAP1 POP JUMPDEST PUSH2 0x2710 DUP4 LT PUSH2 0x2551 JUMPI PUSH2 0x2710 DUP4 DUP2 PUSH2 0x2547 JUMPI PUSH2 0x2546 PUSH2 0x3F0C JUMP JUMPDEST JUMPDEST DIV SWAP3 POP PUSH1 0x4 DUP2 ADD SWAP1 POP JUMPDEST PUSH1 0x64 DUP4 LT PUSH2 0x2574 JUMPI PUSH1 0x64 DUP4 DUP2 PUSH2 0x256A JUMPI PUSH2 0x2569 PUSH2 0x3F0C JUMP JUMPDEST JUMPDEST DIV SWAP3 POP PUSH1 0x2 DUP2 ADD SWAP1 POP JUMPDEST PUSH1 0xA DUP4 LT PUSH2 0x2583 JUMPI PUSH1 0x1 DUP2 ADD SWAP1 POP JUMPDEST DUP1 SWAP2 POP POP SWAP2 SWAP1 POP JUMP JUMPDEST PUSH1 0x1 DUP2 GT ISZERO PUSH2 0x26AC JUMPI PUSH1 0x0 PUSH20 0xFFFFFFFFFFFFFFFFFFFFFFFFFFFFFFFFFFFFFFFF AND DUP5 PUSH20 0xFFFFFFFFFFFFFFFFFFFFFFFFFFFFFFFFFFFFFFFF AND EQ PUSH2 0x2620 JUMPI DUP1 PUSH1 0x3 PUSH1 0x0 DUP7 PUSH20 0xFFFFFFFFFFFFFFFFFFFFFFFFFFFFFFFFFFFFFFFF AND PUSH20 0xFFFFFFFFFFFFFFFFFFFFFFFFFFFFFFFFFFFFFFFF AND DUP2 MSTORE PUSH1 0x20 ADD SWAP1 DUP2 MSTORE PUSH1 0x20 ADD PUSH1 0x0 KECCAK256 PUSH1 0x0 DUP3 DUP3 SLOAD PUSH2 0x2618 SWAP2 SWAP1 PUSH2 0x40D4 JUMP JUMPDEST SWAP3 POP POP DUP2 SWAP1 SSTORE POP JUMPDEST PUSH1 0x0 PUSH20 0xFFFFFFFFFFFFFFFFFFFFFFFFFFFFFFFFFFFFFFFF AND DUP4 PUSH20 0xFFFFFFFFFFFFFFFFFFFFFFFFFFFFFFFFFFFFFFFF AND EQ PUSH2 0x26AB JUMPI DUP1 PUSH1 0x3 PUSH1 0x0 DUP6 PUSH20 0xFFFFFFFFFFFFFFFFFFFFFFFFFFFFFFFFFFFFFFFF AND PUSH20 0xFFFFFFFFFFFFFFFFFFFFFFFFFFFFFFFFFFFFFFFF AND DUP2 MSTORE PUSH1 0x20 ADD SWAP1 DUP2 MSTORE PUSH1 0x20 ADD PUSH1 0x0 KECCAK256 PUSH1 0x0 DUP3 DUP3 SLOAD PUSH2 0x26A3 SWAP2 SWAP1 PUSH2 0x4108 JUMP JUMPDEST SWAP3 POP POP DUP2 SWAP1 SSTORE POP JUMPDEST JUMPDEST POP POP POP POP JUMP JUMPDEST PUSH1 0x8 DUP1 SLOAD SWAP1 POP PUSH1 0x9 PUSH1 0x0 DUP4 DUP2 MSTORE PUSH1 0x20 ADD SWAP1 DUP2 MSTORE PUSH1 0x20 ADD PUSH1 0x0 KECCAK256 DUP2 SWAP1 SSTORE POP PUSH1 0x8 DUP2 SWAP1 DUP1 PUSH1 0x1 DUP2 SLOAD ADD DUP1 DUP3 SSTORE DUP1 SWAP2 POP POP PUSH1 0x1 SWAP1 SUB SWAP1 PUSH1 0x0 MSTORE PUSH1 0x20 PUSH1 0x0 KECCAK256 ADD PUSH1 0x0 SWAP1 SWAP2 SWAP1 SWAP2 SWAP1 SWAP2 POP SSTORE POP JUMP JUMPDEST PUSH1 0x0 PUSH1 0x1 PUSH2 0x2708 DUP5 PUSH2 0x8CE JUMP JUMPDEST PUSH2 0x2712 SWAP2 SWAP1 PUSH2 0x40D4 JUMP JUMPDEST SWAP1 POP PUSH1 0x0 PUSH1 0x7 PUSH1 0x0 DUP5 DUP2 MSTORE PUSH1 0x20 ADD SWAP1 DUP2 MSTORE PUSH1 0x20 ADD PUSH1 0x0 KECCAK256 SLOAD SWAP1 POP DUP2 DUP2 EQ PUSH2 0x27F7 JUMPI PUSH1 0x0 PUSH1 0x6 PUSH1 0x0 DUP7 PUSH20 0xFFFFFFFFFFFFFFFFFFFFFFFFFFFFFFFFFFFFFFFF AND PUSH20 0xFFFFFFFFFFFFFFFFFFFFFFFFFFFFFFFFFFFFFFFF AND DUP2 MSTORE PUSH1 0x20 ADD SWAP1 DUP2 MSTORE PUSH1 0x20 ADD PUSH1 0x0 KECCAK256 PUSH1 0x0 DUP5 DUP2 MSTORE PUSH1 0x20 ADD SWAP1 DUP2 MSTORE PUSH1 0x20 ADD PUSH1 0x0 KECCAK256 SLOAD SWAP1 POP DUP1 PUSH1 0x6 PUSH1 0x0 DUP8 PUSH20 0xFFFFFFFFFFFFFFFFFFFFFFFFFFFFFFFFFFFFFFFF AND PUSH20 0xFFFFFFFFFFFFFFFFFFFFFFFFFFFFFFFFFFFFFFFF AND DUP2 MSTORE PUSH1 0x20 ADD SWAP1 DUP2 MSTORE PUSH1 0x20 ADD PUSH1 0x0 KECCAK256 PUSH1 0x0 DUP5 DUP2 MSTORE PUSH1 0x20 ADD SWAP1 DUP2 MSTORE PUSH1 0x20 ADD PUSH1 0x0 KECCAK256 DUP2 SWAP1 SSTORE POP DUP2 PUSH1 0x7 PUSH1 0x0 DUP4 DUP2 MSTORE PUSH1 0x20 ADD SWAP1 DUP2 MSTORE PUSH1 0x20 ADD PUSH1 0x0 KECCAK256 DUP2 SWAP1 SSTORE POP POP JUMPDEST PUSH1 0x7 PUSH1 0x0 DUP5 DUP2 MSTORE PUSH1 0x20 ADD SWAP1 DUP2 MSTORE PUSH1 0x20 ADD PUSH1 0x0 KECCAK256 PUSH1 0x0 SWAP1 SSTORE PUSH1 0x6 PUSH1 0x0 DUP6 PUSH20 0xFFFFFFFFFFFFFFFFFFFFFFFFFFFFFFFFFFFFFFFF AND PUSH20 0xFFFFFFFFFFFFFFFFFFFFFFFFFFFFFFFFFFFFFFFF AND DUP2 MSTORE PUSH1 0x20 ADD SWAP1 DUP2 MSTORE PUSH1 0x20 ADD PUSH1 0x0 KECCAK256 PUSH1 0x0 DUP4 DUP2 MSTORE PUSH1 0x20 ADD SWAP1 DUP2 MSTORE PUSH1 0x20 ADD PUSH1 0x0 KECCAK256 PUSH1 0x0 SWAP1 SSTORE POP POP POP POP JUMP JUMPDEST PUSH1 0x0 PUSH1 0x1 PUSH1 0x8 DUP1 SLOAD SWAP1 POP PUSH2 0x287C SWAP2 SWAP1 PUSH2 0x40D4 JUMP JUMPDEST SWAP1 POP PUSH1 0x0 PUSH1 0x9 PUSH1 0x0 DUP5 DUP2 MSTORE PUSH1 0x20 ADD SWAP1 DUP2 MSTORE PUSH1 0x20 ADD PUSH1 0x0 KECCAK256 SLOAD SWAP1 POP PUSH1 0x0 PUSH1 0x8 DUP4 DUP2 SLOAD DUP2 LT PUSH2 0x28AC JUMPI PUSH2 0x28AB PUSH2 0x35F1 JUMP JUMPDEST JUMPDEST SWAP1 PUSH1 0x0 MSTORE PUSH1 0x20 PUSH1 0x0 KECCAK256 ADD SLOAD SWAP1 POP DUP1 PUSH1 0x8 DUP4 DUP2 SLOAD DUP2 LT PUSH2 0x28CE JUMPI PUSH2 0x28CD PUSH2 0x35F1 JUMP JUMPDEST JUMPDEST SWAP1 PUSH1 0x0 MSTORE PUSH1 0x20 PUSH1 0x0 KECCAK256 ADD DUP2 SWAP1 SSTORE POP DUP2 PUSH1 0x9 PUSH1 0x0 DUP4 DUP2 MSTORE PUSH1 0x20 ADD SWAP1 DUP2 MSTORE PUSH1 0x20 ADD PUSH1 0x0 KECCAK256 DUP2 SWAP1 SSTORE POP PUSH1 0x9 PUSH1 0x0 DUP6 DUP2 MSTORE PUSH1 0x20 ADD SWAP1 DUP2 MSTORE PUSH1 0x20 ADD PUSH1 0x0 KECCAK256 PUSH1 0x0 SWAP1 SSTORE PUSH1 0x8 DUP1 SLOAD DUP1 PUSH2 0x291D JUMPI PUSH2 0x291C PUSH2 0x413C JUMP JUMPDEST JUMPDEST PUSH1 0x1 SWAP1 SUB DUP2 DUP2 SWAP1 PUSH1 0x0 MSTORE PUSH1 0x20 PUSH1 0x0 KECCAK256 ADD PUSH1 0x0 SWAP1 SSTORE SWAP1 SSTORE POP POP POP POP JUMP JUMPDEST PUSH1 0x0 PUSH2 0x2944 DUP4 PUSH2 0x8CE JUMP JUMPDEST SWAP1 POP DUP2 PUSH1 0x6 PUSH1 0x0 DUP6 PUSH20 0xFFFFFFFFFFFFFFFFFFFFFFFFFFFFFFFFFFFFFFFF AND PUSH20 0xFFFFFFFFFFFFFFFFFFFFFFFFFFFFFFFFFFFFFFFF AND DUP2 MSTORE PUSH1 0x20 ADD SWAP1 DUP2 MSTORE PUSH1 0x20 ADD PUSH1 0x0 KECCAK256 PUSH1 0x0 DUP4 DUP2 MSTORE PUSH1 0x20 ADD SWAP1 DUP2 MSTORE PUSH1 0x20 ADD PUSH1 0x0 KECCAK256 DUP2 SWAP1 SSTORE POP DUP1 PUSH1 0x7 PUSH1 0x0 DUP5 DUP2 MSTORE PUSH1 0x20 ADD SWAP1 DUP2 MSTORE PUSH1 0x20 ADD PUSH1 0x0 KECCAK256 DUP2 SWAP1 SSTORE POP POP POP POP JUMP JUMPDEST PUSH1 0x0 PUSH1 0x40 MLOAD SWAP1 POP SWAP1 JUMP JUMPDEST PUSH1 0x0 DUP1 REVERT JUMPDEST PUSH1 0x0 DUP1 REVERT JUMPDEST PUSH1 0x0 PUSH32 0xFFFFFFFF00000000000000000000000000000000000000000000000000000000 DUP3 AND SWAP1 POP SWAP2 SWAP1 POP JUMP JUMPDEST PUSH2 0x2A01 DUP2 PUSH2 0x29CC JUMP JUMPDEST DUP2 EQ PUSH2 0x2A0C JUMPI PUSH1 0x0 DUP1 REVERT JUMPDEST POP JUMP JUMPDEST PUSH1 0x0 DUP2 CALLDATALOAD SWAP1 POP PUSH2 0x2A1E DUP2 PUSH2 0x29F8 JUMP JUMPDEST SWAP3 SWAP2 POP POP JUMP JUMPDEST PUSH1 0x0 PUSH1 0x20 DUP3 DUP5 SUB SLT ISZERO PUSH2 0x2A3A JUMPI PUSH2 0x2A39 PUSH2 0x29C2 JUMP JUMPDEST JUMPDEST PUSH1 0x0 PUSH2 0x2A48 DUP5 DUP3 DUP6 ADD PUSH2 0x2A0F JUMP JUMPDEST SWAP2 POP POP SWAP3 SWAP2 POP POP JUMP JUMPDEST PUSH1 0x0 DUP2 ISZERO ISZERO SWAP1 POP SWAP2 SWAP1 POP JUMP JUMPDEST PUSH2 0x2A66 DUP2 PUSH2 0x2A51 JUMP JUMPDEST DUP3 MSTORE POP POP JUMP JUMPDEST PUSH1 0x0 PUSH1 0x20 DUP3 ADD SWAP1 POP PUSH2 0x2A81 PUSH1 0x0 DUP4 ADD DUP5 PUSH2 0x2A5D JUMP JUMPDEST SWAP3 SWAP2 POP POP JUMP JUMPDEST PUSH1 0x0 DUP2 MLOAD SWAP1 POP SWAP2 SWAP1 POP JUMP JUMPDEST PUSH1 0x0 DUP3 DUP3 MSTORE PUSH1 0x20 DUP3 ADD SWAP1 POP SWAP3 SWAP2 POP POP JUMP JUMPDEST PUSH1 0x0 JUMPDEST DUP4 DUP2 LT ISZERO PUSH2 0x2AC1 JUMPI DUP1 DUP3 ADD MLOAD DUP2 DUP5 ADD MSTORE PUSH1 0x20 DUP2 ADD SWAP1 POP PUSH2 0x2AA6 JUMP JUMPDEST PUSH1 0x0 DUP5 DUP5 ADD MSTORE POP POP POP POP JUMP JUMPDEST PUSH1 0x0 PUSH1 0x1F NOT PUSH1 0x1F DUP4 ADD AND SWAP1 POP SWAP2 SWAP1 POP JUMP JUMPDEST PUSH1 0x0 PUSH2 0x2AE9 DUP3 PUSH2 0x2A87 JUMP JUMPDEST PUSH2 0x2AF3 DUP2 DUP6 PUSH2 0x2A92 JUMP JUMPDEST SWAP4 POP PUSH2 0x2B03 DUP2 DUP6 PUSH1 0x20 DUP7 ADD PUSH2 0x2AA3 JUMP JUMPDEST PUSH2 0x2B0C DUP2 PUSH2 0x2ACD JUMP JUMPDEST DUP5 ADD SWAP2 POP POP SWAP3 SWAP2 POP POP JUMP JUMPDEST PUSH1 0x0 PUSH1 0x20 DUP3 ADD SWAP1 POP DUP2 DUP2 SUB PUSH1 0x0 DUP4 ADD MSTORE PUSH2 0x2B31 DUP2 DUP5 PUSH2 0x2ADE JUMP JUMPDEST SWAP1 POP SWAP3 SWAP2 POP POP JUMP JUMPDEST PUSH1 0x0 DUP2 SWAP1 POP SWAP2 SWAP1 POP JUMP JUMPDEST PUSH2 0x2B4C DUP2 PUSH2 0x2B39 JUMP JUMPDEST DUP2 EQ PUSH2 0x2B57 JUMPI PUSH1 0x0 DUP1 REVERT JUMPDEST POP JUMP JUMPDEST PUSH1 0x0 DUP2 CALLDATALOAD SWAP1 POP PUSH2 0x2B69 DUP2 PUSH2 0x2B43 JUMP JUMPDEST SWAP3 SWAP2 POP POP JUMP JUMPDEST PUSH1 0x0 PUSH1 0x20 DUP3 DUP5 SUB SLT ISZERO PUSH2 0x2B85 JUMPI PUSH2 0x2B84 PUSH2 0x29C2 JUMP JUMPDEST JUMPDEST PUSH1 0x0 PUSH2 0x2B93 DUP5 DUP3 DUP6 ADD PUSH2 0x2B5A JUMP JUMPDEST SWAP2 POP POP SWAP3 SWAP2 POP POP JUMP JUMPDEST PUSH1 0x0 PUSH20 0xFFFFFFFFFFFFFFFFFFFFFFFFFFFFFFFFFFFFFFFF DUP3 AND SWAP1 POP SWAP2 SWAP1 POP JUMP JUMPDEST PUSH1 0x0 PUSH2 0x2BC7 DUP3 PUSH2 0x2B9C JUMP JUMPDEST SWAP1 POP SWAP2 SWAP1 POP JUMP JUMPDEST PUSH2 0x2BD7 DUP2 PUSH2 0x2BBC JUMP JUMPDEST DUP3 MSTORE POP POP JUMP JUMPDEST PUSH1 0x0 PUSH1 0x20 DUP3 ADD SWAP1 POP PUSH2 0x2BF2 PUSH1 0x0 DUP4 ADD DUP5 PUSH2 0x2BCE JUMP JUMPDEST SWAP3 SWAP2 POP POP JUMP JUMPDEST PUSH2 0x2C01 DUP2 PUSH2 0x2BBC JUMP JUMPDEST DUP2 EQ PUSH2 0x2C0C JUMPI PUSH1 0x0 DUP1 REVERT JUMPDEST POP JUMP JUMPDEST PUSH1 0x0 DUP2 CALLDATALOAD SWAP1 POP PUSH2 0x2C1E DUP2 PUSH2 0x2BF8 JUMP JUMPDEST SWAP3 SWAP2 POP POP JUMP JUMPDEST PUSH1 0x0 DUP1 PUSH1 0x40 DUP4 DUP6 SUB SLT ISZERO PUSH2 0x2C3B JUMPI PUSH2 0x2C3A PUSH2 0x29C2 JUMP JUMPDEST JUMPDEST PUSH1 0x0 PUSH2 0x2C49 DUP6 DUP3 DUP7 ADD PUSH2 0x2C0F JUMP JUMPDEST SWAP3 POP POP PUSH1 0x20 PUSH2 0x2C5A DUP6 DUP3 DUP7 ADD PUSH2 0x2B5A JUMP JUMPDEST SWAP2 POP POP SWAP3 POP SWAP3 SWAP1 POP JUMP JUMPDEST PUSH1 0x0 DUP1 REVERT JUMPDEST PUSH1 0x0 DUP1 REVERT JUMPDEST PUSH32 0x4E487B7100000000000000000000000000000000000000000000000000000000 PUSH1 0x0 MSTORE PUSH1 0x41 PUSH1 0x4 MSTORE PUSH1 0x24 PUSH1 0x0 REVERT JUMPDEST PUSH2 0x2CA6 DUP3 PUSH2 0x2ACD JUMP JUMPDEST DUP2 ADD DUP2 DUP2 LT PUSH8 0xFFFFFFFFFFFFFFFF DUP3 GT OR ISZERO PUSH2 0x2CC5 JUMPI PUSH2 0x2CC4 PUSH2 0x2C6E JUMP JUMPDEST JUMPDEST DUP1 PUSH1 0x40 MSTORE POP POP POP JUMP JUMPDEST PUSH1 0x0 PUSH2 0x2CD8 PUSH2 0x29B8 JUMP JUMPDEST SWAP1 POP PUSH2 0x2CE4 DUP3 DUP3 PUSH2 0x2C9D JUMP JUMPDEST SWAP2 SWAP1 POP JUMP JUMPDEST PUSH1 0x0 PUSH8 0xFFFFFFFFFFFFFFFF DUP3 GT ISZERO PUSH2 0x2D04 JUMPI PUSH2 0x2D03 PUSH2 0x2C6E JUMP JUMPDEST JUMPDEST PUSH2 0x2D0D DUP3 PUSH2 0x2ACD JUMP JUMPDEST SWAP1 POP PUSH1 0x20 DUP2 ADD SWAP1 POP SWAP2 SWAP1 POP JUMP JUMPDEST DUP3 DUP2 DUP4 CALLDATACOPY PUSH1 0x0 DUP4 DUP4 ADD MSTORE POP POP POP JUMP JUMPDEST PUSH1 0x0 PUSH2 0x2D3C PUSH2 0x2D37 DUP5 PUSH2 0x2CE9 JUMP JUMPDEST PUSH2 0x2CCE JUMP JUMPDEST SWAP1 POP DUP3 DUP2 MSTORE PUSH1 0x20 DUP2 ADD DUP5 DUP5 DUP5 ADD GT ISZERO PUSH2 0x2D58 JUMPI PUSH2 0x2D57 PUSH2 0x2C69 JUMP JUMPDEST JUMPDEST PUSH2 0x2D63 DUP5 DUP3 DUP6 PUSH2 0x2D1A JUMP JUMPDEST POP SWAP4 SWAP3 POP POP POP JUMP JUMPDEST PUSH1 0x0 DUP3 PUSH1 0x1F DUP4 ADD SLT PUSH2 0x2D80 JUMPI PUSH2 0x2D7F PUSH2 0x2C64 JUMP JUMPDEST JUMPDEST DUP2 CALLDATALOAD PUSH2 0x2D90 DUP5 DUP3 PUSH1 0x20 DUP7 ADD PUSH2 0x2D29 JUMP JUMPDEST SWAP2 POP POP SWAP3 SWAP2 POP POP JUMP JUMPDEST PUSH1 0x0 DUP1 PUSH1 0x40 DUP4 DUP6 SUB SLT ISZERO PUSH2 0x2DB0 JUMPI PUSH2 0x2DAF PUSH2 0x29C2 JUMP JUMPDEST JUMPDEST PUSH1 0x0 PUSH2 0x2DBE DUP6 DUP3 DUP7 ADD PUSH2 0x2B5A JUMP JUMPDEST SWAP3 POP POP PUSH1 0x20 DUP4 ADD CALLDATALOAD PUSH8 0xFFFFFFFFFFFFFFFF DUP2 GT ISZERO PUSH2 0x2DDF JUMPI PUSH2 0x2DDE PUSH2 0x29C7 JUMP JUMPDEST JUMPDEST PUSH2 0x2DEB DUP6 DUP3 DUP7 ADD PUSH2 0x2D6B JUMP JUMPDEST SWAP2 POP POP SWAP3 POP SWAP3 SWAP1 POP JUMP JUMPDEST PUSH2 0x2DFE DUP2 PUSH2 0x2B39 JUMP JUMPDEST DUP3 MSTORE POP POP JUMP JUMPDEST PUSH1 0x0 PUSH1 0x20 DUP3 ADD SWAP1 POP PUSH2 0x2E19 PUSH1 0x0 DUP4 ADD DUP5 PUSH2 0x2DF5 JUMP JUMPDEST SWAP3 SWAP2 POP POP JUMP JUMPDEST PUSH1 0x0 DUP1 PUSH1 0x0 PUSH1 0x60 DUP5 DUP7 SUB SLT ISZERO PUSH2 0x2E38 JUMPI PUSH2 0x2E37 PUSH2 0x29C2 JUMP JUMPDEST JUMPDEST PUSH1 0x0 PUSH2 0x2E46 DUP7 DUP3 DUP8 ADD PUSH2 0x2C0F JUMP JUMPDEST SWAP4 POP POP PUSH1 0x20 PUSH2 0x2E57 DUP7 DUP3 DUP8 ADD PUSH2 0x2C0F JUMP JUMPDEST SWAP3 POP POP PUSH1 0x40 PUSH2 0x2E68 DUP7 DUP3 DUP8 ADD PUSH2 0x2B5A JUMP JUMPDEST SWAP2 POP POP SWAP3 POP SWAP3 POP SWAP3 JUMP JUMPDEST PUSH1 0x0 PUSH1 0x20 DUP3 DUP5 SUB SLT ISZERO PUSH2 0x2E88 JUMPI PUSH2 0x2E87 PUSH2 0x29C2 JUMP JUMPDEST JUMPDEST PUSH1 0x0 DUP3 ADD CALLDATALOAD PUSH8 0xFFFFFFFFFFFFFFFF DUP2 GT ISZERO PUSH2 0x2EA6 JUMPI PUSH2 0x2EA5 PUSH2 0x29C7 JUMP JUMPDEST JUMPDEST PUSH2 0x2EB2 DUP5 DUP3 DUP6 ADD PUSH2 0x2D6B JUMP JUMPDEST SWAP2 POP POP SWAP3 SWAP2 POP POP JUMP JUMPDEST PUSH1 0x0 PUSH2 0x2EC6 DUP3 PUSH2 0x2B9C JUMP JUMPDEST SWAP1 POP SWAP2 SWAP1 POP JUMP JUMPDEST PUSH2 0x2ED6 DUP2 PUSH2 0x2EBB JUMP JUMPDEST DUP2 EQ PUSH2 0x2EE1 JUMPI PUSH1 0x0 DUP1 REVERT JUMPDEST POP JUMP JUMPDEST PUSH1 0x0 DUP2 CALLDATALOAD SWAP1 POP PUSH2 0x2EF3 DUP2 PUSH2 0x2ECD JUMP JUMPDEST SWAP3 SWAP2 POP POP JUMP JUMPDEST PUSH1 0x0 PUSH1 0x20 DUP3 DUP5 SUB SLT ISZERO PUSH2 0x2F0F JUMPI PUSH2 0x2F0E PUSH2 0x29C2 JUMP JUMPDEST JUMPDEST PUSH1 0x0 PUSH2 0x2F1D DUP5 DUP3 DUP6 ADD PUSH2 0x2EE4 JUMP JUMPDEST SWAP2 POP POP SWAP3 SWAP2 POP POP JUMP JUMPDEST PUSH1 0x0 DUP2 SWAP1 POP SWAP2 SWAP1 POP JUMP JUMPDEST PUSH1 0x0 PUSH2 0x2F4B PUSH2 0x2F46 PUSH2 0x2F41 DUP5 PUSH2 0x2B9C JUMP JUMPDEST PUSH2 0x2F26 JUMP JUMPDEST PUSH2 0x2B9C JUMP JUMPDEST SWAP1 POP SWAP2 SWAP1 POP JUMP JUMPDEST PUSH1 0x0 PUSH2 0x2F5D DUP3 PUSH2 0x2F30 JUMP JUMPDEST SWAP1 POP SWAP2 SWAP1 POP JUMP JUMPDEST PUSH1 0x0 PUSH2 0x2F6F DUP3 PUSH2 0x2F52 JUMP JUMPDEST SWAP1 POP SWAP2 SWAP1 POP JUMP JUMPDEST PUSH2 0x2F7F DUP2 PUSH2 0x2F64 JUMP JUMPDEST DUP3 MSTORE POP POP JUMP JUMPDEST PUSH1 0x0 PUSH1 0x20 DUP3 ADD SWAP1 POP PUSH2 0x2F9A PUSH1 0x0 DUP4 ADD DUP5 PUSH2 0x2F76 JUMP JUMPDEST SWAP3 SWAP2 POP POP JUMP JUMPDEST PUSH1 0x0 PUSH1 0x20 DUP3 DUP5 SUB SLT ISZERO PUSH2 0x2FB6 JUMPI PUSH2 0x2FB5 PUSH2 0x29C2 JUMP JUMPDEST JUMPDEST PUSH1 0x0 PUSH2 0x2FC4 DUP5 DUP3 DUP6 ADD PUSH2 0x2C0F JUMP JUMPDEST SWAP2 POP POP SWAP3 SWAP2 POP POP JUMP JUMPDEST PUSH2 0x2FD6 DUP2 PUSH2 0x2A51 JUMP JUMPDEST DUP2 EQ PUSH2 0x2FE1 JUMPI PUSH1 0x0 DUP1 REVERT JUMPDEST POP JUMP JUMPDEST PUSH1 0x0 DUP2 CALLDATALOAD SWAP1 POP PUSH2 0x2FF3 DUP2 PUSH2 0x2FCD JUMP JUMPDEST SWAP3 SWAP2 POP POP JUMP JUMPDEST PUSH1 0x0 DUP1 PUSH1 0x40 DUP4 DUP6 SUB SLT ISZERO PUSH2 0x3010 JUMPI PUSH2 0x300F PUSH2 0x29C2 JUMP JUMPDEST JUMPDEST PUSH1 0x0 PUSH2 0x301E DUP6 DUP3 DUP7 ADD PUSH2 0x2C0F JUMP JUMPDEST SWAP3 POP POP PUSH1 0x20 PUSH2 0x302F DUP6 DUP3 DUP7 ADD PUSH2 0x2FE4 JUMP JUMPDEST SWAP2 POP POP SWAP3 POP SWAP3 SWAP1 POP JUMP JUMPDEST PUSH1 0x0 PUSH8 0xFFFFFFFFFFFFFFFF DUP3 GT ISZERO PUSH2 0x3054 JUMPI PUSH2 0x3053 PUSH2 0x2C6E JUMP JUMPDEST JUMPDEST PUSH2 0x305D DUP3 PUSH2 0x2ACD JUMP JUMPDEST SWAP1 POP PUSH1 0x20 DUP2 ADD SWAP1 POP SWAP2 SWAP1 POP JUMP JUMPDEST PUSH1 0x0 PUSH2 0x307D PUSH2 0x3078 DUP5 PUSH2 0x3039 JUMP JUMPDEST PUSH2 0x2CCE JUMP JUMPDEST SWAP1 POP DUP3 DUP2 MSTORE PUSH1 0x20 DUP2 ADD DUP5 DUP5 DUP5 ADD GT ISZERO PUSH2 0x3099 JUMPI PUSH2 0x3098 PUSH2 0x2C69 JUMP JUMPDEST JUMPDEST PUSH2 0x30A4 DUP5 DUP3 DUP6 PUSH2 0x2D1A JUMP JUMPDEST POP SWAP4 SWAP3 POP POP POP JUMP JUMPDEST PUSH1 0x0 DUP3 PUSH1 0x1F DUP4 ADD SLT PUSH2 0x30C1 JUMPI PUSH2 0x30C0 PUSH2 0x2C64 JUMP JUMPDEST JUMPDEST DUP2 CALLDATALOAD PUSH2 0x30D1 DUP5 DUP3 PUSH1 0x20 DUP7 ADD PUSH2 0x306A JUMP JUMPDEST SWAP2 POP POP SWAP3 SWAP2 POP POP JUMP JUMPDEST PUSH1 0x0 DUP1 PUSH1 0x0 DUP1 PUSH1 0x80 DUP6 DUP8 SUB SLT ISZERO PUSH2 0x30F4 JUMPI PUSH2 0x30F3 PUSH2 0x29C2 JUMP JUMPDEST JUMPDEST PUSH1 0x0 PUSH2 0x3102 DUP8 DUP3 DUP9 ADD PUSH2 0x2C0F JUMP JUMPDEST SWAP5 POP POP PUSH1 0x20 PUSH2 0x3113 DUP8 DUP3 DUP9 ADD PUSH2 0x2C0F JUMP JUMPDEST SWAP4 POP POP PUSH1 0x40 PUSH2 0x3124 DUP8 DUP3 DUP9 ADD PUSH2 0x2B5A JUMP JUMPDEST SWAP3 POP POP PUSH1 0x60 DUP6 ADD CALLDATALOAD PUSH8 0xFFFFFFFFFFFFFFFF DUP2 GT ISZERO PUSH2 0x3145 JUMPI PUSH2 0x3144 PUSH2 0x29C7 JUMP JUMPDEST JUMPDEST PUSH2 0x3151 DUP8 DUP3 DUP9 ADD PUSH2 0x30AC JUMP JUMPDEST SWAP2 POP POP SWAP3 SWAP6 SWAP2 SWAP5 POP SWAP3 POP JUMP JUMPDEST PUSH1 0x0 DUP1 PUSH1 0x40 DUP4 DUP6 SUB SLT ISZERO PUSH2 0x3174 JUMPI PUSH2 0x3173 PUSH2 0x29C2 JUMP JUMPDEST JUMPDEST PUSH1 0x0 PUSH2 0x3182 DUP6 DUP3 DUP7 ADD PUSH2 0x2C0F JUMP JUMPDEST SWAP3 POP POP PUSH1 0x20 DUP4 ADD CALLDATALOAD PUSH8 0xFFFFFFFFFFFFFFFF DUP2 GT ISZERO PUSH2 0x31A3 JUMPI PUSH2 0x31A2 PUSH2 0x29C7 JUMP JUMPDEST JUMPDEST PUSH2 0x31AF DUP6 DUP3 DUP7 ADD PUSH2 0x2D6B JUMP JUMPDEST SWAP2 POP POP SWAP3 POP SWAP3 SWAP1 POP JUMP JUMPDEST PUSH1 0x0 DUP1 PUSH1 0x40 DUP4 DUP6 SUB SLT ISZERO PUSH2 0x31D0 JUMPI PUSH2 0x31CF PUSH2 0x29C2 JUMP JUMPDEST JUMPDEST PUSH1 0x0 PUSH2 0x31DE DUP6 DUP3 DUP7 ADD PUSH2 0x2C0F JUMP JUMPDEST SWAP3 POP POP PUSH1 0x20 PUSH2 0x31EF DUP6 DUP3 DUP7 ADD PUSH2 0x2C0F JUMP JUMPDEST SWAP2 POP POP SWAP3 POP SWAP3 SWAP1 POP JUMP JUMPDEST PUSH32 0x4E487B7100000000000000000000000000000000000000000000000000000000 PUSH1 0x0 MSTORE PUSH1 0x22 PUSH1 0x4 MSTORE PUSH1 0x24 PUSH1 0x0 REVERT JUMPDEST PUSH1 0x0 PUSH1 0x2 DUP3 DIV SWAP1 POP PUSH1 0x1 DUP3 AND DUP1 PUSH2 0x3240 JUMPI PUSH1 0x7F DUP3 AND SWAP2 POP JUMPDEST PUSH1 0x20 DUP3 LT DUP2 SUB PUSH2 0x3253 JUMPI PUSH2 0x3252 PUSH2 0x31F9 JUMP JUMPDEST JUMPDEST POP SWAP2 SWAP1 POP JUMP JUMPDEST PUSH32 0x455243373231456E756D657261626C653A206F776E657220696E646578206F75 PUSH1 0x0 DUP3 ADD MSTORE PUSH32 0x74206F6620626F756E6473000000000000000000000000000000000000000000 PUSH1 0x20 DUP3 ADD MSTORE POP JUMP JUMPDEST PUSH1 0x0 PUSH2 0x32B5 PUSH1 0x2B DUP4 PUSH2 0x2A92 JUMP JUMPDEST SWAP2 POP PUSH2 0x32C0 DUP3 PUSH2 0x3259 JUMP JUMPDEST PUSH1 0x40 DUP3 ADD SWAP1 POP SWAP2 SWAP1 POP JUMP JUMPDEST PUSH1 0x0 PUSH1 0x20 DUP3 ADD SWAP1 POP DUP2 DUP2 SUB PUSH1 0x0 DUP4 ADD MSTORE PUSH2 0x32E4 DUP2 PUSH2 0x32A8 JUMP JUMPDEST SWAP1 POP SWAP2 SWAP1 POP JUMP JUMPDEST PUSH1 0x0 DUP2 SWAP1 POP DUP2 PUSH1 0x0 MSTORE PUSH1 0x20 PUSH1 0x0 KECCAK256 SWAP1 POP SWAP2 SWAP1 POP JUMP JUMPDEST PUSH1 0x0 PUSH1 0x20 PUSH1 0x1F DUP4 ADD DIV SWAP1 POP SWAP2 SWAP1 POP JUMP JUMPDEST PUSH1 0x0 DUP3 DUP3 SHL SWAP1 POP SWAP3 SWAP2 POP POP JUMP JUMPDEST PUSH1 0x0 PUSH1 0x8 DUP4 MUL PUSH2 0x334D PUSH32 0xFFFFFFFFFFFFFFFFFFFFFFFFFFFFFFFFFFFFFFFFFFFFFFFFFFFFFFFFFFFFFFFF DUP3 PUSH2 0x3310 JUMP JUMPDEST PUSH2 0x3357 DUP7 DUP4 PUSH2 0x3310 JUMP JUMPDEST SWAP6 POP DUP1 NOT DUP5 AND SWAP4 POP DUP1 DUP7 AND DUP5 OR SWAP3 POP POP POP SWAP4 SWAP3 POP POP POP JUMP JUMPDEST PUSH1 0x0 PUSH2 0x338A PUSH2 0x3385 PUSH2 0x3380 DUP5 PUSH2 0x2B39 JUMP JUMPDEST PUSH2 0x2F26 JUMP JUMPDEST PUSH2 0x2B39 JUMP JUMPDEST SWAP1 POP SWAP2 SWAP1 POP JUMP JUMPDEST PUSH1 0x0 DUP2 SWAP1 POP SWAP2 SWAP1 POP JUMP JUMPDEST PUSH2 0x33A4 DUP4 PUSH2 0x336F JUMP JUMPDEST PUSH2 0x33B8 PUSH2 0x33B0 DUP3 PUSH2 0x3391 JUMP JUMPDEST DUP5 DUP5 SLOAD PUSH2 0x331D JUMP JUMPDEST DUP3 SSTORE POP POP POP POP JUMP JUMPDEST PUSH1 0x0 SWAP1 JUMP JUMPDEST PUSH2 0x33CD PUSH2 0x33C0 JUMP JUMPDEST PUSH2 0x33D8 DUP2 DUP5 DUP5 PUSH2 0x339B JUMP JUMPDEST POP POP POP JUMP JUMPDEST JUMPDEST DUP2 DUP2 LT ISZERO PUSH2 0x33FC JUMPI PUSH2 0x33F1 PUSH1 0x0 DUP3 PUSH2 0x33C5 JUMP JUMPDEST PUSH1 0x1 DUP2 ADD SWAP1 POP PUSH2 0x33DE JUMP JUMPDEST POP POP JUMP JUMPDEST PUSH1 0x1F DUP3 GT ISZERO PUSH2 0x3441 JUMPI PUSH2 0x3412 DUP2 PUSH2 0x32EB JUMP JUMPDEST PUSH2 0x341B DUP5 PUSH2 0x3300 JUMP JUMPDEST DUP2 ADD PUSH1 0x20 DUP6 LT ISZERO PUSH2 0x342A JUMPI DUP2 SWAP1 POP JUMPDEST PUSH2 0x343E PUSH2 0x3436 DUP6 PUSH2 0x3300 JUMP JUMPDEST DUP4 ADD DUP3 PUSH2 0x33DD JUMP JUMPDEST POP POP JUMPDEST POP POP POP JUMP JUMPDEST PUSH1 0x0 DUP3 DUP3 SHR SWAP1 POP SWAP3 SWAP2 POP POP JUMP JUMPDEST PUSH1 0x0 PUSH2 0x3464 PUSH1 0x0 NOT DUP5 PUSH1 0x8 MUL PUSH2 0x3446 JUMP JUMPDEST NOT DUP1 DUP4 AND SWAP2 POP POP SWAP3 SWAP2 POP POP JUMP JUMPDEST PUSH1 0x0 PUSH2 0x347D DUP4 DUP4 PUSH2 0x3453 JUMP JUMPDEST SWAP2 POP DUP3 PUSH1 0x2 MUL DUP3 OR SWAP1 POP SWAP3 SWAP2 POP POP JUMP JUMPDEST PUSH2 0x3496 DUP3 PUSH2 0x2A87 JUMP JUMPDEST PUSH8 0xFFFFFFFFFFFFFFFF DUP2 GT ISZERO PUSH2 0x34AF JUMPI PUSH2 0x34AE PUSH2 0x2C6E JUMP JUMPDEST JUMPDEST PUSH2 0x34B9 DUP3 SLOAD PUSH2 0x3228 JUMP JUMPDEST PUSH2 0x34C4 DUP3 DUP3 DUP6 PUSH2 0x3400 JUMP JUMPDEST PUSH1 0x0 PUSH1 0x20 SWAP1 POP PUSH1 0x1F DUP4 GT PUSH1 0x1 DUP2 EQ PUSH2 0x34F7 JUMPI PUSH1 0x0 DUP5 ISZERO PUSH2 0x34E5 JUMPI DUP3 DUP8 ADD MLOAD SWAP1 POP JUMPDEST PUSH2 0x34EF DUP6 DUP3 PUSH2 0x3471 JUMP JUMPDEST DUP7 SSTORE POP PUSH2 0x3557 JUMP JUMPDEST PUSH1 0x1F NOT DUP5 AND PUSH2 0x3505 DUP7 PUSH2 0x32EB JUMP JUMPDEST PUSH1 0x0 JUMPDEST DUP3 DUP2 LT ISZERO PUSH2 0x352D JUMPI DUP5 DUP10 ADD MLOAD DUP3 SSTORE PUSH1 0x1 DUP3 ADD SWAP2 POP PUSH1 0x20 DUP6 ADD SWAP5 POP PUSH1 0x20 DUP2 ADD SWAP1 POP PUSH2 0x3508 JUMP JUMPDEST DUP7 DUP4 LT ISZERO PUSH2 0x354A JUMPI DUP5 DUP10 ADD MLOAD PUSH2 0x3546 PUSH1 0x1F DUP10 AND DUP3 PUSH2 0x3453 JUMP JUMPDEST DUP4 SSTORE POP JUMPDEST PUSH1 0x1 PUSH1 0x2 DUP9 MUL ADD DUP9 SSTORE POP POP POP JUMPDEST POP POP POP POP POP POP JUMP JUMPDEST PUSH32 0x455243373231456E756D657261626C653A20676C6F62616C20696E646578206F PUSH1 0x0 DUP3 ADD MSTORE PUSH32 0x7574206F6620626F756E64730000000000000000000000000000000000000000 PUSH1 0x20 DUP3 ADD MSTORE POP JUMP JUMPDEST PUSH1 0x0 PUSH2 0x35BB PUSH1 0x2C DUP4 PUSH2 0x2A92 JUMP JUMPDEST SWAP2 POP PUSH2 0x35C6 DUP3 PUSH2 0x355F JUMP JUMPDEST PUSH1 0x40 DUP3 ADD SWAP1 POP SWAP2 SWAP1 POP JUMP JUMPDEST PUSH1 0x0 PUSH1 0x20 DUP3 ADD SWAP1 POP DUP2 DUP2 SUB PUSH1 0x0 DUP4 ADD MSTORE PUSH2 0x35EA DUP2 PUSH2 0x35AE JUMP JUMPDEST SWAP1 POP SWAP2 SWAP1 POP JUMP JUMPDEST PUSH32 0x4E487B7100000000000000000000000000000000000000000000000000000000 PUSH1 0x0 MSTORE PUSH1 0x32 PUSH1 0x4 MSTORE PUSH1 0x24 PUSH1 0x0 REVERT JUMPDEST PUSH32 0x4552433732313A20696E76616C696420746F6B656E2049440000000000000000 PUSH1 0x0 DUP3 ADD MSTORE POP JUMP JUMPDEST PUSH1 0x0 PUSH2 0x3656 PUSH1 0x18 DUP4 PUSH2 0x2A92 JUMP JUMPDEST SWAP2 POP PUSH2 0x3661 DUP3 PUSH2 0x3620 JUMP JUMPDEST PUSH1 0x20 DUP3 ADD SWAP1 POP SWAP2 SWAP1 POP JUMP JUMPDEST PUSH1 0x0 PUSH1 0x20 DUP3 ADD SWAP1 POP DUP2 DUP2 SUB PUSH1 0x0 DUP4 ADD MSTORE PUSH2 0x3685 DUP2 PUSH2 0x3649 JUMP JUMPDEST SWAP1 POP SWAP2 SWAP1 POP JUMP JUMPDEST PUSH32 0x4552433732313A2061646472657373207A65726F206973206E6F742061207661 PUSH1 0x0 DUP3 ADD MSTORE PUSH32 0x6C6964206F776E65720000000000000000000000000000000000000000000000 PUSH1 0x20 DUP3 ADD MSTORE POP JUMP JUMPDEST PUSH1 0x0 PUSH2 0x36E8 PUSH1 0x29 DUP4 PUSH2 0x2A92 JUMP JUMPDEST SWAP2 POP PUSH2 0x36F3 DUP3 PUSH2 0x368C JUMP JUMPDEST PUSH1 0x40 DUP3 ADD SWAP1 POP SWAP2 SWAP1 POP JUMP JUMPDEST PUSH1 0x0 PUSH1 0x20 DUP3 ADD SWAP1 POP DUP2 DUP2 SUB PUSH1 0x0 DUP4 ADD MSTORE PUSH2 0x3717 DUP2 PUSH2 0x36DB JUMP JUMPDEST SWAP1 POP SWAP2 SWAP1 POP JUMP JUMPDEST PUSH32 0x43483A20757269206973206E6F742076616C6964000000000000000000000000 PUSH1 0x0 DUP3 ADD MSTORE POP JUMP JUMPDEST PUSH1 0x0 PUSH2 0x3754 PUSH1 0x14 DUP4 PUSH2 0x2A92 JUMP JUMPDEST SWAP2 POP PUSH2 0x375F DUP3 PUSH2 0x371E JUMP JUMPDEST PUSH1 0x20 DUP3 ADD SWAP1 POP SWAP2 SWAP1 POP JUMP JUMPDEST PUSH1 0x0 PUSH1 0x20 DUP3 ADD SWAP1 POP DUP2 DUP2 SUB PUSH1 0x0 DUP4 ADD MSTORE PUSH2 0x3783 DUP2 PUSH2 0x3747 JUMP JUMPDEST SWAP1 POP SWAP2 SWAP1 POP JUMP JUMPDEST PUSH1 0x0 DUP2 MLOAD SWAP1 POP PUSH2 0x3799 DUP2 PUSH2 0x2B43 JUMP JUMPDEST SWAP3 SWAP2 POP POP JUMP JUMPDEST PUSH1 0x0 PUSH1 0x20 DUP3 DUP5 SUB SLT ISZERO PUSH2 0x37B5 JUMPI PUSH2 0x37B4 PUSH2 0x29C2 JUMP JUMPDEST JUMPDEST PUSH1 0x0 PUSH2 0x37C3 DUP5 DUP3 DUP6 ADD PUSH2 0x378A JUMP JUMPDEST SWAP2 POP POP SWAP3 SWAP2 POP POP JUMP JUMPDEST PUSH32 0x4F776E61626C653A206E6577206F776E657220697320746865207A65726F2061 PUSH1 0x0 DUP3 ADD MSTORE PUSH32 0x6464726573730000000000000000000000000000000000000000000000000000 PUSH1 0x20 DUP3 ADD MSTORE POP JUMP JUMPDEST PUSH1 0x0 PUSH2 0x3828 PUSH1 0x26 DUP4 PUSH2 0x2A92 JUMP JUMPDEST SWAP2 POP PUSH2 0x3833 DUP3 PUSH2 0x37CC JUMP JUMPDEST PUSH1 0x40 DUP3 ADD SWAP1 POP SWAP2 SWAP1 POP JUMP JUMPDEST PUSH1 0x0 PUSH1 0x20 DUP3 ADD SWAP1 POP DUP2 DUP2 SUB PUSH1 0x0 DUP4 ADD MSTORE PUSH2 0x3857 DUP2 PUSH2 0x381B JUMP JUMPDEST SWAP1 POP SWAP2 SWAP1 POP JUMP JUMPDEST PUSH1 0x0 PUSH1 0x40 DUP3 ADD SWAP1 POP PUSH2 0x3873 PUSH1 0x0 DUP4 ADD DUP6 PUSH2 0x2BCE JUMP JUMPDEST PUSH2 0x3880 PUSH1 0x20 DUP4 ADD DUP5 PUSH2 0x2BCE JUMP JUMPDEST SWAP4 SWAP3 POP POP POP JUMP JUMPDEST PUSH1 0x0 DUP2 MLOAD SWAP1 POP PUSH2 0x3896 DUP2 PUSH2 0x2FCD JUMP JUMPDEST SWAP3 SWAP2 POP POP JUMP JUMPDEST PUSH1 0x0 PUSH1 0x20 DUP3 DUP5 SUB SLT ISZERO PUSH2 0x38B2 JUMPI PUSH2 0x38B1 PUSH2 0x29C2 JUMP JUMPDEST JUMPDEST PUSH1 0x0 PUSH2 0x38C0 DUP5 DUP3 DUP6 ADD PUSH2 0x3887 JUMP JUMPDEST SWAP2 POP POP SWAP3 SWAP2 POP POP JUMP JUMPDEST PUSH32 0x4552433732313A20617070726F76616C20746F2063757272656E74206F776E65 PUSH1 0x0 DUP3 ADD MSTORE PUSH32 0x7200000000000000000000000000000000000000000000000000000000000000 PUSH1 0x20 DUP3 ADD MSTORE POP JUMP JUMPDEST PUSH1 0x0 PUSH2 0x3925 PUSH1 0x21 DUP4 PUSH2 0x2A92 JUMP JUMPDEST SWAP2 POP PUSH2 0x3930 DUP3 PUSH2 0x38C9 JUMP JUMPDEST PUSH1 0x40 DUP3 ADD SWAP1 POP SWAP2 SWAP1 POP JUMP JUMPDEST PUSH1 0x0 PUSH1 0x20 DUP3 ADD SWAP1 POP DUP2 DUP2 SUB PUSH1 0x0 DUP4 ADD MSTORE PUSH2 0x3954 DUP2 PUSH2 0x3918 JUMP JUMPDEST SWAP1 POP SWAP2 SWAP1 POP JUMP JUMPDEST PUSH32 0x4552433732313A20617070726F76652063616C6C6572206973206E6F7420746F PUSH1 0x0 DUP3 ADD MSTORE PUSH32 0x6B656E206F776E6572206F7220617070726F76656420666F7220616C6C000000 PUSH1 0x20 DUP3 ADD MSTORE POP JUMP JUMPDEST PUSH1 0x0 PUSH2 0x39B7 PUSH1 0x3D DUP4 PUSH2 0x2A92 JUMP JUMPDEST SWAP2 POP PUSH2 0x39C2 DUP3 PUSH2 0x395B JUMP JUMPDEST PUSH1 0x40 DUP3 ADD SWAP1 POP SWAP2 SWAP1 POP JUMP JUMPDEST PUSH1 0x0 PUSH1 0x20 DUP3 ADD SWAP1 POP DUP2 DUP2 SUB PUSH1 0x0 DUP4 ADD MSTORE PUSH2 0x39E6 DUP2 PUSH2 0x39AA JUMP JUMPDEST SWAP1 POP SWAP2 SWAP1 POP JUMP JUMPDEST PUSH32 0x4F776E61626C653A2063616C6C6572206973206E6F7420746865206F776E6572 PUSH1 0x0 DUP3 ADD MSTORE POP JUMP JUMPDEST PUSH1 0x0 PUSH2 0x3A23 PUSH1 0x20 DUP4 PUSH2 0x2A92 JUMP JUMPDEST SWAP2 POP PUSH2 0x3A2E DUP3 PUSH2 0x39ED JUMP JUMPDEST PUSH1 0x20 DUP3 ADD SWAP1 POP SWAP2 SWAP1 POP JUMP JUMPDEST PUSH1 0x0 PUSH1 0x20 DUP3 ADD SWAP1 POP DUP2 DUP2 SUB PUSH1 0x0 DUP4 ADD MSTORE PUSH2 0x3A52 DUP2 PUSH2 0x3A16 JUMP JUMPDEST SWAP1 POP SWAP2 SWAP1 POP JUMP JUMPDEST PUSH32 0x45524337323155524953746F726167653A2055524920736574206F66206E6F6E PUSH1 0x0 DUP3 ADD MSTORE PUSH32 0x6578697374656E7420746F6B656E000000000000000000000000000000000000 PUSH1 0x20 DUP3 ADD MSTORE POP JUMP JUMPDEST PUSH1 0x0 PUSH2 0x3AB5 PUSH1 0x2E DUP4 PUSH2 0x2A92 JUMP JUMPDEST SWAP2 POP PUSH2 0x3AC0 DUP3 PUSH2 0x3A59 JUMP JUMPDEST PUSH1 0x40 DUP3 ADD SWAP1 POP SWAP2 SWAP1 POP JUMP JUMPDEST PUSH1 0x0 PUSH1 0x20 DUP3 ADD SWAP1 POP DUP2 DUP2 SUB PUSH1 0x0 DUP4 ADD MSTORE PUSH2 0x3AE4 DUP2 PUSH2 0x3AA8 JUMP JUMPDEST SWAP1 POP SWAP2 SWAP1 POP JUMP JUMPDEST PUSH32 0x4552433732313A2063616C6C6572206973206E6F7420746F6B656E206F776E65 PUSH1 0x0 DUP3 ADD MSTORE PUSH32 0x72206F7220617070726F76656400000000000000000000000000000000000000 PUSH1 0x20 DUP3 ADD MSTORE POP JUMP JUMPDEST PUSH1 0x0 PUSH2 0x3B47 PUSH1 0x2D DUP4 PUSH2 0x2A92 JUMP JUMPDEST SWAP2 POP PUSH2 0x3B52 DUP3 PUSH2 0x3AEB JUMP JUMPDEST PUSH1 0x40 DUP3 ADD SWAP1 POP SWAP2 SWAP1 POP JUMP JUMPDEST PUSH1 0x0 PUSH1 0x20 DUP3 ADD SWAP1 POP DUP2 DUP2 SUB PUSH1 0x0 DUP4 ADD MSTORE PUSH2 0x3B76 DUP2 PUSH2 0x3B3A JUMP JUMPDEST SWAP1 POP SWAP2 SWAP1 POP JUMP JUMPDEST PUSH2 0x3B86 DUP2 PUSH2 0x2EBB JUMP JUMPDEST DUP3 MSTORE POP POP JUMP JUMPDEST PUSH1 0x0 PUSH1 0x20 DUP3 ADD SWAP1 POP PUSH2 0x3BA1 PUSH1 0x0 DUP4 ADD DUP5 PUSH2 0x3B7D JUMP JUMPDEST SWAP3 SWAP2 POP POP JUMP JUMPDEST PUSH1 0x0 DUP2 SWAP1 POP SWAP3 SWAP2 POP POP JUMP JUMPDEST PUSH1 0x0 PUSH2 0x3BBD DUP3 PUSH2 0x2A87 JUMP JUMPDEST PUSH2 0x3BC7 DUP2 DUP6 PUSH2 0x3BA7 JUMP JUMPDEST SWAP4 POP PUSH2 0x3BD7 DUP2 DUP6 PUSH1 0x20 DUP7 ADD PUSH2 0x2AA3 JUMP JUMPDEST DUP1 DUP5 ADD SWAP2 POP POP SWAP3 SWAP2 POP POP JUMP JUMPDEST PUSH1 0x0 PUSH2 0x3BEF DUP3 DUP6 PUSH2 0x3BB2 JUMP JUMPDEST SWAP2 POP PUSH2 0x3BFB DUP3 DUP5 PUSH2 0x3BB2 JUMP JUMPDEST SWAP2 POP DUP2 SWAP1 POP SWAP4 SWAP3 POP POP POP JUMP JUMPDEST PUSH32 0x4552433732313A207472616E736665722066726F6D20696E636F727265637420 PUSH1 0x0 DUP3 ADD MSTORE PUSH32 0x6F776E6572000000000000000000000000000000000000000000000000000000 PUSH1 0x20 DUP3 ADD MSTORE POP JUMP JUMPDEST PUSH1 0x0 PUSH2 0x3C63 PUSH1 0x25 DUP4 PUSH2 0x2A92 JUMP JUMPDEST SWAP2 POP PUSH2 0x3C6E DUP3 PUSH2 0x3C07 JUMP JUMPDEST PUSH1 0x40 DUP3 ADD SWAP1 POP SWAP2 SWAP1 POP JUMP JUMPDEST PUSH1 0x0 PUSH1 0x20 DUP3 ADD SWAP1 POP DUP2 DUP2 SUB PUSH1 0x0 DUP4 ADD MSTORE PUSH2 0x3C92 DUP2 PUSH2 0x3C56 JUMP JUMPDEST SWAP1 POP SWAP2 SWAP1 POP JUMP JUMPDEST PUSH32 0x4552433732313A207472616E7366657220746F20746865207A65726F20616464 PUSH1 0x0 DUP3 ADD MSTORE PUSH32 0x7265737300000000000000000000000000000000000000000000000000000000 PUSH1 0x20 DUP3 ADD MSTORE POP JUMP JUMPDEST PUSH1 0x0 PUSH2 0x3CF5 PUSH1 0x24 DUP4 PUSH2 0x2A92 JUMP JUMPDEST SWAP2 POP PUSH2 0x3D00 DUP3 PUSH2 0x3C99 JUMP JUMPDEST PUSH1 0x40 DUP3 ADD SWAP1 POP SWAP2 SWAP1 POP JUMP JUMPDEST PUSH1 0x0 PUSH1 0x20 DUP3 ADD SWAP1 POP DUP2 DUP2 SUB PUSH1 0x0 DUP4 ADD MSTORE PUSH2 0x3D24 DUP2 PUSH2 0x3CE8 JUMP JUMPDEST SWAP1 POP SWAP2 SWAP1 POP JUMP JUMPDEST PUSH32 0x4552433732313A20617070726F766520746F2063616C6C657200000000000000 PUSH1 0x0 DUP3 ADD MSTORE POP JUMP JUMPDEST PUSH1 0x0 PUSH2 0x3D61 PUSH1 0x19 DUP4 PUSH2 0x2A92 JUMP JUMPDEST SWAP2 POP PUSH2 0x3D6C DUP3 PUSH2 0x3D2B JUMP JUMPDEST PUSH1 0x20 DUP3 ADD SWAP1 POP SWAP2 SWAP1 POP JUMP JUMPDEST PUSH1 0x0 PUSH1 0x20 DUP3 ADD SWAP1 POP DUP2 DUP2 SUB PUSH1 0x0 DUP4 ADD MSTORE PUSH2 0x3D90 DUP2 PUSH2 0x3D54 JUMP JUMPDEST SWAP1 POP SWAP2 SWAP1 POP JUMP JUMPDEST PUSH32 0x4552433732313A207472616E7366657220746F206E6F6E204552433732315265 PUSH1 0x0 DUP3 ADD MSTORE PUSH32 0x63656976657220696D706C656D656E7465720000000000000000000000000000 PUSH1 0x20 DUP3 ADD MSTORE POP JUMP JUMPDEST PUSH1 0x0 PUSH2 0x3DF3 PUSH1 0x32 DUP4 PUSH2 0x2A92 JUMP JUMPDEST SWAP2 POP PUSH2 0x3DFE DUP3 PUSH2 0x3D97 JUMP JUMPDEST PUSH1 0x40 DUP3 ADD SWAP1 POP SWAP2 SWAP1 POP JUMP JUMPDEST PUSH1 0x0 PUSH1 0x20 DUP3 ADD SWAP1 POP DUP2 DUP2 SUB PUSH1 0x0 DUP4 ADD MSTORE PUSH2 0x3E22 DUP2 PUSH2 0x3DE6 JUMP JUMPDEST SWAP1 POP SWAP2 SWAP1 POP JUMP JUMPDEST PUSH1 0x0 DUP2 MLOAD SWAP1 POP SWAP2 SWAP1 POP JUMP JUMPDEST PUSH1 0x0 DUP3 DUP3 MSTORE PUSH1 0x20 DUP3 ADD SWAP1 POP SWAP3 SWAP2 POP POP JUMP JUMPDEST PUSH1 0x0 PUSH2 0x3E50 DUP3 PUSH2 0x3E29 JUMP JUMPDEST PUSH2 0x3E5A DUP2 DUP6 PUSH2 0x3E34 JUMP JUMPDEST SWAP4 POP PUSH2 0x3E6A DUP2 DUP6 PUSH1 0x20 DUP7 ADD PUSH2 0x2AA3 JUMP JUMPDEST PUSH2 0x3E73 DUP2 PUSH2 0x2ACD JUMP JUMPDEST DUP5 ADD SWAP2 POP POP SWAP3 SWAP2 POP POP JUMP JUMPDEST PUSH1 0x0 PUSH1 0x80 DUP3 ADD SWAP1 POP PUSH2 0x3E93 PUSH1 0x0 DUP4 ADD DUP8 PUSH2 0x2BCE JUMP JUMPDEST PUSH2 0x3EA0 PUSH1 0x20 DUP4 ADD DUP7 PUSH2 0x2BCE JUMP JUMPDEST PUSH2 0x3EAD PUSH1 0x40 DUP4 ADD DUP6 PUSH2 0x2DF5 JUMP JUMPDEST DUP2 DUP2 SUB PUSH1 0x60 DUP4 ADD MSTORE PUSH2 0x3EBF DUP2 DUP5 PUSH2 0x3E45 JUMP JUMPDEST SWAP1 POP SWAP6 SWAP5 POP POP POP POP POP JUMP JUMPDEST PUSH1 0x0 DUP2 MLOAD SWAP1 POP PUSH2 0x3ED9 DUP2 PUSH2 0x29F8 JUMP JUMPDEST SWAP3 SWAP2 POP POP JUMP JUMPDEST PUSH1 0x0 PUSH1 0x20 DUP3 DUP5 SUB SLT ISZERO PUSH2 0x3EF5 JUMPI PUSH2 0x3EF4 PUSH2 0x29C2 JUMP JUMPDEST JUMPDEST PUSH1 0x0 PUSH2 0x3F03 DUP5 DUP3 DUP6 ADD PUSH2 0x3ECA JUMP JUMPDEST SWAP2 POP POP SWAP3 SWAP2 POP POP JUMP JUMPDEST PUSH32 0x4E487B7100000000000000000000000000000000000000000000000000000000 PUSH1 0x0 MSTORE PUSH1 0x12 PUSH1 0x4 MSTORE PUSH1 0x24 PUSH1 0x0 REVERT JUMPDEST PUSH32 0x4552433732313A206D696E7420746F20746865207A65726F2061646472657373 PUSH1 0x0 DUP3 ADD MSTORE POP JUMP JUMPDEST PUSH1 0x0 PUSH2 0x3F71 PUSH1 0x20 DUP4 PUSH2 0x2A92 JUMP JUMPDEST SWAP2 POP PUSH2 0x3F7C DUP3 PUSH2 0x3F3B JUMP JUMPDEST PUSH1 0x20 DUP3 ADD SWAP1 POP SWAP2 SWAP1 POP JUMP JUMPDEST PUSH1 0x0 PUSH1 0x20 DUP3 ADD SWAP1 POP DUP2 DUP2 SUB PUSH1 0x0 DUP4 ADD MSTORE PUSH2 0x3FA0 DUP2 PUSH2 0x3F64 JUMP JUMPDEST SWAP1 POP SWAP2 SWAP1 POP JUMP JUMPDEST PUSH32 0x4552433732313A20746F6B656E20616C7265616479206D696E74656400000000 PUSH1 0x0 DUP3 ADD MSTORE POP JUMP JUMPDEST PUSH1 0x0 PUSH2 0x3FDD PUSH1 0x1C DUP4 PUSH2 0x2A92 JUMP JUMPDEST SWAP2 POP PUSH2 0x3FE8 DUP3 PUSH2 0x3FA7 JUMP JUMPDEST PUSH1 0x20 DUP3 ADD SWAP1 POP SWAP2 SWAP1 POP JUMP JUMPDEST PUSH1 0x0 PUSH1 0x20 DUP3 ADD SWAP1 POP DUP2 DUP2 SUB PUSH1 0x0 DUP4 ADD MSTORE PUSH2 0x400C DUP2 PUSH2 0x3FD0 JUMP JUMPDEST SWAP1 POP SWAP2 SWAP1 POP JUMP JUMPDEST PUSH32 0x455243373231456E756D657261626C653A20636F6E7365637574697665207472 PUSH1 0x0 DUP3 ADD MSTORE PUSH32 0x616E7366657273206E6F7420737570706F727465640000000000000000000000 PUSH1 0x20 DUP3 ADD MSTORE POP JUMP JUMPDEST PUSH1 0x0 PUSH2 0x406F PUSH1 0x35 DUP4 PUSH2 0x2A92 JUMP JUMPDEST SWAP2 POP PUSH2 0x407A DUP3 PUSH2 0x4013 JUMP JUMPDEST PUSH1 0x40 DUP3 ADD SWAP1 POP SWAP2 SWAP1 POP JUMP JUMPDEST PUSH1 0x0 PUSH1 0x20 DUP3 ADD SWAP1 POP DUP2 DUP2 SUB PUSH1 0x0 DUP4 ADD MSTORE PUSH2 0x409E DUP2 PUSH2 0x4062 JUMP JUMPDEST SWAP1 POP SWAP2 SWAP1 POP JUMP JUMPDEST PUSH32 0x4E487B7100000000000000000000000000000000000000000000000000000000 PUSH1 0x0 MSTORE PUSH1 0x11 PUSH1 0x4 MSTORE PUSH1 0x24 PUSH1 0x0 REVERT JUMPDEST PUSH1 0x0 PUSH2 0x40DF DUP3 PUSH2 0x2B39 JUMP JUMPDEST SWAP2 POP PUSH2 0x40EA DUP4 PUSH2 0x2B39 JUMP JUMPDEST SWAP3 POP DUP3 DUP3 SUB SWAP1 POP DUP2 DUP2 GT ISZERO PUSH2 0x4102 JUMPI PUSH2 0x4101 PUSH2 0x40A5 JUMP JUMPDEST JUMPDEST SWAP3 SWAP2 POP POP JUMP JUMPDEST PUSH1 0x0 PUSH2 0x4113 DUP3 PUSH2 0x2B39 JUMP JUMPDEST SWAP2 POP PUSH2 0x411E DUP4 PUSH2 0x2B39 JUMP JUMPDEST SWAP3 POP DUP3 DUP3 ADD SWAP1 POP DUP1 DUP3 GT ISZERO PUSH2 0x4136 JUMPI PUSH2 0x4135 PUSH2 0x40A5 JUMP JUMPDEST JUMPDEST SWAP3 SWAP2 POP POP JUMP JUMPDEST PUSH32 0x4E487B7100000000000000000000000000000000000000000000000000000000 PUSH1 0x0 MSTORE PUSH1 0x31 PUSH1 0x4 MSTORE PUSH1 0x24 PUSH1 0x0 REVERT INVALID LOG2 PUSH5 0x6970667358 0x22 SLT KECCAK256 0xB7 PUSH26 0xFCB72757610B21DB34EF6A7C68FF09DE3E510362EAD54144723E 0x2E PUSH29 0xCA0364736F6C63430008110033608060405234801561001057600080FD JUMPDEST POP PUSH2 0x2D PUSH2 0x22 PUSH2 0x32 PUSH1 0x20 SHL PUSH1 0x20 SHR JUMP JUMPDEST PUSH2 0x3A PUSH1 0x20 SHL PUSH1 0x20 SHR JUMP JUMPDEST PUSH2 0xFE JUMP JUMPDEST PUSH1 0x0 CALLER SWAP1 POP SWAP1 JUMP JUMPDEST PUSH1 0x0 DUP1 PUSH1 0x0 SWAP1 SLOAD SWAP1 PUSH2 0x100 EXP SWAP1 DIV PUSH20 0xFFFFFFFFFFFFFFFFFFFFFFFFFFFFFFFFFFFFFFFF AND SWAP1 POP DUP2 PUSH1 0x0 DUP1 PUSH2 0x100 EXP DUP2 SLOAD DUP2 PUSH20 0xFFFFFFFFFFFFFFFFFFFFFFFFFFFFFFFFFFFFFFFF MUL NOT AND SWAP1 DUP4 PUSH20 0xFFFFFFFFFFFFFFFFFFFFFFFFFFFFFFFFFFFFFFFF AND MUL OR SWAP1 SSTORE POP DUP2 PUSH20 0xFFFFFFFFFFFFFFFFFFFFFFFFFFFFFFFFFFFFFFFF AND DUP2 PUSH20 0xFFFFFFFFFFFFFFFFFFFFFFFFFFFFFFFFFFFFFFFF AND PUSH32 0x8BE0079C531659141344CD1FD0A4F28419497F9722A3DAAFE3B4186F6B6457E0 PUSH1 0x40 MLOAD PUSH1 0x40 MLOAD DUP1 SWAP2 SUB SWAP1 LOG3 POP POP JUMP JUMPDEST PUSH2 0xA94 DUP1 PUSH2 0x10D PUSH1 0x0 CODECOPY PUSH1 0x0 RETURN INVALID PUSH1 0x80 PUSH1 0x40 MSTORE PUSH1 0x4 CALLDATASIZE LT PUSH2 0x55 JUMPI PUSH1 0x0 CALLDATALOAD PUSH1 0xE0 SHR DUP1 PUSH4 0x51CFF8D9 EQ PUSH2 0x5A JUMPI DUP1 PUSH4 0x715018A6 EQ PUSH2 0x83 JUMPI DUP1 PUSH4 0x8DA5CB5B EQ PUSH2 0x9A JUMPI DUP1 PUSH4 0xE3A9DB1A EQ PUSH2 0xC5 JUMPI DUP1 PUSH4 0xF2FDE38B EQ PUSH2 0x102 JUMPI DUP1 PUSH4 0xF340FA01 EQ PUSH2 0x12B JUMPI JUMPDEST PUSH1 0x0 DUP1 REVERT JUMPDEST CALLVALUE DUP1 ISZERO PUSH2 0x66 JUMPI PUSH1 0x0 DUP1 REVERT JUMPDEST POP PUSH2 0x81 PUSH1 0x4 DUP1 CALLDATASIZE SUB DUP2 ADD SWAP1 PUSH2 0x7C SWAP2 SWAP1 PUSH2 0x6B2 JUMP JUMPDEST PUSH2 0x147 JUMP JUMPDEST STOP JUMPDEST CALLVALUE DUP1 ISZERO PUSH2 0x8F JUMPI PUSH1 0x0 DUP1 REVERT JUMPDEST POP PUSH2 0x98 PUSH2 0x253 JUMP JUMPDEST STOP JUMPDEST CALLVALUE DUP1 ISZERO PUSH2 0xA6 JUMPI PUSH1 0x0 DUP1 REVERT JUMPDEST POP PUSH2 0xAF PUSH2 0x267 JUMP JUMPDEST PUSH1 0x40 MLOAD PUSH2 0xBC SWAP2 SWAP1 PUSH2 0x700 JUMP JUMPDEST PUSH1 0x40 MLOAD DUP1 SWAP2 SUB SWAP1 RETURN JUMPDEST CALLVALUE DUP1 ISZERO PUSH2 0xD1 JUMPI PUSH1 0x0 DUP1 REVERT JUMPDEST POP PUSH2 0xEC PUSH1 0x4 DUP1 CALLDATASIZE SUB DUP2 ADD SWAP1 PUSH2 0xE7 SWAP2 SWAP1 PUSH2 0x747 JUMP JUMPDEST PUSH2 0x290 JUMP JUMPDEST PUSH1 0x40 MLOAD PUSH2 0xF9 SWAP2 SWAP1 PUSH2 0x78D JUMP JUMPDEST PUSH1 0x40 MLOAD DUP1 SWAP2 SUB SWAP1 RETURN JUMPDEST CALLVALUE DUP1 ISZERO PUSH2 0x10E JUMPI PUSH1 0x0 DUP1 REVERT JUMPDEST POP PUSH2 0x129 PUSH1 0x4 DUP1 CALLDATASIZE SUB DUP2 ADD SWAP1 PUSH2 0x124 SWAP2 SWAP1 PUSH2 0x747 JUMP JUMPDEST PUSH2 0x2D9 JUMP JUMPDEST STOP JUMPDEST PUSH2 0x145 PUSH1 0x4 DUP1 CALLDATASIZE SUB DUP2 ADD SWAP1 PUSH2 0x140 SWAP2 SWAP1 PUSH2 0x747 JUMP JUMPDEST PUSH2 0x35C JUMP JUMPDEST STOP JUMPDEST PUSH2 0x14F PUSH2 0x411 JUMP JUMPDEST PUSH1 0x0 PUSH1 0x1 PUSH1 0x0 DUP4 PUSH20 0xFFFFFFFFFFFFFFFFFFFFFFFFFFFFFFFFFFFFFFFF AND PUSH20 0xFFFFFFFFFFFFFFFFFFFFFFFFFFFFFFFFFFFFFFFF AND DUP2 MSTORE PUSH1 0x20 ADD SWAP1 DUP2 MSTORE PUSH1 0x20 ADD PUSH1 0x0 KECCAK256 SLOAD SWAP1 POP PUSH1 0x0 PUSH1 0x1 PUSH1 0x0 DUP5 PUSH20 0xFFFFFFFFFFFFFFFFFFFFFFFFFFFFFFFFFFFFFFFF AND PUSH20 0xFFFFFFFFFFFFFFFFFFFFFFFFFFFFFFFFFFFFFFFF AND DUP2 MSTORE PUSH1 0x20 ADD SWAP1 DUP2 MSTORE PUSH1 0x20 ADD PUSH1 0x0 KECCAK256 DUP2 SWAP1 SSTORE POP PUSH2 0x201 DUP2 DUP4 PUSH20 0xFFFFFFFFFFFFFFFFFFFFFFFFFFFFFFFFFFFFFFFF AND PUSH2 0x48F SWAP1 SWAP2 SWAP1 PUSH4 0xFFFFFFFF AND JUMP JUMPDEST DUP2 PUSH20 0xFFFFFFFFFFFFFFFFFFFFFFFFFFFFFFFFFFFFFFFF AND PUSH32 0x7084F5476618D8E60B11EF0D7D3F06914655ADB8793E28FF7F018D4C76D505D5 DUP3 PUSH1 0x40 MLOAD PUSH2 0x247 SWAP2 SWAP1 PUSH2 0x78D JUMP JUMPDEST PUSH1 0x40 MLOAD DUP1 SWAP2 SUB SWAP1 LOG2 POP POP JUMP JUMPDEST PUSH2 0x25B PUSH2 0x411 JUMP JUMPDEST PUSH2 0x265 PUSH1 0x0 PUSH2 0x583 JUMP JUMPDEST JUMP JUMPDEST PUSH1 0x0 DUP1 PUSH1 0x0 SWAP1 SLOAD SWAP1 PUSH2 0x100 EXP SWAP1 DIV PUSH20 0xFFFFFFFFFFFFFFFFFFFFFFFFFFFFFFFFFFFFFFFF AND SWAP1 POP SWAP1 JUMP JUMPDEST PUSH1 0x0 PUSH1 0x1 PUSH1 0x0 DUP4 PUSH20 0xFFFFFFFFFFFFFFFFFFFFFFFFFFFFFFFFFFFFFFFF AND PUSH20 0xFFFFFFFFFFFFFFFFFFFFFFFFFFFFFFFFFFFFFFFF AND DUP2 MSTORE PUSH1 0x20 ADD SWAP1 DUP2 MSTORE PUSH1 0x20 ADD PUSH1 0x0 KECCAK256 SLOAD SWAP1 POP SWAP2 SWAP1 POP JUMP JUMPDEST PUSH2 0x2E1 PUSH2 0x411 JUMP JUMPDEST PUSH1 0x0 PUSH20 0xFFFFFFFFFFFFFFFFFFFFFFFFFFFFFFFFFFFFFFFF AND DUP2 PUSH20 0xFFFFFFFFFFFFFFFFFFFFFFFFFFFFFFFFFFFFFFFF AND SUB PUSH2 0x350 JUMPI PUSH1 0x40 MLOAD PUSH32 0x8C379A000000000000000000000000000000000000000000000000000000000 DUP2 MSTORE PUSH1 0x4 ADD PUSH2 0x347 SWAP1 PUSH2 0x82B JUMP JUMPDEST PUSH1 0x40 MLOAD DUP1 SWAP2 SUB SWAP1 REVERT JUMPDEST PUSH2 0x359 DUP2 PUSH2 0x583 JUMP JUMPDEST POP JUMP JUMPDEST PUSH2 0x364 PUSH2 0x411 JUMP JUMPDEST PUSH1 0x0 CALLVALUE SWAP1 POP DUP1 PUSH1 0x1 PUSH1 0x0 DUP5 PUSH20 0xFFFFFFFFFFFFFFFFFFFFFFFFFFFFFFFFFFFFFFFF AND PUSH20 0xFFFFFFFFFFFFFFFFFFFFFFFFFFFFFFFFFFFFFFFF AND DUP2 MSTORE PUSH1 0x20 ADD SWAP1 DUP2 MSTORE PUSH1 0x20 ADD PUSH1 0x0 KECCAK256 PUSH1 0x0 DUP3 DUP3 SLOAD PUSH2 0x3B8 SWAP2 SWAP1 PUSH2 0x87A JUMP JUMPDEST SWAP3 POP POP DUP2 SWAP1 SSTORE POP DUP2 PUSH20 0xFFFFFFFFFFFFFFFFFFFFFFFFFFFFFFFFFFFFFFFF AND PUSH32 0x2DA466A7B24304F47E87FA2E1E5A81B9831CE54FEC19055CE277CA2F39BA42C4 DUP3 PUSH1 0x40 MLOAD PUSH2 0x405 SWAP2 SWAP1 PUSH2 0x78D JUMP JUMPDEST PUSH1 0x40 MLOAD DUP1 SWAP2 SUB SWAP1 LOG2 POP POP JUMP JUMPDEST PUSH2 0x419 PUSH2 0x647 JUMP JUMPDEST PUSH20 0xFFFFFFFFFFFFFFFFFFFFFFFFFFFFFFFFFFFFFFFF AND PUSH2 0x437 PUSH2 0x267 JUMP JUMPDEST PUSH20 0xFFFFFFFFFFFFFFFFFFFFFFFFFFFFFFFFFFFFFFFF AND EQ PUSH2 0x48D JUMPI PUSH1 0x40 MLOAD PUSH32 0x8C379A000000000000000000000000000000000000000000000000000000000 DUP2 MSTORE PUSH1 0x4 ADD PUSH2 0x484 SWAP1 PUSH2 0x8FA JUMP JUMPDEST PUSH1 0x40 MLOAD DUP1 SWAP2 SUB SWAP1 REVERT JUMPDEST JUMP JUMPDEST DUP1 SELFBALANCE LT ISZERO PUSH2 0x4D2 JUMPI PUSH1 0x40 MLOAD PUSH32 0x8C379A000000000000000000000000000000000000000000000000000000000 DUP2 MSTORE PUSH1 0x4 ADD PUSH2 0x4C9 SWAP1 PUSH2 0x966 JUMP JUMPDEST PUSH1 0x40 MLOAD DUP1 SWAP2 SUB SWAP1 REVERT JUMPDEST PUSH1 0x0 DUP3 PUSH20 0xFFFFFFFFFFFFFFFFFFFFFFFFFFFFFFFFFFFFFFFF AND DUP3 PUSH1 0x40 MLOAD PUSH2 0x4F8 SWAP1 PUSH2 0x9B7 JUMP JUMPDEST PUSH1 0x0 PUSH1 0x40 MLOAD DUP1 DUP4 SUB DUP2 DUP6 DUP8 GAS CALL SWAP3 POP POP POP RETURNDATASIZE DUP1 PUSH1 0x0 DUP2 EQ PUSH2 0x535 JUMPI PUSH1 0x40 MLOAD SWAP2 POP PUSH1 0x1F NOT PUSH1 0x3F RETURNDATASIZE ADD AND DUP3 ADD PUSH1 0x40 MSTORE RETURNDATASIZE DUP3 MSTORE RETURNDATASIZE PUSH1 0x0 PUSH1 0x20 DUP5 ADD RETURNDATACOPY PUSH2 0x53A JUMP JUMPDEST PUSH1 0x60 SWAP2 POP JUMPDEST POP POP SWAP1 POP DUP1 PUSH2 0x57E JUMPI PUSH1 0x40 MLOAD PUSH32 0x8C379A000000000000000000000000000000000000000000000000000000000 DUP2 MSTORE PUSH1 0x4 ADD PUSH2 0x575 SWAP1 PUSH2 0xA3E JUMP JUMPDEST PUSH1 0x40 MLOAD DUP1 SWAP2 SUB SWAP1 REVERT JUMPDEST POP POP POP JUMP JUMPDEST PUSH1 0x0 DUP1 PUSH1 0x0 SWAP1 SLOAD SWAP1 PUSH2 0x100 EXP SWAP1 DIV PUSH20 0xFFFFFFFFFFFFFFFFFFFFFFFFFFFFFFFFFFFFFFFF AND SWAP1 POP DUP2 PUSH1 0x0 DUP1 PUSH2 0x100 EXP DUP2 SLOAD DUP2 PUSH20 0xFFFFFFFFFFFFFFFFFFFFFFFFFFFFFFFFFFFFFFFF MUL NOT AND SWAP1 DUP4 PUSH20 0xFFFFFFFFFFFFFFFFFFFFFFFFFFFFFFFFFFFFFFFF AND MUL OR SWAP1 SSTORE POP DUP2 PUSH20 0xFFFFFFFFFFFFFFFFFFFFFFFFFFFFFFFFFFFFFFFF AND DUP2 PUSH20 0xFFFFFFFFFFFFFFFFFFFFFFFFFFFFFFFFFFFFFFFF AND PUSH32 0x8BE0079C531659141344CD1FD0A4F28419497F9722A3DAAFE3B4186F6B6457E0 PUSH1 0x40 MLOAD PUSH1 0x40 MLOAD DUP1 SWAP2 SUB SWAP1 LOG3 POP POP JUMP JUMPDEST PUSH1 0x0 CALLER SWAP1 POP SWAP1 JUMP JUMPDEST PUSH1 0x0 DUP1 REVERT JUMPDEST PUSH1 0x0 PUSH20 0xFFFFFFFFFFFFFFFFFFFFFFFFFFFFFFFFFFFFFFFF DUP3 AND SWAP1 POP SWAP2 SWAP1 POP JUMP JUMPDEST PUSH1 0x0 PUSH2 0x67F DUP3 PUSH2 0x654 JUMP JUMPDEST SWAP1 POP SWAP2 SWAP1 POP JUMP JUMPDEST PUSH2 0x68F DUP2 PUSH2 0x674 JUMP JUMPDEST DUP2 EQ PUSH2 0x69A JUMPI PUSH1 0x0 DUP1 REVERT JUMPDEST POP JUMP JUMPDEST PUSH1 0x0 DUP2 CALLDATALOAD SWAP1 POP PUSH2 0x6AC DUP2 PUSH2 0x686 JUMP JUMPDEST SWAP3 SWAP2 POP POP JUMP JUMPDEST PUSH1 0x0 PUSH1 0x20 DUP3 DUP5 SUB SLT ISZERO PUSH2 0x6C8 JUMPI PUSH2 0x6C7 PUSH2 0x64F JUMP JUMPDEST JUMPDEST PUSH1 0x0 PUSH2 0x6D6 DUP5 DUP3 DUP6 ADD PUSH2 0x69D JUMP JUMPDEST SWAP2 POP POP SWAP3 SWAP2 POP POP JUMP JUMPDEST PUSH1 0x0 PUSH2 0x6EA DUP3 PUSH2 0x654 JUMP JUMPDEST SWAP1 POP SWAP2 SWAP1 POP JUMP JUMPDEST PUSH2 0x6FA DUP2 PUSH2 0x6DF JUMP JUMPDEST DUP3 MSTORE POP POP JUMP JUMPDEST PUSH1 0x0 PUSH1 0x20 DUP3 ADD SWAP1 POP PUSH2 0x715 PUSH1 0x0 DUP4 ADD DUP5 PUSH2 0x6F1 JUMP JUMPDEST SWAP3 SWAP2 POP POP JUMP JUMPDEST PUSH2 0x724 DUP2 PUSH2 0x6DF JUMP JUMPDEST DUP2 EQ PUSH2 0x72F JUMPI PUSH1 0x0 DUP1 REVERT JUMPDEST POP JUMP JUMPDEST PUSH1 0x0 DUP2 CALLDATALOAD SWAP1 POP PUSH2 0x741 DUP2 PUSH2 0x71B JUMP JUMPDEST SWAP3 SWAP2 POP POP JUMP JUMPDEST PUSH1 0x0 PUSH1 0x20 DUP3 DUP5 SUB SLT ISZERO PUSH2 0x75D JUMPI PUSH2 0x75C PUSH2 0x64F JUMP JUMPDEST JUMPDEST PUSH1 0x0 PUSH2 0x76B DUP5 DUP3 DUP6 ADD PUSH2 0x732 JUMP JUMPDEST SWAP2 POP POP SWAP3 SWAP2 POP POP JUMP JUMPDEST PUSH1 0x0 DUP2 SWAP1 POP SWAP2 SWAP1 POP JUMP JUMPDEST PUSH2 0x787 DUP2 PUSH2 0x774 JUMP JUMPDEST DUP3 MSTORE POP POP JUMP JUMPDEST PUSH1 0x0 PUSH1 0x20 DUP3 ADD SWAP1 POP PUSH2 0x7A2 PUSH1 0x0 DUP4 ADD DUP5 PUSH2 0x77E JUMP JUMPDEST SWAP3 SWAP2 POP POP JUMP JUMPDEST PUSH1 0x0 DUP3 DUP3 MSTORE PUSH1 0x20 DUP3 ADD SWAP1 POP SWAP3 SWAP2 POP POP JUMP JUMPDEST PUSH32 0x4F776E61626C653A206E6577206F776E657220697320746865207A65726F2061 PUSH1 0x0 DUP3 ADD MSTORE PUSH32 0x6464726573730000000000000000000000000000000000000000000000000000 PUSH1 0x20 DUP3 ADD MSTORE POP JUMP JUMPDEST PUSH1 0x0 PUSH2 0x815 PUSH1 0x26 DUP4 PUSH2 0x7A8 JUMP JUMPDEST SWAP2 POP PUSH2 0x820 DUP3 PUSH2 0x7B9 JUMP JUMPDEST PUSH1 0x40 DUP3 ADD SWAP1 POP SWAP2 SWAP1 POP JUMP JUMPDEST PUSH1 0x0 PUSH1 0x20 DUP3 ADD SWAP1 POP DUP2 DUP2 SUB PUSH1 0x0 DUP4 ADD MSTORE PUSH2 0x844 DUP2 PUSH2 0x808 JUMP JUMPDEST SWAP1 POP SWAP2 SWAP1 POP JUMP JUMPDEST PUSH32 0x4E487B7100000000000000000000000000000000000000000000000000000000 PUSH1 0x0 MSTORE PUSH1 0x11 PUSH1 0x4 MSTORE PUSH1 0x24 PUSH1 0x0 REVERT JUMPDEST PUSH1 0x0 PUSH2 0x885 DUP3 PUSH2 0x774 JUMP JUMPDEST SWAP2 POP PUSH2 0x890 DUP4 PUSH2 0x774 JUMP JUMPDEST SWAP3 POP DUP3 DUP3 ADD SWAP1 POP DUP1 DUP3 GT ISZERO PUSH2 0x8A8 JUMPI PUSH2 0x8A7 PUSH2 0x84B JUMP JUMPDEST JUMPDEST SWAP3 SWAP2 POP POP JUMP JUMPDEST PUSH32 0x4F776E61626C653A2063616C6C6572206973206E6F7420746865206F776E6572 PUSH1 0x0 DUP3 ADD MSTORE POP JUMP JUMPDEST PUSH1 0x0 PUSH2 0x8E4 PUSH1 0x20 DUP4 PUSH2 0x7A8 JUMP JUMPDEST SWAP2 POP PUSH2 0x8EF DUP3 PUSH2 0x8AE JUMP JUMPDEST PUSH1 0x20 DUP3 ADD SWAP1 POP SWAP2 SWAP1 POP JUMP JUMPDEST PUSH1 0x0 PUSH1 0x20 DUP3 ADD SWAP1 POP DUP2 DUP2 SUB PUSH1 0x0 DUP4 ADD MSTORE PUSH2 0x913 DUP2 PUSH2 0x8D7 JUMP JUMPDEST SWAP1 POP SWAP2 SWAP1 POP JUMP JUMPDEST PUSH32 0x416464726573733A20696E73756666696369656E742062616C616E6365000000 PUSH1 0x0 DUP3 ADD MSTORE POP JUMP JUMPDEST PUSH1 0x0 PUSH2 0x950 PUSH1 0x1D DUP4 PUSH2 0x7A8 JUMP JUMPDEST SWAP2 POP PUSH2 0x95B DUP3 PUSH2 0x91A JUMP JUMPDEST PUSH1 0x20 DUP3 ADD SWAP1 POP SWAP2 SWAP1 POP JUMP JUMPDEST PUSH1 0x0 PUSH1 0x20 DUP3 ADD SWAP1 POP DUP2 DUP2 SUB PUSH1 0x0 DUP4 ADD MSTORE PUSH2 0x97F DUP2 PUSH2 0x943 JUMP JUMPDEST SWAP1 POP SWAP2 SWAP1 POP JUMP JUMPDEST PUSH1 0x0 DUP2 SWAP1 POP SWAP3 SWAP2 POP POP JUMP JUMPDEST POP JUMP JUMPDEST PUSH1 0x0 PUSH2 0x9A1 PUSH1 0x0 DUP4 PUSH2 0x986 JUMP JUMPDEST SWAP2 POP PUSH2 0x9AC DUP3 PUSH2 0x991 JUMP JUMPDEST PUSH1 0x0 DUP3 ADD SWAP1 POP SWAP2 SWAP1 POP JUMP JUMPDEST PUSH1 0x0 PUSH2 0x9C2 DUP3 PUSH2 0x994 JUMP JUMPDEST SWAP2 POP DUP2 SWAP1 POP SWAP2 SWAP1 POP JUMP JUMPDEST PUSH32 0x416464726573733A20756E61626C6520746F2073656E642076616C75652C2072 PUSH1 0x0 DUP3 ADD MSTORE PUSH32 0x6563697069656E74206D61792068617665207265766572746564000000000000 PUSH1 0x20 DUP3 ADD MSTORE POP JUMP JUMPDEST PUSH1 0x0 PUSH2 0xA28 PUSH1 0x3A DUP4 PUSH2 0x7A8 JUMP JUMPDEST SWAP2 POP PUSH2 0xA33 DUP3 PUSH2 0x9CC JUMP JUMPDEST PUSH1 0x40 DUP3 ADD SWAP1 POP SWAP2 SWAP1 POP JUMP JUMPDEST PUSH1 0x0 PUSH1 0x20 DUP3 ADD SWAP1 POP DUP2 DUP2 SUB PUSH1 0x0 DUP4 ADD MSTORE PUSH2 0xA57 DUP2 PUSH2 0xA1B JUMP JUMPDEST SWAP1 POP SWAP2 SWAP1 POP JUMP INVALID LOG2 PUSH5 0x6970667358 0x22 SLT KECCAK256 PUSH2 0x5CFE 0xE5 0x49 0xC1 0x4D PUSH13 0xC44F5650A219CB79EE6E4E10D5 0xBD LOG4 0xAE 0xB1 SWAP12 PUSH13 0x34868022FC64736F6C63430008 GT STOP CALLER "},"methodIdentifiers":{"OPERATOR_FILTER_REGISTRY()":"41f43434","approve(address,uint256)":"095ea7b3","balanceOf(address)":"70a08231","baseTokenURI()":"d547cfb7","getApproved(uint256)":"081812fc","isApprovedForAll(address,address)":"e985e9c5","name()":"06fdde03","owner()":"8da5cb5b","ownerOf(uint256)":"6352211e","payments(address)":"e2982c21","renounceOwnership()":"715018a6","safeMint(address,string)":"d204c45e","safeTransferFrom(address,address,uint256)":"42842e0e","safeTransferFrom(address,address,uint256,bytes)":"b88d4fde","setApprovalForAll(address,bool)":"a22cb465","setBaseTokenURI(string)":"30176e13","setTokenURI(uint256,string)":"162094c4","supportsInterface(bytes4)":"01ffc9a7","symbol()":"95d89b41","tokenByIndex(uint256)":"4f6ccce7","tokenOfOwnerByIndex(address,uint256)":"2f745c59","tokenURI(uint256)":"c87b56dd","totalSupply()":"18160ddd","transferFrom(address,address,uint256)":"23b872dd","transferOwnership(address)":"f2fde38b","withdrawPayments(address)":"31b3eb94"}}}}}