{
  "_format": "hh-sol-artifact-1",
  "contractName": "Hanzi",
  "sourceName": "contracts/Hanzi.sol",
  "abi": [
    {
      "inputs": [],
      "stateMutability": "nonpayable",
      "type": "constructor"
    },
    {
      "inputs": [
        {
          "internalType": "address",
          "name": "operator",
          "type": "address"
        }
      ],
      "name": "OperatorNotAllowed",
      "type": "error"
    },
    {
      "anonymous": false,
      "inputs": [
        {
          "indexed": true,
          "internalType": "address",
          "name": "owner",
          "type": "address"
        },
        {
          "indexed": true,
          "internalType": "address",
          "name": "approved",
          "type": "address"
        },
        {
          "indexed": true,
          "internalType": "uint256",
          "name": "tokenId",
          "type": "uint256"
        }
      ],
      "name": "Approval",
      "type": "event"
    },
    {
      "anonymous": false,
      "inputs": [
        {
          "indexed": true,
          "internalType": "address",
          "name": "owner",
          "type": "address"
        },
        {
          "indexed": true,
          "internalType": "address",
          "name": "operator",
          "type": "address"
        },
        {
          "indexed": false,
          "internalType": "bool",
          "name": "approved",
          "type": "bool"
        }
      ],
      "name": "ApprovalForAll",
      "type": "event"
    },
    {
      "anonymous": false,
      "inputs": [
        {
          "indexed": true,
          "internalType": "address",
          "name": "previousOwner",
          "type": "address"
        },
        {
          "indexed": true,
          "internalType": "address",
          "name": "newOwner",
          "type": "address"
        }
      ],
      "name": "OwnershipTransferred",
      "type": "event"
    },
    {
      "anonymous": false,
      "inputs": [
        {
          "indexed": true,
          "internalType": "address",
          "name": "from",
          "type": "address"
        },
        {
          "indexed": true,
          "internalType": "address",
          "name": "to",
          "type": "address"
        },
        {
          "indexed": true,
          "internalType": "uint256",
          "name": "tokenId",
          "type": "uint256"
        }
      ],
      "name": "Transfer",
      "type": "event"
    },
    {
      "inputs": [],
      "name": "OPERATOR_FILTER_REGISTRY",
      "outputs": [
        {
          "internalType": "contract IOperatorFilterRegistry",
          "name": "",
          "type": "address"
        }
      ],
      "stateMutability": "view",
      "type": "function"
    },
    {
      "inputs": [
        {
          "internalType": "address",
          "name": "operator",
          "type": "address"
        },
        {
          "internalType": "uint256",
          "name": "tokenId",
          "type": "uint256"
        }
      ],
      "name": "approve",
      "outputs": [],
      "stateMutability": "nonpayable",
      "type": "function"
    },
    {
      "inputs": [
        {
          "internalType": "address",
          "name": "owner",
          "type": "address"
        }
      ],
      "name": "balanceOf",
      "outputs": [
        {
          "internalType": "uint256",
          "name": "",
          "type": "uint256"
        }
      ],
      "stateMutability": "view",
      "type": "function"
    },
    {
      "inputs": [],
      "name": "baseTokenURI",
      "outputs": [
        {
          "internalType": "string",
          "name": "",
          "type": "string"
        }
      ],
      "stateMutability": "view",
      "type": "function"
    },
    {
      "inputs": [
        {
          "internalType": "uint256[]",
          "name": "tokenIds",
          "type": "uint256[]"
        }
      ],
      "name": "burnTokens",
      "outputs": [],
      "stateMutability": "nonpayable",
      "type": "function"
    },
    {
      "inputs": [
        {
          "internalType": "uint256",
          "name": "tokenId",
          "type": "uint256"
        }
      ],
      "name": "getApproved",
      "outputs": [
        {
          "internalType": "address",
          "name": "",
          "type": "address"
        }
      ],
      "stateMutability": "view",
      "type": "function"
    },
    {
      "inputs": [
        {
          "internalType": "address",
          "name": "owner",
          "type": "address"
        },
        {
          "internalType": "address",
          "name": "operator",
          "type": "address"
        }
      ],
      "name": "isApprovedForAll",
      "outputs": [
        {
          "internalType": "bool",
          "name": "",
          "type": "bool"
        }
      ],
      "stateMutability": "view",
      "type": "function"
    },
    {
      "inputs": [],
      "name": "name",
      "outputs": [
        {
          "internalType": "string",
          "name": "",
          "type": "string"
        }
      ],
      "stateMutability": "view",
      "type": "function"
    },
    {
      "inputs": [],
      "name": "owner",
      "outputs": [
        {
          "internalType": "address",
          "name": "",
          "type": "address"
        }
      ],
      "stateMutability": "view",
      "type": "function"
    },
    {
      "inputs": [
        {
          "internalType": "uint256",
          "name": "tokenId",
          "type": "uint256"
        }
      ],
      "name": "ownerOf",
      "outputs": [
        {
          "internalType": "address",
          "name": "",
          "type": "address"
        }
      ],
      "stateMutability": "view",
      "type": "function"
    },
    {
      "inputs": [
        {
          "internalType": "address",
          "name": "dest",
          "type": "address"
        }
      ],
      "name": "payments",
      "outputs": [
        {
          "internalType": "uint256",
          "name": "",
          "type": "uint256"
        }
      ],
      "stateMutability": "view",
      "type": "function"
    },
    {
      "inputs": [],
      "name": "renounceOwnership",
      "outputs": [],
      "stateMutability": "nonpayable",
      "type": "function"
    },
    {
      "inputs": [
        {
          "internalType": "address",
          "name": "recipient",
          "type": "address"
        },
        {
          "internalType": "string",
          "name": "uri",
          "type": "string"
        }
      ],
      "name": "safeMint",
      "outputs": [
        {
          "internalType": "uint256",
          "name": "",
          "type": "uint256"
        }
      ],
      "stateMutability": "nonpayable",
      "type": "function"
    },
    {
      "inputs": [
        {
          "internalType": "address",
          "name": "from",
          "type": "address"
        },
        {
          "internalType": "address",
          "name": "to",
          "type": "address"
        },
        {
          "internalType": "uint256",
          "name": "tokenId",
          "type": "uint256"
        }
      ],
      "name": "safeTransferFrom",
      "outputs": [],
      "stateMutability": "nonpayable",
      "type": "function"
    },
    {
      "inputs": [
        {
          "internalType": "address",
          "name": "from",
          "type": "address"
        },
        {
          "internalType": "address",
          "name": "to",
          "type": "address"
        },
        {
          "internalType": "uint256",
          "name": "tokenId",
          "type": "uint256"
        },
        {
          "internalType": "bytes",
          "name": "data",
          "type": "bytes"
        }
      ],
      "name": "safeTransferFrom",
      "outputs": [],
      "stateMutability": "nonpayable",
      "type": "function"
    },
    {
      "inputs": [
        {
          "internalType": "address",
          "name": "operator",
          "type": "address"
        },
        {
          "internalType": "bool",
          "name": "approved",
          "type": "bool"
        }
      ],
      "name": "setApprovalForAll",
      "outputs": [],
      "stateMutability": "nonpayable",
      "type": "function"
    },
    {
      "inputs": [
        {
          "internalType": "string",
          "name": "_baseTokenURI",
          "type": "string"
        }
      ],
      "name": "setBaseTokenURI",
      "outputs": [],
      "stateMutability": "nonpayable",
      "type": "function"
    },
    {
      "inputs": [
        {
          "internalType": "uint256[]",
          "name": "tokenIds",
          "type": "uint256[]"
        },
        {
          "internalType": "string",
          "name": "uri",
          "type": "string"
        }
      ],
      "name": "setTokenURI",
      "outputs": [],
      "stateMutability": "nonpayable",
      "type": "function"
    },
    {
      "inputs": [
        {
          "internalType": "bytes4",
          "name": "interfaceId",
          "type": "bytes4"
        }
      ],
      "name": "supportsInterface",
      "outputs": [
        {
          "internalType": "bool",
          "name": "",
          "type": "bool"
        }
      ],
      "stateMutability": "view",
      "type": "function"
    },
    {
      "inputs": [],
      "name": "symbol",
      "outputs": [
        {
          "internalType": "string",
          "name": "",
          "type": "string"
        }
      ],
      "stateMutability": "view",
      "type": "function"
    },
    {
      "inputs": [
        {
          "internalType": "uint256",
          "name": "index",
          "type": "uint256"
        }
      ],
      "name": "tokenByIndex",
      "outputs": [
        {
          "internalType": "uint256",
          "name": "",
          "type": "uint256"
        }
      ],
      "stateMutability": "view",
      "type": "function"
    },
    {
      "inputs": [
        {
          "internalType": "address",
          "name": "owner",
          "type": "address"
        },
        {
          "internalType": "uint256",
          "name": "index",
          "type": "uint256"
        }
      ],
      "name": "tokenOfOwnerByIndex",
      "outputs": [
        {
          "internalType": "uint256",
          "name": "",
          "type": "uint256"
        }
      ],
      "stateMutability": "view",
      "type": "function"
    },
    {
      "inputs": [
        {
          "internalType": "uint256",
          "name": "tokenId",
          "type": "uint256"
        }
      ],
      "name": "tokenURI",
      "outputs": [
        {
          "internalType": "string",
          "name": "",
          "type": "string"
        }
      ],
      "stateMutability": "view",
      "type": "function"
    },
    {
      "inputs": [],
      "name": "totalSupply",
      "outputs": [
        {
          "internalType": "uint256",
          "name": "",
          "type": "uint256"
        }
      ],
      "stateMutability": "view",
      "type": "function"
    },
    {
      "inputs": [
        {
          "internalType": "address",
          "name": "from",
          "type": "address"
        },
        {
          "internalType": "address",
          "name": "to",
          "type": "address"
        },
        {
          "internalType": "uint256",
          "name": "tokenId",
          "type": "uint256"
        }
      ],
      "name": "transferFrom",
      "outputs": [],
      "stateMutability": "nonpayable",
      "type": "function"
    },
    {
      "inputs": [
        {
          "internalType": "address",
          "name": "newOwner",
          "type": "address"
        }
      ],
      "name": "transferOwnership",
      "outputs": [],
      "stateMutability": "nonpayable",
      "type": "function"
    },
    {
      "inputs": [
        {
          "internalType": "address payable",
          "name": "payee",
          "type": "address"
        }
      ],
      "name": "withdrawPayments",
      "outputs": [],
      "stateMutability": "nonpayable",
      "type": "function"
    }
  ],
  "bytecode": "0x60a06040526040518060400160405280600781526020017f697066733a2f2f00000000000000000000000000000000000000000000000000815250600d90816200004a9190620006d4565b503480156200005857600080fd5b50733cc6cdda760b79bafa08df41ecfa224f810dceb660016040518060400160405280600b81526020017f48616e7a6944657369676e0000000000000000000000000000000000000000008152506040518060400160405280600581526020017f48414e5a490000000000000000000000000000000000000000000000000000008152508160009081620000ed9190620006d4565b508060019081620000ff9190620006d4565b50505062000122620001166200037e60201b60201c565b6200038660201b60201c565b60405162000130906200044c565b604051809103906000f0801580156200014d573d6000803e3d6000fd5b5073ffffffffffffffffffffffffffffffffffffffff1660808173ffffffffffffffffffffffffffffffffffffffff168152505060006daaeb6d7670e522a718067333cd4e73ffffffffffffffffffffffffffffffffffffffff163b1115620003765780156200023c576daaeb6d7670e522a718067333cd4e73ffffffffffffffffffffffffffffffffffffffff16637d3e3dbe30846040518363ffffffff1660e01b81526004016200020292919062000800565b600060405180830381600087803b1580156200021d57600080fd5b505af115801562000232573d6000803e3d6000fd5b5050505062000375565b600073ffffffffffffffffffffffffffffffffffffffff168273ffffffffffffffffffffffffffffffffffffffff1614620002f6576daaeb6d7670e522a718067333cd4e73ffffffffffffffffffffffffffffffffffffffff1663a0af290330846040518363ffffffff1660e01b8152600401620002bc92919062000800565b600060405180830381600087803b158015620002d757600080fd5b505af1158015620002ec573d6000803e3d6000fd5b5050505062000374565b6daaeb6d7670e522a718067333cd4e73ffffffffffffffffffffffffffffffffffffffff16634420e486306040518263ffffffff1660e01b81526004016200033f91906200082d565b600060405180830381600087803b1580156200035a57600080fd5b505af11580156200036f573d6000803e3d6000fd5b505050505b5b5b50506200084a565b600033905090565b6000600b60009054906101000a900473ffffffffffffffffffffffffffffffffffffffff16905081600b60006101000a81548173ffffffffffffffffffffffffffffffffffffffff021916908373ffffffffffffffffffffffffffffffffffffffff1602179055508173ffffffffffffffffffffffffffffffffffffffff168173ffffffffffffffffffffffffffffffffffffffff167f8be0079c531659141344cd1fd0a4f28419497f9722a3daafe3b4186f6b6457e060405160405180910390a35050565b610ba18062004cf883390190565b600081519050919050565b7f4e487b7100000000000000000000000000000000000000000000000000000000600052604160045260246000fd5b7f4e487b7100000000000000000000000000000000000000000000000000000000600052602260045260246000fd5b60006002820490506001821680620004dc57607f821691505b602082108103620004f257620004f162000494565b5b50919050565b60008190508160005260206000209050919050565b60006020601f8301049050919050565b600082821b905092915050565b6000600883026200055c7fffffffffffffffffffffffffffffffffffffffffffffffffffffffffffffffff826200051d565b6200056886836200051d565b95508019841693508086168417925050509392505050565b6000819050919050565b6000819050919050565b6000620005b5620005af620005a98462000580565b6200058a565b62000580565b9050919050565b6000819050919050565b620005d18362000594565b620005e9620005e082620005bc565b8484546200052a565b825550505050565b600090565b62000600620005f1565b6200060d818484620005c6565b505050565b5b81811015620006355762000629600082620005f6565b60018101905062000613565b5050565b601f82111562000684576200064e81620004f8565b62000659846200050d565b8101602085101562000669578190505b6200068162000678856200050d565b83018262000612565b50505b505050565b600082821c905092915050565b6000620006a96000198460080262000689565b1980831691505092915050565b6000620006c4838362000696565b9150826002028217905092915050565b620006df826200045a565b67ffffffffffffffff811115620006fb57620006fa62000465565b5b620007078254620004c3565b6200071482828562000639565b600060209050601f8311600181146200074c576000841562000737578287015190505b620007438582620006b6565b865550620007b3565b601f1984166200075c86620004f8565b60005b8281101562000786578489015182556001820191506020850194506020810190506200075f565b86831015620007a65784890151620007a2601f89168262000696565b8355505b6001600288020188555050505b505050505050565b600073ffffffffffffffffffffffffffffffffffffffff82169050919050565b6000620007e882620007bb565b9050919050565b620007fa81620007db565b82525050565b6000604082019050620008176000830185620007ef565b620008266020830184620007ef565b9392505050565b6000602082019050620008446000830184620007ef565b92915050565b60805161448b6200086d60003960008181610c9d015261120c015261448b6000f3fe608060405234801561001057600080fd5b50600436106101a95760003560e01c806367a53173116100f9578063b88d4fde11610097578063d547cfb711610071578063d547cfb7146104ca578063e2982c21146104e8578063e985e9c514610518578063f2fde38b14610548576101a9565b8063b88d4fde1461044e578063c87b56dd1461046a578063d204c45e1461049a576101a9565b80638da5cb5b116100d35780638da5cb5b146103da57806395d89b41146103f8578063a22cb46514610416578063aee9173014610432576101a9565b806367a531731461038457806370a08231146103a0578063715018a6146103d0576101a9565b80632f745c591161016657806341f434341161014057806341f43434146102ea57806342842e0e146103085780634f6ccce7146103245780636352211e14610354576101a9565b80632f745c591461028257806330176e13146102b257806331b3eb94146102ce576101a9565b806301ffc9a7146101ae57806306fdde03146101de578063081812fc146101fc578063095ea7b31461022c57806318160ddd1461024857806323b872dd14610266575b600080fd5b6101c860048036038101906101c39190612bcd565b610564565b6040516101d59190612c15565b60405180910390f35b6101e6610576565b6040516101f39190612cc0565b60405180910390f35b61021660048036038101906102119190612d18565b610608565b6040516102239190612d86565b60405180910390f35b61024660048036038101906102419190612dcd565b61064e565b005b610250610667565b60405161025d9190612e1c565b60405180910390f35b610280600480360381019061027b9190612e37565b610674565b005b61029c60048036038101906102979190612dcd565b6106c3565b6040516102a99190612e1c565b60405180910390f35b6102cc60048036038101906102c79190612fbf565b610768565b005b6102e860048036038101906102e39190613046565b610783565b005b6102f2610797565b6040516102ff91906130d2565b60405180910390f35b610322600480360381019061031d9190612e37565b6107a9565b005b61033e60048036038101906103399190612d18565b6107f8565b60405161034b9190612e1c565b60405180910390f35b61036e60048036038101906103699190612d18565b610869565b60405161037b9190612d86565b60405180910390f35b61039e600480360381019061039991906131b5565b6108ef565b005b6103ba60048036038101906103b591906131fe565b61093d565b6040516103c79190612e1c565b60405180910390f35b6103d86109f4565b005b6103e2610a08565b6040516103ef9190612d86565b60405180910390f35b610400610a32565b60405161040d9190612cc0565b60405180910390f35b610430600480360381019061042b9190613257565b610ac4565b005b61044c60048036038101906104479190613297565b610add565b005b610468600480360381019061046391906133b0565b610b2d565b005b610484600480360381019061047f9190612d18565b610b7e565b6040516104919190612cc0565b60405180910390f35b6104b460048036038101906104af9190613433565b610b90565b6040516104c19190612e1c565b60405180910390f35b6104d2610c0b565b6040516104df9190612cc0565b60405180910390f35b61050260048036038101906104fd91906131fe565b610c99565b60405161050f9190612e1c565b60405180910390f35b610532600480360381019061052d919061348f565b610d3c565b60405161053f9190612c15565b60405180910390f35b610562600480360381019061055d91906131fe565b610dd0565b005b600061056f82610e53565b9050919050565b606060008054610585906134fe565b80601f01602080910402602001604051908101604052809291908181526020018280546105b1906134fe565b80156105fe5780601f106105d3576101008083540402835291602001916105fe565b820191906000526020600020905b8154815290600101906020018083116105e157829003601f168201915b5050505050905090565b600061061382610ecd565b6004600083815260200190815260200160002060009054906101000a900473ffffffffffffffffffffffffffffffffffffffff169050919050565b8161065881610f18565b6106628383611015565b505050565b6000600880549050905090565b823373ffffffffffffffffffffffffffffffffffffffff168173ffffffffffffffffffffffffffffffffffffffff16146106b2576106b133610f18565b5b6106bd84848461112c565b50505050565b60006106ce8361093d565b821061070f576040517f08c379a0000000000000000000000000000000000000000000000000000000008152600401610706906135a1565b60405180910390fd5b600660008473ffffffffffffffffffffffffffffffffffffffff1673ffffffffffffffffffffffffffffffffffffffff168152602001908152602001600020600083815260200190815260200160002054905092915050565b61077061118c565b80600d908161077f9190613763565b5050565b61078b61118c565b6107948161120a565b50565b6daaeb6d7670e522a718067333cd4e81565b823373ffffffffffffffffffffffffffffffffffffffff168173ffffffffffffffffffffffffffffffffffffffff16146107e7576107e633610f18565b5b6107f2848484611298565b50505050565b6000610802610667565b8210610843576040517f08c379a000000000000000000000000000000000000000000000000000000000815260040161083a906138a7565b60405180910390fd5b60088281548110610857576108566138c7565b5b90600052602060002001549050919050565b600080610875836112b8565b9050600073ffffffffffffffffffffffffffffffffffffffff168173ffffffffffffffffffffffffffffffffffffffff16036108e6576040517f08c379a00000000000000000000000000000000000000000000000000000000081526004016108dd90613942565b60405180910390fd5b80915050919050565b6108f761118c565b60005b815181101561093957610926828281518110610919576109186138c7565b5b60200260200101516112f5565b808061093190613991565b9150506108fa565b5050565b60008073ffffffffffffffffffffffffffffffffffffffff168273ffffffffffffffffffffffffffffffffffffffff16036109ad576040517f08c379a00000000000000000000000000000000000000000000000000000000081526004016109a490613a4b565b60405180910390fd5b600360008373ffffffffffffffffffffffffffffffffffffffff1673ffffffffffffffffffffffffffffffffffffffff168152602001908152602001600020549050919050565b6109fc61118c565b610a066000611301565b565b6000600b60009054906101000a900473ffffffffffffffffffffffffffffffffffffffff16905090565b606060018054610a41906134fe565b80601f0160208091040260200160405190810160405280929190818152602001828054610a6d906134fe565b8015610aba5780601f10610a8f57610100808354040283529160200191610aba565b820191906000526020600020905b815481529060010190602001808311610a9d57829003601f168201915b5050505050905090565b81610ace81610f18565b610ad883836113c7565b505050565b610ae561118c565b60005b8251811015610b2857610b15838281518110610b0757610b066138c7565b5b6020026020010151836113dd565b8080610b2090613991565b915050610ae8565b505050565b833373ffffffffffffffffffffffffffffffffffffffff168173ffffffffffffffffffffffffffffffffffffffff1614610b6b57610b6a33610f18565b5b610b778585858561144a565b5050505050565b6060610b89826114ac565b9050919050565b600080825111610bd5576040517f08c379a0000000000000000000000000000000000000000000000000000000008152600401610bcc90613ab7565b60405180910390fd5b610bdf600c6115be565b6000610beb600c6115d4565b9050610bf784826115e2565b610c0181846113dd565b8091505092915050565b600d8054610c18906134fe565b80601f0160208091040260200160405190810160405280929190818152602001828054610c44906134fe565b8015610c915780601f10610c6657610100808354040283529160200191610c91565b820191906000526020600020905b815481529060010190602001808311610c7457829003601f168201915b505050505081565b60007f000000000000000000000000000000000000000000000000000000000000000073ffffffffffffffffffffffffffffffffffffffff1663e3a9db1a836040518263ffffffff1660e01b8152600401610cf49190612d86565b602060405180830381865afa158015610d11573d6000803e3d6000fd5b505050506040513d601f19601f82011682018060405250810190610d359190613aec565b9050919050565b6000600560008473ffffffffffffffffffffffffffffffffffffffff1673ffffffffffffffffffffffffffffffffffffffff16815260200190815260200160002060008373ffffffffffffffffffffffffffffffffffffffff1673ffffffffffffffffffffffffffffffffffffffff16815260200190815260200160002060009054906101000a900460ff16905092915050565b610dd861118c565b600073ffffffffffffffffffffffffffffffffffffffff168173ffffffffffffffffffffffffffffffffffffffff1603610e47576040517f08c379a0000000000000000000000000000000000000000000000000000000008152600401610e3e90613b8b565b60405180910390fd5b610e5081611301565b50565b60007f780e9d63000000000000000000000000000000000000000000000000000000007bffffffffffffffffffffffffffffffffffffffffffffffffffffffff1916827bffffffffffffffffffffffffffffffffffffffffffffffffffffffff19161480610ec65750610ec582611600565b5b9050919050565b610ed6816116e2565b610f15576040517f08c379a0000000000000000000000000000000000000000000000000000000008152600401610f0c90613942565b60405180910390fd5b50565b60006daaeb6d7670e522a718067333cd4e73ffffffffffffffffffffffffffffffffffffffff163b1115611012576daaeb6d7670e522a718067333cd4e73ffffffffffffffffffffffffffffffffffffffff1663c617113430836040518363ffffffff1660e01b8152600401610f8f929190613bab565b602060405180830381865afa158015610fac573d6000803e3d6000fd5b505050506040513d601f19601f82011682018060405250810190610fd09190613be9565b61101157806040517fede71dcc0000000000000000000000000000000000000000000000000000000081526004016110089190612d86565b60405180910390fd5b5b50565b600061102082610869565b90508073ffffffffffffffffffffffffffffffffffffffff168373ffffffffffffffffffffffffffffffffffffffff1603611090576040517f08c379a000000000000000000000000000000000000000000000000000000000815260040161108790613c88565b60405180910390fd5b8073ffffffffffffffffffffffffffffffffffffffff166110af611723565b73ffffffffffffffffffffffffffffffffffffffff1614806110de57506110dd816110d8611723565b610d3c565b5b61111d576040517f08c379a000000000000000000000000000000000000000000000000000000000815260040161111490613d1a565b60405180910390fd5b611127838361172b565b505050565b61113d611137611723565b826117e4565b61117c576040517f08c379a000000000000000000000000000000000000000000000000000000000815260040161117390613dac565b60405180910390fd5b611187838383611879565b505050565b611194611723565b73ffffffffffffffffffffffffffffffffffffffff166111b2610a08565b73ffffffffffffffffffffffffffffffffffffffff1614611208576040517f08c379a00000000000000000000000000000000000000000000000000000000081526004016111ff90613e18565b60405180910390fd5b565b7f000000000000000000000000000000000000000000000000000000000000000073ffffffffffffffffffffffffffffffffffffffff166351cff8d9826040518263ffffffff1660e01b81526004016112639190613e47565b600060405180830381600087803b15801561127d57600080fd5b505af1158015611291573d6000803e3d6000fd5b5050505050565b6112b383838360405180602001604052806000815250610b2d565b505050565b60006002600083815260200190815260200160002060009054906101000a900473ffffffffffffffffffffffffffffffffffffffff169050919050565b6112fe81611b72565b50565b6000600b60009054906101000a900473ffffffffffffffffffffffffffffffffffffffff16905081600b60006101000a81548173ffffffffffffffffffffffffffffffffffffffff021916908373ffffffffffffffffffffffffffffffffffffffff1602179055508173ffffffffffffffffffffffffffffffffffffffff168173ffffffffffffffffffffffffffffffffffffffff167f8be0079c531659141344cd1fd0a4f28419497f9722a3daafe3b4186f6b6457e060405160405180910390a35050565b6113d96113d2611723565b8383611bc5565b5050565b6113e6826116e2565b611425576040517f08c379a000000000000000000000000000000000000000000000000000000000815260040161141c90613ed4565b60405180910390fd5b80600a600084815260200190815260200160002090816114459190613763565b505050565b61145b611455611723565b836117e4565b61149a576040517f08c379a000000000000000000000000000000000000000000000000000000000815260040161149190613dac565b60405180910390fd5b6114a684848484611d31565b50505050565b60606114b782610ecd565b6000600a600084815260200190815260200160002080546114d7906134fe565b80601f0160208091040260200160405190810160405280929190818152602001828054611503906134fe565b80156115505780601f1061152557610100808354040283529160200191611550565b820191906000526020600020905b81548152906001019060200180831161153357829003601f168201915b505050505090506000611561611d8d565b905060008151036115765781925050506115b9565b6000825111156115ab578082604051602001611593929190613f30565b604051602081830303815290604052925050506115b9565b6115b484611e1f565b925050505b919050565b6001816000016000828254019250508190555050565b600081600001549050919050565b6115fc828260405180602001604052806000815250611e87565b5050565b60007f80ac58cd000000000000000000000000000000000000000000000000000000007bffffffffffffffffffffffffffffffffffffffffffffffffffffffff1916827bffffffffffffffffffffffffffffffffffffffffffffffffffffffff191614806116cb57507f5b5e139f000000000000000000000000000000000000000000000000000000007bffffffffffffffffffffffffffffffffffffffffffffffffffffffff1916827bffffffffffffffffffffffffffffffffffffffffffffffffffffffff1916145b806116db57506116da82611ee2565b5b9050919050565b60008073ffffffffffffffffffffffffffffffffffffffff16611704836112b8565b73ffffffffffffffffffffffffffffffffffffffff1614159050919050565b600033905090565b816004600083815260200190815260200160002060006101000a81548173ffffffffffffffffffffffffffffffffffffffff021916908373ffffffffffffffffffffffffffffffffffffffff160217905550808273ffffffffffffffffffffffffffffffffffffffff1661179e83610869565b73ffffffffffffffffffffffffffffffffffffffff167f8c5be1e5ebec7d5bd14f71427d1e84f3dd0314c0f7b2291e5b200ac8c7c3b92560405160405180910390a45050565b6000806117f083610869565b90508073ffffffffffffffffffffffffffffffffffffffff168473ffffffffffffffffffffffffffffffffffffffff16148061183257506118318185610d3c565b5b8061187057508373ffffffffffffffffffffffffffffffffffffffff1661185884610608565b73ffffffffffffffffffffffffffffffffffffffff16145b91505092915050565b8273ffffffffffffffffffffffffffffffffffffffff1661189982610869565b73ffffffffffffffffffffffffffffffffffffffff16146118ef576040517f08c379a00000000000000000000000000000000000000000000000000000000081526004016118e690613fc6565b60405180910390fd5b600073ffffffffffffffffffffffffffffffffffffffff168273ffffffffffffffffffffffffffffffffffffffff160361195e576040517f08c379a000000000000000000000000000000000000000000000000000000000815260040161195590614058565b60405180910390fd5b61196b8383836001611f4c565b8273ffffffffffffffffffffffffffffffffffffffff1661198b82610869565b73ffffffffffffffffffffffffffffffffffffffff16146119e1576040517f08c379a00000000000000000000000000000000000000000000000000000000081526004016119d890613fc6565b60405180910390fd5b6004600082815260200190815260200160002060006101000a81549073ffffffffffffffffffffffffffffffffffffffff02191690556001600360008573ffffffffffffffffffffffffffffffffffffffff1673ffffffffffffffffffffffffffffffffffffffff168152602001908152602001600020600082825403925050819055506001600360008473ffffffffffffffffffffffffffffffffffffffff1673ffffffffffffffffffffffffffffffffffffffff16815260200190815260200160002060008282540192505081905550816002600083815260200190815260200160002060006101000a81548173ffffffffffffffffffffffffffffffffffffffff021916908373ffffffffffffffffffffffffffffffffffffffff160217905550808273ffffffffffffffffffffffffffffffffffffffff168473ffffffffffffffffffffffffffffffffffffffff167fddf252ad1be2c89b69c2b068fc378daa952ba7f163c4a11628f55a4df523b3ef60405160405180910390a4611b6d8383836001611f5e565b505050565b611b7b81611f64565b6000600a60008381526020019081526020016000208054611b9b906134fe565b905014611bc257600a60008281526020019081526020016000206000611bc19190612b04565b5b50565b8173ffffffffffffffffffffffffffffffffffffffff168373ffffffffffffffffffffffffffffffffffffffff1603611c33576040517f08c379a0000000000000000000000000000000000000000000000000000000008152600401611c2a906140c4565b60405180910390fd5b80600560008573ffffffffffffffffffffffffffffffffffffffff1673ffffffffffffffffffffffffffffffffffffffff16815260200190815260200160002060008473ffffffffffffffffffffffffffffffffffffffff1673ffffffffffffffffffffffffffffffffffffffff16815260200190815260200160002060006101000a81548160ff0219169083151502179055508173ffffffffffffffffffffffffffffffffffffffff168373ffffffffffffffffffffffffffffffffffffffff167f17307eab39ab6107e8899845ad3d59bd9653f200f220920489ca2b5937696c3183604051611d249190612c15565b60405180910390a3505050565b611d3c848484611879565b611d48848484846120b2565b611d87576040517f08c379a0000000000000000000000000000000000000000000000000000000008152600401611d7e90614156565b60405180910390fd5b50505050565b6060600d8054611d9c906134fe565b80601f0160208091040260200160405190810160405280929190818152602001828054611dc8906134fe565b8015611e155780601f10611dea57610100808354040283529160200191611e15565b820191906000526020600020905b815481529060010190602001808311611df857829003601f168201915b5050505050905090565b6060611e2a82610ecd565b6000611e34611d8d565b90506000815111611e545760405180602001604052806000815250611e7f565b80611e5e84612239565b604051602001611e6f929190613f30565b6040516020818303038152906040525b915050919050565b611e918383612307565b611e9e60008484846120b2565b611edd576040517f08c379a0000000000000000000000000000000000000000000000000000000008152600401611ed490614156565b60405180910390fd5b505050565b60007f01ffc9a7000000000000000000000000000000000000000000000000000000007bffffffffffffffffffffffffffffffffffffffffffffffffffffffff1916827bffffffffffffffffffffffffffffffffffffffffffffffffffffffff1916149050919050565b611f5884848484612524565b50505050565b50505050565b6000611f6f82610869565b9050611f7f816000846001611f4c565b611f8882610869565b90506004600083815260200190815260200160002060006101000a81549073ffffffffffffffffffffffffffffffffffffffff02191690556001600360008373ffffffffffffffffffffffffffffffffffffffff1673ffffffffffffffffffffffffffffffffffffffff168152602001908152602001600020600082825403925050819055506002600083815260200190815260200160002060006101000a81549073ffffffffffffffffffffffffffffffffffffffff021916905581600073ffffffffffffffffffffffffffffffffffffffff168273ffffffffffffffffffffffffffffffffffffffff167fddf252ad1be2c89b69c2b068fc378daa952ba7f163c4a11628f55a4df523b3ef60405160405180910390a46120ae816000846001611f5e565b5050565b60006120d38473ffffffffffffffffffffffffffffffffffffffff16612682565b1561222c578373ffffffffffffffffffffffffffffffffffffffff1663150b7a026120fc611723565b8786866040518563ffffffff1660e01b815260040161211e94939291906141cb565b6020604051808303816000875af192505050801561215a57506040513d601f19601f82011682018060405250810190612157919061422c565b60015b6121dc573d806000811461218a576040519150601f19603f3d011682016040523d82523d6000602084013e61218f565b606091505b5060008151036121d4576040517f08c379a00000000000000000000000000000000000000000000000000000000081526004016121cb90614156565b60405180910390fd5b805181602001fd5b63150b7a0260e01b7bffffffffffffffffffffffffffffffffffffffffffffffffffffffff1916817bffffffffffffffffffffffffffffffffffffffffffffffffffffffff191614915050612231565b600190505b949350505050565b606060006001612248846126a5565b01905060008167ffffffffffffffff81111561226757612266612e94565b5b6040519080825280601f01601f1916602001820160405280156122995781602001600182028036833780820191505090505b509050600082602001820190505b6001156122fc578080600190039150507f3031323334353637383961626364656600000000000000000000000000000000600a86061a8153600a85816122f0576122ef614259565b5b049450600085036122a7575b819350505050919050565b600073ffffffffffffffffffffffffffffffffffffffff168273ffffffffffffffffffffffffffffffffffffffff1603612376576040517f08c379a000000000000000000000000000000000000000000000000000000000815260040161236d906142d4565b60405180910390fd5b61237f816116e2565b156123bf576040517f08c379a00000000000000000000000000000000000000000000000000000000081526004016123b690614340565b60405180910390fd5b6123cd600083836001611f4c565b6123d6816116e2565b15612416576040517f08c379a000000000000000000000000000000000000000000000000000000000815260040161240d90614340565b60405180910390fd5b6001600360008473ffffffffffffffffffffffffffffffffffffffff1673ffffffffffffffffffffffffffffffffffffffff16815260200190815260200160002060008282540192505081905550816002600083815260200190815260200160002060006101000a81548173ffffffffffffffffffffffffffffffffffffffff021916908373ffffffffffffffffffffffffffffffffffffffff160217905550808273ffffffffffffffffffffffffffffffffffffffff16600073ffffffffffffffffffffffffffffffffffffffff167fddf252ad1be2c89b69c2b068fc378daa952ba7f163c4a11628f55a4df523b3ef60405160405180910390a4612520600083836001611f5e565b5050565b612530848484846127f8565b6001811115612574576040517f08c379a000000000000000000000000000000000000000000000000000000000815260040161256b906143d2565b60405180910390fd5b6000829050600073ffffffffffffffffffffffffffffffffffffffff168573ffffffffffffffffffffffffffffffffffffffff16036125bb576125b6816127fe565b6125fa565b8373ffffffffffffffffffffffffffffffffffffffff168573ffffffffffffffffffffffffffffffffffffffff16146125f9576125f88582612847565b5b5b600073ffffffffffffffffffffffffffffffffffffffff168473ffffffffffffffffffffffffffffffffffffffff160361263c57612637816129b4565b61267b565b8473ffffffffffffffffffffffffffffffffffffffff168473ffffffffffffffffffffffffffffffffffffffff161461267a576126798482612a85565b5b5b5050505050565b6000808273ffffffffffffffffffffffffffffffffffffffff163b119050919050565b600080600090507a184f03e93ff9f4daa797ed6e38ed64bf6a1f0100000000000000008310612703577a184f03e93ff9f4daa797ed6e38ed64bf6a1f01000000000000000083816126f9576126f8614259565b5b0492506040810190505b6d04ee2d6d415b85acef81000000008310612740576d04ee2d6d415b85acef8100000000838161273657612735614259565b5b0492506020810190505b662386f26fc10000831061276f57662386f26fc10000838161276557612764614259565b5b0492506010810190505b6305f5e1008310612798576305f5e100838161278e5761278d614259565b5b0492506008810190505b61271083106127bd5761271083816127b3576127b2614259565b5b0492506004810190505b606483106127e057606483816127d6576127d5614259565b5b0492506002810190505b600a83106127ef576001810190505b80915050919050565b50505050565b6008805490506009600083815260200190815260200160002081905550600881908060018154018082558091505060019003906000526020600020016000909190919091505550565b600060016128548461093d565b61285e91906143f2565b9050600060076000848152602001908152602001600020549050818114612943576000600660008673ffffffffffffffffffffffffffffffffffffffff1673ffffffffffffffffffffffffffffffffffffffff168152602001908152602001600020600084815260200190815260200160002054905080600660008773ffffffffffffffffffffffffffffffffffffffff1673ffffffffffffffffffffffffffffffffffffffff168152602001908152602001600020600084815260200190815260200160002081905550816007600083815260200190815260200160002081905550505b6007600084815260200190815260200160002060009055600660008573ffffffffffffffffffffffffffffffffffffffff1673ffffffffffffffffffffffffffffffffffffffff16815260200190815260200160002060008381526020019081526020016000206000905550505050565b600060016008805490506129c891906143f2565b90506000600960008481526020019081526020016000205490506000600883815481106129f8576129f76138c7565b5b906000526020600020015490508060088381548110612a1a57612a196138c7565b5b906000526020600020018190555081600960008381526020019081526020016000208190555060096000858152602001908152602001600020600090556008805480612a6957612a68614426565b5b6001900381819060005260206000200160009055905550505050565b6000612a908361093d565b905081600660008573ffffffffffffffffffffffffffffffffffffffff1673ffffffffffffffffffffffffffffffffffffffff168152602001908152602001600020600083815260200190815260200160002081905550806007600084815260200190815260200160002081905550505050565b508054612b10906134fe565b6000825580601f10612b225750612b41565b601f016020900490600052602060002090810190612b409190612b44565b5b50565b5b80821115612b5d576000816000905550600101612b45565b5090565b6000604051905090565b600080fd5b600080fd5b60007fffffffff0000000000000000000000000000000000000000000000000000000082169050919050565b612baa81612b75565b8114612bb557600080fd5b50565b600081359050612bc781612ba1565b92915050565b600060208284031215612be357612be2612b6b565b5b6000612bf184828501612bb8565b91505092915050565b60008115159050919050565b612c0f81612bfa565b82525050565b6000602082019050612c2a6000830184612c06565b92915050565b600081519050919050565b600082825260208201905092915050565b60005b83811015612c6a578082015181840152602081019050612c4f565b60008484015250505050565b6000601f19601f8301169050919050565b6000612c9282612c30565b612c9c8185612c3b565b9350612cac818560208601612c4c565b612cb581612c76565b840191505092915050565b60006020820190508181036000830152612cda8184612c87565b905092915050565b6000819050919050565b612cf581612ce2565b8114612d0057600080fd5b50565b600081359050612d1281612cec565b92915050565b600060208284031215612d2e57612d2d612b6b565b5b6000612d3c84828501612d03565b91505092915050565b600073ffffffffffffffffffffffffffffffffffffffff82169050919050565b6000612d7082612d45565b9050919050565b612d8081612d65565b82525050565b6000602082019050612d9b6000830184612d77565b92915050565b612daa81612d65565b8114612db557600080fd5b50565b600081359050612dc781612da1565b92915050565b60008060408385031215612de457612de3612b6b565b5b6000612df285828601612db8565b9250506020612e0385828601612d03565b9150509250929050565b612e1681612ce2565b82525050565b6000602082019050612e316000830184612e0d565b92915050565b600080600060608486031215612e5057612e4f612b6b565b5b6000612e5e86828701612db8565b9350506020612e6f86828701612db8565b9250506040612e8086828701612d03565b9150509250925092565b600080fd5b600080fd5b7f4e487b7100000000000000000000000000000000000000000000000000000000600052604160045260246000fd5b612ecc82612c76565b810181811067ffffffffffffffff82111715612eeb57612eea612e94565b5b80604052505050565b6000612efe612b61565b9050612f0a8282612ec3565b919050565b600067ffffffffffffffff821115612f2a57612f29612e94565b5b612f3382612c76565b9050602081019050919050565b82818337600083830152505050565b6000612f62612f5d84612f0f565b612ef4565b905082815260208101848484011115612f7e57612f7d612e8f565b5b612f89848285612f40565b509392505050565b600082601f830112612fa657612fa5612e8a565b5b8135612fb6848260208601612f4f565b91505092915050565b600060208284031215612fd557612fd4612b6b565b5b600082013567ffffffffffffffff811115612ff357612ff2612b70565b5b612fff84828501612f91565b91505092915050565b600061301382612d45565b9050919050565b61302381613008565b811461302e57600080fd5b50565b6000813590506130408161301a565b92915050565b60006020828403121561305c5761305b612b6b565b5b600061306a84828501613031565b91505092915050565b6000819050919050565b600061309861309361308e84612d45565b613073565b612d45565b9050919050565b60006130aa8261307d565b9050919050565b60006130bc8261309f565b9050919050565b6130cc816130b1565b82525050565b60006020820190506130e760008301846130c3565b92915050565b600067ffffffffffffffff82111561310857613107612e94565b5b602082029050602081019050919050565b600080fd5b600061313161312c846130ed565b612ef4565b9050808382526020820190506020840283018581111561315457613153613119565b5b835b8181101561317d57806131698882612d03565b845260208401935050602081019050613156565b5050509392505050565b600082601f83011261319c5761319b612e8a565b5b81356131ac84826020860161311e565b91505092915050565b6000602082840312156131cb576131ca612b6b565b5b600082013567ffffffffffffffff8111156131e9576131e8612b70565b5b6131f584828501613187565b91505092915050565b60006020828403121561321457613213612b6b565b5b600061322284828501612db8565b91505092915050565b61323481612bfa565b811461323f57600080fd5b50565b6000813590506132518161322b565b92915050565b6000806040838503121561326e5761326d612b6b565b5b600061327c85828601612db8565b925050602061328d85828601613242565b9150509250929050565b600080604083850312156132ae576132ad612b6b565b5b600083013567ffffffffffffffff8111156132cc576132cb612b70565b5b6132d885828601613187565b925050602083013567ffffffffffffffff8111156132f9576132f8612b70565b5b61330585828601612f91565b9150509250929050565b600067ffffffffffffffff82111561332a57613329612e94565b5b61333382612c76565b9050602081019050919050565b600061335361334e8461330f565b612ef4565b90508281526020810184848401111561336f5761336e612e8f565b5b61337a848285612f40565b509392505050565b600082601f83011261339757613396612e8a565b5b81356133a7848260208601613340565b91505092915050565b600080600080608085870312156133ca576133c9612b6b565b5b60006133d887828801612db8565b94505060206133e987828801612db8565b93505060406133fa87828801612d03565b925050606085013567ffffffffffffffff81111561341b5761341a612b70565b5b61342787828801613382565b91505092959194509250565b6000806040838503121561344a57613449612b6b565b5b600061345885828601612db8565b925050602083013567ffffffffffffffff81111561347957613478612b70565b5b61348585828601612f91565b9150509250929050565b600080604083850312156134a6576134a5612b6b565b5b60006134b485828601612db8565b92505060206134c585828601612db8565b9150509250929050565b7f4e487b7100000000000000000000000000000000000000000000000000000000600052602260045260246000fd5b6000600282049050600182168061351657607f821691505b602082108103613529576135286134cf565b5b50919050565b7f455243373231456e756d657261626c653a206f776e657220696e646578206f7560008201527f74206f6620626f756e6473000000000000000000000000000000000000000000602082015250565b600061358b602b83612c3b565b91506135968261352f565b604082019050919050565b600060208201905081810360008301526135ba8161357e565b9050919050565b60008190508160005260206000209050919050565b60006020601f8301049050919050565b600082821b905092915050565b6000600883026136237fffffffffffffffffffffffffffffffffffffffffffffffffffffffffffffffff826135e6565b61362d86836135e6565b95508019841693508086168417925050509392505050565b600061366061365b61365684612ce2565b613073565b612ce2565b9050919050565b6000819050919050565b61367a83613645565b61368e61368682613667565b8484546135f3565b825550505050565b600090565b6136a3613696565b6136ae818484613671565b505050565b5b818110156136d2576136c760008261369b565b6001810190506136b4565b5050565b601f821115613717576136e8816135c1565b6136f1846135d6565b81016020851015613700578190505b61371461370c856135d6565b8301826136b3565b50505b505050565b600082821c905092915050565b600061373a6000198460080261371c565b1980831691505092915050565b60006137538383613729565b9150826002028217905092915050565b61376c82612c30565b67ffffffffffffffff81111561378557613784612e94565b5b61378f82546134fe565b61379a8282856136d6565b600060209050601f8311600181146137cd57600084156137bb578287015190505b6137c58582613747565b86555061382d565b601f1984166137db866135c1565b60005b82811015613803578489015182556001820191506020850194506020810190506137de565b86831015613820578489015161381c601f891682613729565b8355505b6001600288020188555050505b505050505050565b7f455243373231456e756d657261626c653a20676c6f62616c20696e646578206f60008201527f7574206f6620626f756e64730000000000000000000000000000000000000000602082015250565b6000613891602c83612c3b565b915061389c82613835565b604082019050919050565b600060208201905081810360008301526138c081613884565b9050919050565b7f4e487b7100000000000000000000000000000000000000000000000000000000600052603260045260246000fd5b7f4552433732313a20696e76616c696420746f6b656e2049440000000000000000600082015250565b600061392c601883612c3b565b9150613937826138f6565b602082019050919050565b6000602082019050818103600083015261395b8161391f565b9050919050565b7f4e487b7100000000000000000000000000000000000000000000000000000000600052601160045260246000fd5b600061399c82612ce2565b91507fffffffffffffffffffffffffffffffffffffffffffffffffffffffffffffffff82036139ce576139cd613962565b5b600182019050919050565b7f4552433732313a2061646472657373207a65726f206973206e6f74206120766160008201527f6c6964206f776e65720000000000000000000000000000000000000000000000602082015250565b6000613a35602983612c3b565b9150613a40826139d9565b604082019050919050565b60006020820190508181036000830152613a6481613a28565b9050919050565b7f55524920697320656d7074790000000000000000000000000000000000000000600082015250565b6000613aa1600c83612c3b565b9150613aac82613a6b565b602082019050919050565b60006020820190508181036000830152613ad081613a94565b9050919050565b600081519050613ae681612cec565b92915050565b600060208284031215613b0257613b01612b6b565b5b6000613b1084828501613ad7565b91505092915050565b7f4f776e61626c653a206e6577206f776e657220697320746865207a65726f206160008201527f6464726573730000000000000000000000000000000000000000000000000000602082015250565b6000613b75602683612c3b565b9150613b8082613b19565b604082019050919050565b60006020820190508181036000830152613ba481613b68565b9050919050565b6000604082019050613bc06000830185612d77565b613bcd6020830184612d77565b9392505050565b600081519050613be38161322b565b92915050565b600060208284031215613bff57613bfe612b6b565b5b6000613c0d84828501613bd4565b91505092915050565b7f4552433732313a20617070726f76616c20746f2063757272656e74206f776e6560008201527f7200000000000000000000000000000000000000000000000000000000000000602082015250565b6000613c72602183612c3b565b9150613c7d82613c16565b604082019050919050565b60006020820190508181036000830152613ca181613c65565b9050919050565b7f4552433732313a20617070726f76652063616c6c6572206973206e6f7420746f60008201527f6b656e206f776e6572206f7220617070726f76656420666f7220616c6c000000602082015250565b6000613d04603d83612c3b565b9150613d0f82613ca8565b604082019050919050565b60006020820190508181036000830152613d3381613cf7565b9050919050565b7f4552433732313a2063616c6c6572206973206e6f7420746f6b656e206f776e6560008201527f72206f7220617070726f76656400000000000000000000000000000000000000602082015250565b6000613d96602d83612c3b565b9150613da182613d3a565b604082019050919050565b60006020820190508181036000830152613dc581613d89565b9050919050565b7f4f776e61626c653a2063616c6c6572206973206e6f7420746865206f776e6572600082015250565b6000613e02602083612c3b565b9150613e0d82613dcc565b602082019050919050565b60006020820190508181036000830152613e3181613df5565b9050919050565b613e4181613008565b82525050565b6000602082019050613e5c6000830184613e38565b92915050565b7f45524337323155524953746f726167653a2055524920736574206f66206e6f6e60008201527f6578697374656e7420746f6b656e000000000000000000000000000000000000602082015250565b6000613ebe602e83612c3b565b9150613ec982613e62565b604082019050919050565b60006020820190508181036000830152613eed81613eb1565b9050919050565b600081905092915050565b6000613f0a82612c30565b613f148185613ef4565b9350613f24818560208601612c4c565b80840191505092915050565b6000613f3c8285613eff565b9150613f488284613eff565b91508190509392505050565b7f4552433732313a207472616e736665722066726f6d20696e636f72726563742060008201527f6f776e6572000000000000000000000000000000000000000000000000000000602082015250565b6000613fb0602583612c3b565b9150613fbb82613f54565b604082019050919050565b60006020820190508181036000830152613fdf81613fa3565b9050919050565b7f4552433732313a207472616e7366657220746f20746865207a65726f2061646460008201527f7265737300000000000000000000000000000000000000000000000000000000602082015250565b6000614042602483612c3b565b915061404d82613fe6565b604082019050919050565b6000602082019050818103600083015261407181614035565b9050919050565b7f4552433732313a20617070726f766520746f2063616c6c657200000000000000600082015250565b60006140ae601983612c3b565b91506140b982614078565b602082019050919050565b600060208201905081810360008301526140dd816140a1565b9050919050565b7f4552433732313a207472616e7366657220746f206e6f6e20455243373231526560008201527f63656976657220696d706c656d656e7465720000000000000000000000000000602082015250565b6000614140603283612c3b565b915061414b826140e4565b604082019050919050565b6000602082019050818103600083015261416f81614133565b9050919050565b600081519050919050565b600082825260208201905092915050565b600061419d82614176565b6141a78185614181565b93506141b7818560208601612c4c565b6141c081612c76565b840191505092915050565b60006080820190506141e06000830187612d77565b6141ed6020830186612d77565b6141fa6040830185612e0d565b818103606083015261420c8184614192565b905095945050505050565b60008151905061422681612ba1565b92915050565b60006020828403121561424257614241612b6b565b5b600061425084828501614217565b91505092915050565b7f4e487b7100000000000000000000000000000000000000000000000000000000600052601260045260246000fd5b7f4552433732313a206d696e7420746f20746865207a65726f2061646472657373600082015250565b60006142be602083612c3b565b91506142c982614288565b602082019050919050565b600060208201905081810360008301526142ed816142b1565b9050919050565b7f4552433732313a20746f6b656e20616c7265616479206d696e74656400000000600082015250565b600061432a601c83612c3b565b9150614335826142f4565b602082019050919050565b600060208201905081810360008301526143598161431d565b9050919050565b7f455243373231456e756d657261626c653a20636f6e736563757469766520747260008201527f616e7366657273206e6f7420737570706f727465640000000000000000000000602082015250565b60006143bc603583612c3b565b91506143c782614360565b604082019050919050565b600060208201905081810360008301526143eb816143af565b9050919050565b60006143fd82612ce2565b915061440883612ce2565b92508282039050818111156144205761441f613962565b5b92915050565b7f4e487b7100000000000000000000000000000000000000000000000000000000600052603160045260246000fdfea2646970667358221220974e4beb3dba7bd0c0cb6ca6c7e750d3bb95d7da7aa4f7fef391da55bfb3936564736f6c63430008110033608060405234801561001057600080fd5b5061002d61002261003260201b60201c565b61003a60201b60201c565b6100fe565b600033905090565b60008060009054906101000a900473ffffffffffffffffffffffffffffffffffffffff169050816000806101000a81548173ffffffffffffffffffffffffffffffffffffffff021916908373ffffffffffffffffffffffffffffffffffffffff1602179055508173ffffffffffffffffffffffffffffffffffffffff168173ffffffffffffffffffffffffffffffffffffffff167f8be0079c531659141344cd1fd0a4f28419497f9722a3daafe3b4186f6b6457e060405160405180910390a35050565b610a948061010d6000396000f3fe6080604052600436106100555760003560e01c806351cff8d91461005a578063715018a6146100835780638da5cb5b1461009a578063e3a9db1a146100c5578063f2fde38b14610102578063f340fa011461012b575b600080fd5b34801561006657600080fd5b50610081600480360381019061007c91906106b2565b610147565b005b34801561008f57600080fd5b50610098610253565b005b3480156100a657600080fd5b506100af610267565b6040516100bc9190610700565b60405180910390f35b3480156100d157600080fd5b506100ec60048036038101906100e79190610747565b610290565b6040516100f9919061078d565b60405180910390f35b34801561010e57600080fd5b5061012960048036038101906101249190610747565b6102d9565b005b61014560048036038101906101409190610747565b61035c565b005b61014f610411565b6000600160008373ffffffffffffffffffffffffffffffffffffffff1673ffffffffffffffffffffffffffffffffffffffff1681526020019081526020016000205490506000600160008473ffffffffffffffffffffffffffffffffffffffff1673ffffffffffffffffffffffffffffffffffffffff16815260200190815260200160002081905550610201818373ffffffffffffffffffffffffffffffffffffffff1661048f90919063ffffffff16565b8173ffffffffffffffffffffffffffffffffffffffff167f7084f5476618d8e60b11ef0d7d3f06914655adb8793e28ff7f018d4c76d505d582604051610247919061078d565b60405180910390a25050565b61025b610411565b6102656000610583565b565b60008060009054906101000a900473ffffffffffffffffffffffffffffffffffffffff16905090565b6000600160008373ffffffffffffffffffffffffffffffffffffffff1673ffffffffffffffffffffffffffffffffffffffff168152602001908152602001600020549050919050565b6102e1610411565b600073ffffffffffffffffffffffffffffffffffffffff168173ffffffffffffffffffffffffffffffffffffffff1603610350576040517f08c379a00000000000000000000000000000000000000000000000000000000081526004016103479061082b565b60405180910390fd5b61035981610583565b50565b610364610411565b600034905080600160008473ffffffffffffffffffffffffffffffffffffffff1673ffffffffffffffffffffffffffffffffffffffff16815260200190815260200160002060008282546103b8919061087a565b925050819055508173ffffffffffffffffffffffffffffffffffffffff167f2da466a7b24304f47e87fa2e1e5a81b9831ce54fec19055ce277ca2f39ba42c482604051610405919061078d565b60405180910390a25050565b610419610647565b73ffffffffffffffffffffffffffffffffffffffff16610437610267565b73ffffffffffffffffffffffffffffffffffffffff161461048d576040517f08c379a0000000000000000000000000000000000000000000000000000000008152600401610484906108fa565b60405180910390fd5b565b804710156104d2576040517f08c379a00000000000000000000000000000000000000000000000000000000081526004016104c990610966565b60405180910390fd5b60008273ffffffffffffffffffffffffffffffffffffffff16826040516104f8906109b7565b60006040518083038185875af1925050503d8060008114610535576040519150601f19603f3d011682016040523d82523d6000602084013e61053a565b606091505b505090508061057e576040517f08c379a000000000000000000000000000000000000000000000000000000000815260040161057590610a3e565b60405180910390fd5b505050565b60008060009054906101000a900473ffffffffffffffffffffffffffffffffffffffff169050816000806101000a81548173ffffffffffffffffffffffffffffffffffffffff021916908373ffffffffffffffffffffffffffffffffffffffff1602179055508173ffffffffffffffffffffffffffffffffffffffff168173ffffffffffffffffffffffffffffffffffffffff167f8be0079c531659141344cd1fd0a4f28419497f9722a3daafe3b4186f6b6457e060405160405180910390a35050565b600033905090565b600080fd5b600073ffffffffffffffffffffffffffffffffffffffff82169050919050565b600061067f82610654565b9050919050565b61068f81610674565b811461069a57600080fd5b50565b6000813590506106ac81610686565b92915050565b6000602082840312156106c8576106c761064f565b5b60006106d68482850161069d565b91505092915050565b60006106ea82610654565b9050919050565b6106fa816106df565b82525050565b600060208201905061071560008301846106f1565b92915050565b610724816106df565b811461072f57600080fd5b50565b6000813590506107418161071b565b92915050565b60006020828403121561075d5761075c61064f565b5b600061076b84828501610732565b91505092915050565b6000819050919050565b61078781610774565b82525050565b60006020820190506107a2600083018461077e565b92915050565b600082825260208201905092915050565b7f4f776e61626c653a206e6577206f776e657220697320746865207a65726f206160008201527f6464726573730000000000000000000000000000000000000000000000000000602082015250565b60006108156026836107a8565b9150610820826107b9565b604082019050919050565b6000602082019050818103600083015261084481610808565b9050919050565b7f4e487b7100000000000000000000000000000000000000000000000000000000600052601160045260246000fd5b600061088582610774565b915061089083610774565b92508282019050808211156108a8576108a761084b565b5b92915050565b7f4f776e61626c653a2063616c6c6572206973206e6f7420746865206f776e6572600082015250565b60006108e46020836107a8565b91506108ef826108ae565b602082019050919050565b60006020820190508181036000830152610913816108d7565b9050919050565b7f416464726573733a20696e73756666696369656e742062616c616e6365000000600082015250565b6000610950601d836107a8565b915061095b8261091a565b602082019050919050565b6000602082019050818103600083015261097f81610943565b9050919050565b600081905092915050565b50565b60006109a1600083610986565b91506109ac82610991565b600082019050919050565b60006109c282610994565b9150819050919050565b7f416464726573733a20756e61626c6520746f2073656e642076616c75652c207260008201527f6563697069656e74206d61792068617665207265766572746564000000000000602082015250565b6000610a28603a836107a8565b9150610a33826109cc565b604082019050919050565b60006020820190508181036000830152610a5781610a1b565b905091905056fea2646970667358221220615cfee549c14d6cc44f5650a219cb79ee6e4e10d5bda4aeb19b6c34868022fc64736f6c63430008110033",
  "linkReferences": {},
  "deployedLinkReferences": {}
}